{
  "address": "0x1E9c6F7baF1Ed882B5276568879b44Dc585ef2d5",
  "abi": [
    {
      "inputs": [],
      "stateMutability": "nonpayable",
      "type": "constructor"
    },
    {
      "anonymous": false,
      "inputs": [
        {
          "indexed": true,
          "internalType": "address",
          "name": "previousOwner",
          "type": "address"
        },
        {
          "indexed": true,
          "internalType": "address",
          "name": "newOwner",
          "type": "address"
        }
      ],
      "name": "OwnershipTransferred",
      "type": "event"
    },
    {
      "inputs": [],
      "name": "CARD_IDENTITY_BIT",
      "outputs": [
        {
          "internalType": "uint8",
          "name": "",
          "type": "uint8"
        }
      ],
      "stateMutability": "view",
      "type": "function"
    },
    {
      "inputs": [],
      "name": "CARD_IDENTITY_MASK",
      "outputs": [
        {
          "internalType": "uint256",
          "name": "",
          "type": "uint256"
        }
      ],
      "stateMutability": "view",
      "type": "function"
    },
    {
      "inputs": [],
      "name": "CARD_IDENTITY_PADDING_BIT",
      "outputs": [
        {
          "internalType": "uint8",
          "name": "",
          "type": "uint8"
        }
      ],
      "stateMutability": "view",
      "type": "function"
    },
    {
      "inputs": [],
      "name": "CARD_PERSONALITY_INDEX_BIT",
      "outputs": [
        {
          "internalType": "uint8",
          "name": "",
          "type": "uint8"
        }
      ],
      "stateMutability": "view",
      "type": "function"
    },
    {
      "inputs": [],
      "name": "CARD_PERSONALITY_INDEX_MASK",
      "outputs": [
        {
          "internalType": "uint256",
          "name": "",
          "type": "uint256"
        }
      ],
      "stateMutability": "view",
      "type": "function"
    },
    {
      "inputs": [],
      "name": "CARD_PERSONALITY_MINTTIME_BIT",
      "outputs": [
        {
          "internalType": "uint8",
          "name": "",
          "type": "uint8"
        }
      ],
      "stateMutability": "view",
      "type": "function"
    },
    {
      "inputs": [],
      "name": "CARD_PERSONALITY_MINTTIME_MASK",
      "outputs": [
        {
          "internalType": "uint256",
          "name": "",
          "type": "uint256"
        }
      ],
      "stateMutability": "view",
      "type": "function"
    },
    {
      "inputs": [],
      "name": "CARD_PERSONALITY_PADDING_BIT",
      "outputs": [
        {
          "internalType": "uint8",
          "name": "",
          "type": "uint8"
        }
      ],
      "stateMutability": "view",
      "type": "function"
    },
    {
      "inputs": [],
      "name": "CARD_PERSONALITY_SKILL_BIT",
      "outputs": [
        {
          "internalType": "uint8",
          "name": "",
          "type": "uint8"
        }
      ],
      "stateMutability": "view",
      "type": "function"
    },
    {
      "inputs": [],
      "name": "CARD_PERSONALITY_SKILL_MASK",
      "outputs": [
        {
          "internalType": "uint256",
          "name": "",
          "type": "uint256"
        }
      ],
      "stateMutability": "view",
      "type": "function"
    },
    {
      "inputs": [],
      "name": "CARD_RARITY_BIT",
      "outputs": [
        {
          "internalType": "uint8",
          "name": "",
          "type": "uint8"
        }
      ],
      "stateMutability": "view",
      "type": "function"
    },
    {
      "inputs": [],
      "name": "CARD_RARITY_MASK",
      "outputs": [
        {
          "internalType": "uint256",
          "name": "",
          "type": "uint256"
        }
      ],
      "stateMutability": "view",
      "type": "function"
    },
    {
      "inputs": [],
      "name": "CARD_SKIN_BIT",
      "outputs": [
        {
          "internalType": "uint8",
          "name": "",
          "type": "uint8"
        }
      ],
      "stateMutability": "view",
      "type": "function"
    },
    {
      "inputs": [],
      "name": "CARD_SKIN_MASK",
      "outputs": [
        {
          "internalType": "uint256",
          "name": "",
          "type": "uint256"
        }
      ],
      "stateMutability": "view",
      "type": "function"
    },
    {
      "inputs": [],
      "name": "NFT_SIGN",
      "outputs": [
        {
          "internalType": "uint16",
          "name": "",
          "type": "uint16"
        }
      ],
      "stateMutability": "view",
      "type": "function"
    },
    {
      "inputs": [],
      "name": "NFT_SIGN_BIT",
      "outputs": [
        {
          "internalType": "uint8",
          "name": "",
          "type": "uint8"
        }
      ],
      "stateMutability": "view",
      "type": "function"
    },
    {
      "inputs": [
        {
          "internalType": "uint16",
          "name": "_skin",
          "type": "uint16"
        },
        {
          "internalType": "uint16",
          "name": "_rarity",
          "type": "uint16"
        },
        {
          "internalType": "bytes32",
          "name": "_comment",
          "type": "bytes32"
        }
      ],
      "name": "addCardType",
      "outputs": [
        {
          "internalType": "uint256",
          "name": "cardId",
          "type": "uint256"
        }
      ],
      "stateMutability": "nonpayable",
      "type": "function"
    },
    {
      "inputs": [
        {
          "internalType": "uint32",
          "name": "_skill",
          "type": "uint32"
        }
      ],
      "name": "addSkillType",
      "outputs": [
        {
          "internalType": "bool",
          "name": "",
          "type": "bool"
        }
      ],
      "stateMutability": "nonpayable",
      "type": "function"
    },
    {
      "inputs": [
        {
          "internalType": "uint256",
          "name": "",
          "type": "uint256"
        }
      ],
      "name": "cardTypes",
      "outputs": [
        {
          "internalType": "uint16",
          "name": "skin",
          "type": "uint16"
        },
        {
          "internalType": "uint16",
          "name": "rarity",
          "type": "uint16"
        },
        {
          "internalType": "bytes32",
          "name": "comment",
          "type": "bytes32"
        }
      ],
      "stateMutability": "view",
      "type": "function"
    },
    {
      "inputs": [
        {
          "internalType": "uint32",
          "name": "_skill",
          "type": "uint32"
        }
      ],
      "name": "containSkill",
      "outputs": [
        {
          "internalType": "bool",
          "name": "",
          "type": "bool"
        }
      ],
      "stateMutability": "view",
      "type": "function"
    },
    {
      "inputs": [],
      "name": "getCardTypesLength",
      "outputs": [
        {
          "internalType": "uint256",
          "name": "",
          "type": "uint256"
        }
      ],
      "stateMutability": "view",
      "type": "function"
    },
    {
      "inputs": [
        {
          "internalType": "uint256",
          "name": "_cardId",
          "type": "uint256"
        }
      ],
      "name": "getIdentityFromCardId",
      "outputs": [
        {
          "internalType": "uint256",
          "name": "",
          "type": "uint256"
        }
      ],
      "stateMutability": "view",
      "type": "function"
    },
    {
      "inputs": [],
      "name": "getSkillLength",
      "outputs": [
        {
          "internalType": "uint256",
          "name": "",
          "type": "uint256"
        }
      ],
      "stateMutability": "view",
      "type": "function"
    },
    {
      "inputs": [
        {
          "internalType": "uint256",
          "name": "tokenId",
          "type": "uint256"
        }
      ],
      "name": "getTokenIdentity",
      "outputs": [
        {
          "internalType": "uint256",
          "name": "",
          "type": "uint256"
        }
      ],
      "stateMutability": "pure",
      "type": "function"
    },
    {
      "inputs": [
        {
          "internalType": "uint256",
          "name": "tokenId",
          "type": "uint256"
        }
      ],
      "name": "getTokenIndex",
      "outputs": [
        {
          "internalType": "uint64",
          "name": "",
          "type": "uint64"
        }
      ],
      "stateMutability": "pure",
      "type": "function"
    },
    {
      "inputs": [
        {
          "internalType": "uint256",
          "name": "tokenId",
          "type": "uint256"
        }
      ],
      "name": "getTokenMintTime",
      "outputs": [
        {
          "internalType": "uint64",
          "name": "",
          "type": "uint64"
        }
      ],
      "stateMutability": "pure",
      "type": "function"
    },
    {
      "inputs": [
        {
          "internalType": "uint256",
          "name": "tokenId",
          "type": "uint256"
        }
      ],
      "name": "getTokenPersonality",
      "outputs": [
        {
          "internalType": "uint256",
          "name": "",
          "type": "uint256"
        }
      ],
      "stateMutability": "pure",
      "type": "function"
    },
    {
      "inputs": [
        {
          "internalType": "uint256",
          "name": "tokenId",
          "type": "uint256"
        }
      ],
      "name": "getTokenRarity",
      "outputs": [
        {
          "internalType": "uint16",
          "name": "",
          "type": "uint16"
        }
      ],
      "stateMutability": "pure",
      "type": "function"
    },
    {
      "inputs": [
        {
          "internalType": "uint256",
          "name": "tokenId",
          "type": "uint256"
        }
      ],
      "name": "getTokenSkill",
      "outputs": [
        {
          "internalType": "uint32",
          "name": "",
          "type": "uint32"
        }
      ],
      "stateMutability": "pure",
      "type": "function"
    },
    {
      "inputs": [
        {
          "internalType": "uint256",
          "name": "tokenId",
          "type": "uint256"
        }
      ],
      "name": "getTokenSkin",
      "outputs": [
        {
          "internalType": "uint16",
          "name": "",
          "type": "uint16"
        }
      ],
      "stateMutability": "pure",
      "type": "function"
    },
    {
      "inputs": [],
      "name": "owner",
      "outputs": [
        {
          "internalType": "address",
          "name": "",
          "type": "address"
        }
      ],
      "stateMutability": "view",
      "type": "function"
    },
    {
      "inputs": [],
      "name": "renounceOwnership",
      "outputs": [],
      "stateMutability": "nonpayable",
      "type": "function"
    },
    {
      "inputs": [
        {
          "internalType": "address",
          "name": "newOwner",
          "type": "address"
        }
      ],
      "name": "transferOwnership",
      "outputs": [],
      "stateMutability": "nonpayable",
      "type": "function"
    }
  ],
  "transactionHash": "0x9a3fc2dbdcf8d4fc456ab5097448a37cc46fb86236538eb98b7dc3056a176071",
  "args": [],
  "solcInputHash": "24858961e066203ddb505a514341a5fd",
  "bytecode": "0x608060405234801561001057600080fd5b50600061001b610075565b600080546001600160a01b0319166001600160a01b0383169081178255604051929350917f8be0079c531659141344cd1fd0a4f28419497f9722a3daafe3b4186f6b6457e0908290a3506001805481018155600052610079565b3390565b610aad806100886000396000f3fe608060405234801561001057600080fd5b50600436106101fb5760003560e01c80637272bf7d1161011a578063a734fc17116100ad578063db11b4011161007c578063db11b40114610370578063e10f024d1461048e578063e876190214610496578063eaa6c0da1461049e578063f2fde38b146104e0576101fb565b8063a734fc1714610429578063b00feffd14610431578063b5924acb14610454578063b805223714610471576101fb565b8063a208ab7c116100e9578063a208ab7c14610409578063a45f727a14610411578063a54f8fae14610419578063a6ff0ec014610421576101fb565b80637272bf7d1461038a5780638da5cb5b146103a757806397027d94146103cb5780639ac20477146103d3576101fb565b80633dc1a6bc116101925780635e1e2f27116101615780635e1e2f27146103685780635e526eb114610370578063706e559e14610378578063715018a614610380576101fb565b80633dc1a6bc146102db5780634935b48b146102e3578063555ec78b1461031457806358704d8914610331576101fb565b80631612f56e116101ce5780631612f56e14610273578063349511cc1461029157806334ab8b05146102995780633a663c80146102a1576101fb565b806301d266d414610200578063062e7ac51461022f5780630ab12ded146102375780630c198fca14610256575b600080fd5b61021d6004803603602081101561021657600080fd5b5035610506565b60408051918252519081900360200190f35b61021d61051c565b61023f610527565b6040805161ffff9092168252519081900360200190f35b61023f6004803603602081101561026c57600080fd5b503561052d565b61027b610533565b6040805160ff9092168252519081900360200190f35b61027b610538565b61021d61053d565b6102be600480360360208110156102b757600080fd5b5035610549565b6040805167ffffffffffffffff9092168252519081900360200190f35b61021d61054c565b61021d600480360360608110156102f957600080fd5b5061ffff81358116916020810135909116906040013561055d565b61023f6004803603602081101561032a57600080fd5b503561064a565b6103546004803603602081101561034757600080fd5b503563ffffffff16610650565b604080519115158252519081900360200190f35b61021d6106ce565b61027b6106d7565b61027b6106dc565b6103886106e1565b005b61021d600480360360208110156103a057600080fd5b503561078d565b6103af610793565b604080516001600160a01b039092168252519081900360200190f35b61021d6107a2565b6103f0600480360360208110156103e957600080fd5b50356107ae565b6040805163ffffffff9092168252519081900360200190f35b61021d6107b4565b61021d6107ba565b61027b6107cb565b61027b6107d0565b61027b6107d5565b6103546004803603602081101561044757600080fd5b503563ffffffff166107da565b61021d6004803603602081101561046a57600080fd5b50356107f0565b6102be6004803603602081101561048757600080fd5b5035610842565b61027b61084f565b61021d610854565b6104bb600480360360208110156104b457600080fd5b503561085d565b6040805161ffff94851681529290931660208301528183015290519081900360600190f35b610388600480360360208110156104f657600080fd5b50356001600160a01b031661089b565b70ffffffffffffffffffffffffffffffffff1690565b63ffffffff60681b81565b61800081565b60e01c90565b604081565b60d081565b6001600160a81b031981565b90565b6000610558600261099d565b905090565b60006105676109a8565b6001600160a01b0316610578610793565b6001600160a01b0316146105c1576040805162461bcd60e51b81526020600482018190526024820152600080516020610a58833981519152604482015290519081900360640190fd5b50600180548082018255600091909152600281027fb10e2d527612073b26eecdfd717e6a320cf44b4afac2b0732d9fcbe2b7fa0cf68101805461ffff958616620100000263ffff0000199790961661ffff199091161795909516939093179093557fb10e2d527612073b26eecdfd717e6a320cf44b4afac2b0732d9fcbe2b7fa0cf79091015590565b60d01c90565b600061065a6109a8565b6001600160a01b031661066b610793565b6001600160a01b0316146106b4576040805162461bcd60e51b81526020600482018190526024820152600080516020610a58833981519152604482015290519081900360640190fd5b6106c8600263ffffffff808516906109ac16565b92915050565b61ffff60e01b81565b60a881565b606881565b6106e96109a8565b6001600160a01b03166106fa610793565b6001600160a01b031614610743576040805162461bcd60e51b81526020600482018190526024820152600080516020610a58833981519152604482015290519081900360640190fd5b600080546040516001600160a01b03909116907f8be0079c531659141344cd1fd0a4f28419497f9722a3daafe3b4186f6b6457e0908390a3600080546001600160a01b0319169055565b60a81c90565b6000546001600160a01b031690565b67ffffffffffffffff81565b60681c90565b60015490565b6cffffffffff000000000000000081565b60e081565b608881565b600081565b60006106c8600263ffffffff808516906109bf16565b6000806001838154811061080057fe5b6000918252602090912060029091020154600160ff1b62010000820460d01b61ffff60d01b1660e09290921b61ffff60e01b16919091171760a81c9392505050565b60401c64ffffffffff1690565b60f081565b61ffff60d01b81565b6001818154811061086d57600080fd5b60009182526020909120600290910201805460019091015461ffff8083169350620100009092049091169083565b6108a36109a8565b6001600160a01b03166108b4610793565b6001600160a01b0316146108fd576040805162461bcd60e51b81526020600482018190526024820152600080516020610a58833981519152604482015290519081900360640190fd5b6001600160a01b0381166109425760405162461bcd60e51b8152600401808060200182810382526026815260200180610a326026913960400191505060405180910390fd5b600080546040516001600160a01b03808516939216917f8be0079c531659141344cd1fd0a4f28419497f9722a3daafe3b4186f6b6457e091a3600080546001600160a01b0319166001600160a01b0392909216919091179055565b60006106c8826109cb565b3390565b60006109b883836109cf565b9392505050565b60006109b88383610a19565b5490565b60006109db8383610a19565b610a11575081546001818101845560008481526020808220909301849055845484825282860190935260409020919091556106c8565b5060006106c8565b6000908152600191909101602052604090205415159056fe4f776e61626c653a206e6577206f776e657220697320746865207a65726f20616464726573734f776e61626c653a2063616c6c6572206973206e6f7420746865206f776e6572a2646970667358221220b939bb4ae074f77b57265f405a0247d03a6033578874dfe5b4f05c5cc65e627d64736f6c63430007040033",
  "devdoc": {
    "kind": "dev",
    "methods": {
      "owner()": {
        "details": "Returns the address of the current owner."
      },
      "renounceOwnership()": {
        "details": "Leaves the contract without owner. It will not be possible to call `onlyOwner` functions anymore. Can only be called by the current owner. NOTE: Renouncing ownership will leave the contract without an owner, thereby removing any functionality that is only available to the owner."
      },
      "transferOwnership(address)": {
        "details": "Transfers ownership of the contract to a new account (`newOwner`). Can only be called by the current owner."
      }
    },
    "version": 1
  },
  "userdoc": {
    "kind": "user",
    "methods": {},
    "version": 1
  },
  "storageLayout": {
    "storage": [
      {
        "astId": 290,
        "contract": "contracts/CardSpec.sol:CardSpec",
        "label": "_owner",
        "offset": 0,
        "slot": "0",
        "type": "t_address"
      },
      {
        "astId": 4633,
        "contract": "contracts/CardSpec.sol:CardSpec",
        "label": "cardTypes",
        "offset": 0,
        "slot": "1",
        "type": "t_array(t_struct(CardType)4630_storage)dyn_storage"
      },
      {
        "astId": 4635,
        "contract": "contracts/CardSpec.sol:CardSpec",
        "label": "skillTypes",
        "offset": 0,
        "slot": "2",
        "type": "t_struct(UintSet)4238_storage"
      }
    ],
    "types": {
      "t_address": {
        "encoding": "inplace",
        "label": "address",
        "numberOfBytes": "20"
      },
      "t_array(t_bytes32)dyn_storage": {
        "base": "t_bytes32",
        "encoding": "dynamic_array",
        "label": "bytes32[]",
        "numberOfBytes": "32"
      },
      "t_array(t_struct(CardType)4630_storage)dyn_storage": {
        "base": "t_struct(CardType)4630_storage",
        "encoding": "dynamic_array",
        "label": "struct CardSpec.CardType[]",
        "numberOfBytes": "32"
      },
      "t_bytes32": {
        "encoding": "inplace",
        "label": "bytes32",
        "numberOfBytes": "32"
      },
      "t_mapping(t_bytes32,t_uint256)": {
        "encoding": "mapping",
        "key": "t_bytes32",
        "label": "mapping(bytes32 => uint256)",
        "numberOfBytes": "32",
        "value": "t_uint256"
      },
      "t_struct(CardType)4630_storage": {
        "encoding": "inplace",
        "label": "struct CardSpec.CardType",
        "members": [
          {
            "astId": 4625,
            "contract": "contracts/CardSpec.sol:CardSpec",
            "label": "skin",
            "offset": 0,
            "slot": "0",
            "type": "t_uint16"
          },
          {
            "astId": 4627,
            "contract": "contracts/CardSpec.sol:CardSpec",
            "label": "rarity",
            "offset": 2,
            "slot": "0",
            "type": "t_uint16"
          },
          {
            "astId": 4629,
            "contract": "contracts/CardSpec.sol:CardSpec",
            "label": "comment",
            "offset": 0,
            "slot": "1",
            "type": "t_bytes32"
          }
        ],
        "numberOfBytes": "64"
      },
      "t_struct(Set)3852_storage": {
        "encoding": "inplace",
        "label": "struct EnumerableSet.Set",
        "members": [
          {
            "astId": 3847,
            "contract": "contracts/CardSpec.sol:CardSpec",
            "label": "_values",
            "offset": 0,
            "slot": "0",
            "type": "t_array(t_bytes32)dyn_storage"
          },
          {
            "astId": 3851,
            "contract": "contracts/CardSpec.sol:CardSpec",
            "label": "_indexes",
            "offset": 0,
            "slot": "1",
            "type": "t_mapping(t_bytes32,t_uint256)"
          }
        ],
        "numberOfBytes": "64"
      },
      "t_struct(UintSet)4238_storage": {
        "encoding": "inplace",
        "label": "struct EnumerableSet.UintSet",
        "members": [
          {
            "astId": 4237,
            "contract": "contracts/CardSpec.sol:CardSpec",
            "label": "_inner",
            "offset": 0,
            "slot": "0",
            "type": "t_struct(Set)3852_storage"
          }
        ],
        "numberOfBytes": "64"
      },
      "t_uint16": {
        "encoding": "inplace",
        "label": "uint16",
        "numberOfBytes": "2"
      },
      "t_uint256": {
        "encoding": "inplace",
        "label": "uint256",
        "numberOfBytes": "32"
      }
    }
  }
}