{
  "address": "0x30b4A0212608a7a259dF855c28900FC12f7ed289",
  "abi": [
    {
      "inputs": [
        {
          "internalType": "address",
          "name": "_nftAddress",
          "type": "address"
        },
        {
          "internalType": "address",
          "name": "_quoteErc20Address",
          "type": "address"
        },
        {
          "internalType": "address",
          "name": "_devaddr",
          "type": "address"
        }
      ],
      "stateMutability": "nonpayable",
      "type": "constructor"
    },
    {
      "anonymous": false,
      "inputs": [
        {
          "indexed": true,
          "internalType": "address",
          "name": "seller",
          "type": "address"
        },
        {
          "indexed": true,
          "internalType": "uint256",
          "name": "tokenId",
          "type": "uint256"
        },
        {
          "indexed": false,
          "internalType": "uint256",
          "name": "price",
          "type": "uint256"
        }
      ],
      "name": "Ask",
      "type": "event"
    },
    {
      "anonymous": false,
      "inputs": [
        {
          "indexed": true,
          "internalType": "address",
          "name": "seller",
          "type": "address"
        },
        {
          "indexed": true,
          "internalType": "uint256",
          "name": "tokenId",
          "type": "uint256"
        }
      ],
      "name": "CancelSellToken",
      "type": "event"
    },
    {
      "anonymous": false,
      "inputs": [
        {
          "indexed": true,
          "internalType": "address",
          "name": "previousOwner",
          "type": "address"
        },
        {
          "indexed": true,
          "internalType": "address",
          "name": "newOwner",
          "type": "address"
        }
      ],
      "name": "OwnershipTransferred",
      "type": "event"
    },
    {
      "anonymous": false,
      "inputs": [
        {
          "indexed": false,
          "internalType": "address",
          "name": "account",
          "type": "address"
        }
      ],
      "name": "Paused",
      "type": "event"
    },
    {
      "anonymous": false,
      "inputs": [
        {
          "indexed": true,
          "internalType": "address",
          "name": "seller",
          "type": "address"
        },
        {
          "indexed": true,
          "internalType": "address",
          "name": "buyer",
          "type": "address"
        },
        {
          "indexed": true,
          "internalType": "uint256",
          "name": "tokenId",
          "type": "uint256"
        },
        {
          "indexed": false,
          "internalType": "uint256",
          "name": "price",
          "type": "uint256"
        }
      ],
      "name": "Trade",
      "type": "event"
    },
    {
      "anonymous": false,
      "inputs": [
        {
          "indexed": false,
          "internalType": "address",
          "name": "account",
          "type": "address"
        }
      ],
      "name": "Unpaused",
      "type": "event"
    },
    {
      "inputs": [
        {
          "internalType": "uint256",
          "name": "_tokenId",
          "type": "uint256"
        }
      ],
      "name": "buyToken",
      "outputs": [],
      "stateMutability": "nonpayable",
      "type": "function"
    },
    {
      "inputs": [
        {
          "internalType": "uint256",
          "name": "_tokenId",
          "type": "uint256"
        }
      ],
      "name": "cancelSellToken",
      "outputs": [],
      "stateMutability": "nonpayable",
      "type": "function"
    },
    {
      "inputs": [
        {
          "internalType": "address",
          "name": "_devaddr",
          "type": "address"
        }
      ],
      "name": "dev",
      "outputs": [],
      "stateMutability": "nonpayable",
      "type": "function"
    },
    {
      "inputs": [],
      "name": "devaddr",
      "outputs": [
        {
          "internalType": "address",
          "name": "",
          "type": "address"
        }
      ],
      "stateMutability": "view",
      "type": "function"
    },
    {
      "inputs": [],
      "name": "feeToRate",
      "outputs": [
        {
          "internalType": "uint256",
          "name": "",
          "type": "uint256"
        }
      ],
      "stateMutability": "view",
      "type": "function"
    },
    {
      "inputs": [],
      "name": "getAskLength",
      "outputs": [
        {
          "internalType": "uint256",
          "name": "",
          "type": "uint256"
        }
      ],
      "stateMutability": "view",
      "type": "function"
    },
    {
      "inputs": [],
      "name": "getAsks",
      "outputs": [
        {
          "components": [
            {
              "internalType": "uint256",
              "name": "tokenId",
              "type": "uint256"
            },
            {
              "internalType": "uint256",
              "name": "price",
              "type": "uint256"
            }
          ],
          "internalType": "struct ExchangeNFT.AskEntry[]",
          "name": "",
          "type": "tuple[]"
        }
      ],
      "stateMutability": "view",
      "type": "function"
    },
    {
      "inputs": [
        {
          "internalType": "uint256",
          "name": "page",
          "type": "uint256"
        },
        {
          "internalType": "uint256",
          "name": "size",
          "type": "uint256"
        }
      ],
      "name": "getAsksByPage",
      "outputs": [
        {
          "components": [
            {
              "internalType": "uint256",
              "name": "tokenId",
              "type": "uint256"
            },
            {
              "internalType": "uint256",
              "name": "price",
              "type": "uint256"
            }
          ],
          "internalType": "struct ExchangeNFT.AskEntry[]",
          "name": "",
          "type": "tuple[]"
        }
      ],
      "stateMutability": "view",
      "type": "function"
    },
    {
      "inputs": [
        {
          "internalType": "uint256",
          "name": "page",
          "type": "uint256"
        },
        {
          "internalType": "uint256",
          "name": "size",
          "type": "uint256"
        }
      ],
      "name": "getAsksByPageDesc",
      "outputs": [
        {
          "components": [
            {
              "internalType": "uint256",
              "name": "tokenId",
              "type": "uint256"
            },
            {
              "internalType": "uint256",
              "name": "price",
              "type": "uint256"
            }
          ],
          "internalType": "struct ExchangeNFT.AskEntry[]",
          "name": "",
          "type": "tuple[]"
        }
      ],
      "stateMutability": "view",
      "type": "function"
    },
    {
      "inputs": [
        {
          "internalType": "address",
          "name": "user",
          "type": "address"
        }
      ],
      "name": "getAsksByUser",
      "outputs": [
        {
          "components": [
            {
              "internalType": "uint256",
              "name": "tokenId",
              "type": "uint256"
            },
            {
              "internalType": "uint256",
              "name": "price",
              "type": "uint256"
            }
          ],
          "internalType": "struct ExchangeNFT.AskEntry[]",
          "name": "",
          "type": "tuple[]"
        }
      ],
      "stateMutability": "view",
      "type": "function"
    },
    {
      "inputs": [
        {
          "internalType": "address",
          "name": "user",
          "type": "address"
        }
      ],
      "name": "getAsksByUserDesc",
      "outputs": [
        {
          "components": [
            {
              "internalType": "uint256",
              "name": "tokenId",
              "type": "uint256"
            },
            {
              "internalType": "uint256",
              "name": "price",
              "type": "uint256"
            }
          ],
          "internalType": "struct ExchangeNFT.AskEntry[]",
          "name": "",
          "type": "tuple[]"
        }
      ],
      "stateMutability": "view",
      "type": "function"
    },
    {
      "inputs": [],
      "name": "getAsksDesc",
      "outputs": [
        {
          "components": [
            {
              "internalType": "uint256",
              "name": "tokenId",
              "type": "uint256"
            },
            {
              "internalType": "uint256",
              "name": "price",
              "type": "uint256"
            }
          ],
          "internalType": "struct ExchangeNFT.AskEntry[]",
          "name": "",
          "type": "tuple[]"
        }
      ],
      "stateMutability": "view",
      "type": "function"
    },
    {
      "inputs": [],
      "name": "nft",
      "outputs": [
        {
          "internalType": "contract IERC721",
          "name": "",
          "type": "address"
        }
      ],
      "stateMutability": "view",
      "type": "function"
    },
    {
      "inputs": [
        {
          "internalType": "address",
          "name": "",
          "type": "address"
        },
        {
          "internalType": "address",
          "name": "",
          "type": "address"
        },
        {
          "internalType": "uint256",
          "name": "",
          "type": "uint256"
        },
        {
          "internalType": "bytes",
          "name": "",
          "type": "bytes"
        }
      ],
      "name": "onERC721Received",
      "outputs": [
        {
          "internalType": "bytes4",
          "name": "",
          "type": "bytes4"
        }
      ],
      "stateMutability": "nonpayable",
      "type": "function"
    },
    {
      "inputs": [],
      "name": "owner",
      "outputs": [
        {
          "internalType": "address",
          "name": "",
          "type": "address"
        }
      ],
      "stateMutability": "view",
      "type": "function"
    },
    {
      "inputs": [],
      "name": "pause",
      "outputs": [],
      "stateMutability": "nonpayable",
      "type": "function"
    },
    {
      "inputs": [],
      "name": "paused",
      "outputs": [
        {
          "internalType": "bool",
          "name": "",
          "type": "bool"
        }
      ],
      "stateMutability": "view",
      "type": "function"
    },
    {
      "inputs": [],
      "name": "quoteErc20",
      "outputs": [
        {
          "internalType": "contract IERC20",
          "name": "",
          "type": "address"
        }
      ],
      "stateMutability": "view",
      "type": "function"
    },
    {
      "inputs": [
        {
          "internalType": "uint256",
          "name": "_tokenId",
          "type": "uint256"
        },
        {
          "internalType": "uint256",
          "name": "_price",
          "type": "uint256"
        }
      ],
      "name": "readyToSellToken",
      "outputs": [],
      "stateMutability": "nonpayable",
      "type": "function"
    },
    {
      "inputs": [],
      "name": "renounceOwnership",
      "outputs": [],
      "stateMutability": "nonpayable",
      "type": "function"
    },
    {
      "inputs": [
        {
          "internalType": "uint256",
          "name": "_tokenId",
          "type": "uint256"
        },
        {
          "internalType": "uint256",
          "name": "_price",
          "type": "uint256"
        }
      ],
      "name": "setCurrentPrice",
      "outputs": [],
      "stateMutability": "nonpayable",
      "type": "function"
    },
    {
      "inputs": [
        {
          "internalType": "uint256",
          "name": "_feeToRate",
          "type": "uint256"
        }
      ],
      "name": "setFeeToRate",
      "outputs": [],
      "stateMutability": "nonpayable",
      "type": "function"
    },
    {
      "inputs": [
        {
          "internalType": "address",
          "name": "newOwner",
          "type": "address"
        }
      ],
      "name": "transferOwnership",
      "outputs": [],
      "stateMutability": "nonpayable",
      "type": "function"
    },
    {
      "inputs": [],
      "name": "unpause",
      "outputs": [],
      "stateMutability": "nonpayable",
      "type": "function"
    }
  ],
  "transactionHash": "0x39d1fa5addabe8d56bd39e7c0037dd804f522d796014bb14304ce2cc9ea6c308",
  "args": [
    "0xc4f6E2E782339Da6cB4e27214D42D6A60B4EF13E",
    "0x65B22Bd2F1c7A0f07283B4225771CC5455EEd272",
    "0x36DEd7CCD7d20DE9e7DE160eC61D70a709ee3Ec9"
  ],
  "solcInputHash": "24858961e066203ddb505a514341a5fd",
  "bytecode": "0x60806040523480156200001157600080fd5b50604051620026d8380380620026d8833981016040819052620000349162000153565b60006200004062000132565b600080546001600160a01b0319166001600160a01b0383169081178255604051929350917f8be0079c531659141344cd1fd0a4f28419497f9722a3daafe3b4186f6b6457e0908290a3506000805460ff60a01b191690556001600160a01b03831615801590620000b957506001600160a01b0383163014155b620000c357600080fd5b6001600160a01b03821615801590620000e557506001600160a01b0382163014155b620000ef57600080fd5b600180546001600160a01b039485166001600160a01b0319918216179091556002805493851693821693909317909255600480549190931691161790556200019c565b3390565b80516001600160a01b03811681146200014e57600080fd5b919050565b60008060006060848603121562000168578283fd5b620001738462000136565b9250620001836020850162000136565b9150620001936040850162000136565b90509250925092565b61252c80620001ac6000396000f3fe608060405234801561001057600080fd5b50600436106101585760003560e01c80638456cb59116100c3578063b84eb76a1161007c578063b84eb76a14610291578063c5a55e81146102a4578063d49e77cd146102b7578063deba86e3146102bf578063f2fde38b146102c7578063f903af20146102da57610158565b80638456cb59146102405780638d88a90e146102485780638da5cb5b1461025b5780638fd60ea514610263578063a879537f1461026b578063b5e4aa721461027e57610158565b8063523a57cf11610115578063523a57cf146101e05780635c975abb146101f3578063695cb485146102085780636bb518031461021d578063715018a614610225578063789068b71461022d57610158565b80630c36edb91461015d578063150b7a0214610186578063170d542c146101a65780632d296bf1146101bb5780633f4ba83a146101d057806347ccca02146101d8575b600080fd5b61017061016b3660046120ba565b6102ed565b60405161017d9190612227565b60405180910390f35b6101996101943660046120f2565b6104f0565b60405161017d9190612281565b6101ae610500565b60405161017d91906121ef565b6101ce6101c93660046121b6565b61050f565b005b6101ce61076c565b6101ae610828565b6101ce6101ee3660046121ce565b610837565b6101fb610a48565b60405161017d9190612276565b610210610a58565b60405161017d9190612400565b610170610a69565b6101ce610b2b565b6101ce61023b3660046121ce565b610bd7565b6101ce610c85565b6101ce6102563660046120ba565b610d3c565b6101ae610dc0565b610170610dcf565b6101706102793660046121ce565b610f02565b6101ce61028c3660046121b6565b61111a565b6101ce61029f3660046121b6565b6111a6565b6101706102b23660046121ce565b61131b565b6101ae611461565b610210611470565b6101ce6102d53660046120ba565b611476565b6101706102e83660046120ba565b611578565b6001600160a01b038116600090815260086020526040902060609081906103139061168c565b67ffffffffffffffff8111801561032957600080fd5b5060405190808252806020026020018201604052801561036357816020015b6103506120a0565b8152602001906001900390816103485790505b506001600160a01b0384166000908152600860205260408120919250906103899061168c565b11156104ea576001600160a01b03831660009081526008602052604081206001906103b39061168c565b0390505b8015610458576001600160a01b03841660009081526008602052604081206103df9083611697565b905060006103ee6005836116aa565b905060405180604001604052808381526020018281525084846001610436600860008c6001600160a01b03166001600160a01b0316815260200190815260200160002061168c565b03038151811061044257fe5b60209081029190910101525050600019016103b7565b506001600160a01b038316600090815260086020526040812061047b9082611697565b9050600061048a6005836116aa565b90506040518060400160405280838152602001828152508360016104d1600860008a6001600160a01b03166001600160a01b0316815260200190815260200160002061168c565b03815181106104dc57fe5b602002602001018190525050505b92915050565b630a85bd0160e11b949350505050565b6002546001600160a01b031681565b610517610a48565b1561055c576040805162461bcd60e51b815260206004820152601060248201526f14185d5cd8589b194e881c185d5cd95960821b604482015290519081900360640190fd5b331580159061056b5750333014155b6105905760405162461bcd60e51b8152600401610587906123d6565b60405180910390fd5b61059b6005826116b6565b6105b75760405162461bcd60e51b815260040161058790612296565b600154604051632142170760e11b81526001600160a01b03909116906342842e0e906105eb90309033908690600401612203565b600060405180830381600087803b15801561060557600080fd5b505af1158015610619573d6000803e3d6000fd5b5050505060006106338260056116aa90919063ffffffff16565b9050600061065b64e8d4a51000610655600354856116c290919063ffffffff16565b9061171b565b60045460025491925061067d916001600160a01b039081169133911684611782565b6000838152600760205260409020546106b99033906001600160a01b03166106a585856117e2565b6002546001600160a01b0316929190611782565b6106c460058461183f565b506000838152600760209081526040808320546001600160a01b03168352600890915290206106f3908461184b565b5060008381526007602052604090819020549051849133916001600160a01b03909116907f4b5796113f074ebf8f11d5bcdeb6349b2fbe47abed78419cdcdbbc15c6fcf84590610744908790612400565b60405180910390a45050600090815260076020526040902080546001600160a01b0319169055565b610774611857565b6001600160a01b0316610785610dc0565b6001600160a01b0316146107ce576040805162461bcd60e51b815260206004820181905260248201526000805160206124ad833981519152604482015290519081900360640190fd5b6107d6610a48565b61081e576040805162461bcd60e51b815260206004820152601460248201527314185d5cd8589b194e881b9bdd081c185d5cd95960621b604482015290519081900360640190fd5b61082661185b565b565b6001546001600160a01b031681565b61083f610a48565b15610884576040805162461bcd60e51b815260206004820152601060248201526f14185d5cd8589b194e881c185d5cd95960821b604482015290519081900360640190fd5b6001546040516331a9108f60e11b81526001600160a01b0390911690636352211e906108b4908590600401612400565b60206040518083038186803b1580156108cc57600080fd5b505afa1580156108e0573d6000803e3d6000fd5b505050506040513d601f19601f8201168201806040525081019061090491906120d6565b6001600160a01b0316336001600160a01b0316146109345760405162461bcd60e51b81526004016105879061233e565b600081116109545760405162461bcd60e51b815260040161058790612307565b600154604051632142170760e11b81526001600160a01b03909116906342842e0e9061098890339030908790600401612203565b600060405180830381600087803b1580156109a257600080fd5b505af11580156109b6573d6000803e3d6000fd5b506109c9925060059150849050836118fe565b50600082815260076020908152604080832080546001600160a01b03191633908117909155835260089091529020610a019083611913565b5081336001600160a01b03167ff200b09dd7c67aa57db7b904692130ffededf03e80a5f2105605d50c0c187d6983604051610a3c9190612400565b60405180910390a35050565b600054600160a01b900460ff1690565b6000610a64600561168c565b905090565b606080610a76600561168c565b67ffffffffffffffff81118015610a8c57600080fd5b50604051908082528060200260200182016040528015610ac657816020015b610ab36120a0565b815260200190600190039081610aab5790505b50905060005b610ad6600561168c565b811015610b2557600080610aeb60058461191f565b91509150604051806040016040528083815260200182815250848481518110610b1057fe5b60209081029190910101525050600101610acc565b50905090565b610b33611857565b6001600160a01b0316610b44610dc0565b6001600160a01b031614610b8d576040805162461bcd60e51b815260206004820181905260248201526000805160206124ad833981519152604482015290519081900360640190fd5b600080546040516001600160a01b03909116907f8be0079c531659141344cd1fd0a4f28419497f9722a3daafe3b4186f6b6457e0908390a3600080546001600160a01b0319169055565b610bdf610a48565b15610c24576040805162461bcd60e51b815260206004820152601060248201526f14185d5cd8589b194e881c185d5cd95960821b604482015290519081900360640190fd5b336000908152600860205260409020610c3d90836116b6565b610c595760405162461bcd60e51b815260040161058790612375565b60008111610c795760405162461bcd60e51b815260040161058790612307565b610a01600583836118fe565b610c8d611857565b6001600160a01b0316610c9e610dc0565b6001600160a01b031614610ce7576040805162461bcd60e51b815260206004820181905260248201526000805160206124ad833981519152604482015290519081900360640190fd5b610cef610a48565b15610d34576040805162461bcd60e51b815260206004820152601060248201526f14185d5cd8589b194e881c185d5cd95960821b604482015290519081900360640190fd5b610826611937565b610d44611857565b6001600160a01b0316610d55610dc0565b6001600160a01b031614610d9e576040805162461bcd60e51b815260206004820181905260248201526000805160206124ad833981519152604482015290519081900360640190fd5b600480546001600160a01b0319166001600160a01b0392909216919091179055565b6000546001600160a01b031690565b606080610ddc600561168c565b67ffffffffffffffff81118015610df257600080fd5b50604051908082528060200260200182016040528015610e2c57816020015b610e196120a0565b815260200190600190039081610e115790505b5090506000610e3b600561168c565b1115610a645760006001610e4f600561168c565b0390505b8015610eb057600080610e6760058461191f565b9150915060405180604001604052808381526020018281525084846001610e8e600561168c565b030381518110610e9a57fe5b6020908102919091010152505060001901610e53565b50600080610ebf60058261191f565b91509150604051806040016040528083815260200182815250836001610ee5600561168c565b0381518110610ef057fe5b60200260200101819052505050905090565b60606000610f10600561168c565b11156110e15760008315610f2957826001850302610f2c565b60005b6001610f38600561168c565b030390506000610f676001858715610f505787610f53565b60015b02036001610f61600561168c565b036119c0565b6001610f73600561168c565b0303905060018183030160608167ffffffffffffffff81118015610f9657600080fd5b50604051908082528060200260200182016040528015610fd057816020015b610fbd6120a0565b815260200190600190039081610fb55790505b5090508261107b5760005b8385111561103257600080610ff160058861191f565b9150915060405180604001604052808381526020018281525084848151811061101657fe5b6020908102919091010152505060001990940193600101610fdb565b5060008061104160058261191f565b9150915060405180604001604052808381526020018281525083600186038151811061106957fe5b602002602001018190525050506110d6565b60005b8385106110d45760008061109360058861191f565b915091506040518060400160405280838152602001828152508484815181106110b857fe5b602090810291909101015250506000199094019360010161107e565b505b93506104ea92505050565b6040805160008082526020820190925290611112565b6110ff6120a0565b8152602001906001900390816110f75790505b509392505050565b611122611857565b6001600160a01b0316611133610dc0565b6001600160a01b03161461117c576040805162461bcd60e51b815260206004820181905260248201526000805160206124ad833981519152604482015290519081900360640190fd5b64e8d4a510008111156111a15760405162461bcd60e51b8152600401610587906123ac565b600355565b6111ae610a48565b156111f3576040805162461bcd60e51b815260206004820152601060248201526f14185d5cd8589b194e881c185d5cd95960821b604482015290519081900360640190fd5b33600090815260086020526040902061120c90826116b6565b6112285760405162461bcd60e51b8152600401610587906122c6565b600154604051632142170760e11b81526001600160a01b03909116906342842e0e9061125c90309033908690600401612203565b600060405180830381600087803b15801561127657600080fd5b505af115801561128a573d6000803e3d6000fd5b505050506112a281600561183f90919063ffffffff16565b506000818152600760209081526040808320546001600160a01b03168352600890915290206112d1908261184b565b5060008181526007602052604080822080546001600160a01b031916905551829133917f2a7d983223d4978aab74760deb66764cc4394953a6225b5a6a801feb144a03109190a350565b60606000611329600561168c565b1115611428576000831561134257826001850302611345565b60005b9050600061136c848615611359578661135c565b60015b02611367600561168c565b6119c0565b9050606082820367ffffffffffffffff8111801561138957600080fd5b506040519080825280602002602001820160405280156113c357816020015b6113b06120a0565b8152602001906001900390816113a85790505b50905060005b8284101561141d576000806113df60058761191f565b9150915060405180604001604052808381526020018281525084848151811061140457fe5b60209081029190910101525050600193840193016113c9565b5092506104ea915050565b6040805160008082526020820190925290611459565b6114466120a0565b81526020019060019003908161143e5790505b5090506104ea565b6004546001600160a01b031681565b60035481565b61147e611857565b6001600160a01b031661148f610dc0565b6001600160a01b0316146114d8576040805162461bcd60e51b815260206004820181905260248201526000805160206124ad833981519152604482015290519081900360640190fd5b6001600160a01b03811661151d5760405162461bcd60e51b81526004018080602001828103825260268152602001806124446026913960400191505060405180910390fd5b600080546040516001600160a01b03808516939216917f8be0079c531659141344cd1fd0a4f28419497f9722a3daafe3b4186f6b6457e091a3600080546001600160a01b0319166001600160a01b0392909216919091179055565b6001600160a01b0381166000908152600860205260409020606090819061159e9061168c565b67ffffffffffffffff811180156115b457600080fd5b506040519080825280602002602001820160405280156115ee57816020015b6115db6120a0565b8152602001906001900390816115d35790505b50905060005b6001600160a01b03841660009081526008602052604090206116159061168c565b811015611685576001600160a01b038416600090815260086020526040812061163e9083611697565b9050600061164d6005836116aa565b905060405180604001604052808381526020018281525084848151811061167057fe5b602090810291909101015250506001016115f4565b5092915050565b60006104ea826119d6565b60006116a383836119da565b9392505050565b60006116a38383611a3e565b60006116a38383611a80565b6000826116d1575060006104ea565b828202828482816116de57fe5b04146116a35760405162461bcd60e51b815260040180806020018281038252602181526020018061248c6021913960400191505060405180910390fd5b6000808211611771576040805162461bcd60e51b815260206004820152601a60248201527f536166654d6174683a206469766973696f6e206279207a65726f000000000000604482015290519081900360640190fd5b81838161177a57fe5b049392505050565b604080516001600160a01b0380861660248301528416604482015260648082018490528251808303909101815260849091019091526020810180516001600160e01b03166323b872dd60e01b1790526117dc908590611a98565b50505050565b600082821115611839576040805162461bcd60e51b815260206004820152601e60248201527f536166654d6174683a207375627472616374696f6e206f766572666c6f770000604482015290519081900360640190fd5b50900390565b60006116a38383611b4e565b60006116a38383611c2c565b3390565b611863610a48565b6118ab576040805162461bcd60e51b815260206004820152601460248201527314185d5cd8589b194e881b9bdd081c185d5cd95960621b604482015290519081900360640190fd5b6000805460ff60a01b191690557f5db9ee0a495bf2e6ff9c91a7834c1ba4fdd244a5e8aa4e537bd38aeae4b073aa6118e1611857565b604080516001600160a01b039092168252519081900360200190a1565b600061190b848484611ce8565b949350505050565b60006116a38383611d7f565b60008061192c8484611dc9565b915091509250929050565b61193f610a48565b15611984576040805162461bcd60e51b815260206004820152601060248201526f14185d5cd8589b194e881c185d5cd95960821b604482015290519081900360640190fd5b6000805460ff60a01b1916600160a01b1790557f62e78cea01bee320cd4e420270b5ea74000d11b0c9f74754ebdbfc544b05a2586118e1611857565b60008183106119cf57816116a3565b5090919050565b5490565b81546000908210611a1c5760405162461bcd60e51b81526004018080602001828103825260228152602001806124226022913960400191505060405180910390fd5b826000018281548110611a2b57fe5b9060005260206000200154905092915050565b60006116a383836040518060400160405280601e81526020017f456e756d657261626c654d61703a206e6f6e6578697374656e74206b65790000815250611e44565b60009081526001919091016020526040902054151590565b6060611aed826040518060400160405280602081526020017f5361666545524332303a206c6f772d6c6576656c2063616c6c206661696c6564815250856001600160a01b0316611f0e9092919063ffffffff16565b805190915015611b4957808060200190516020811015611b0c57600080fd5b5051611b495760405162461bcd60e51b815260040180806020018281038252602a8152602001806124cd602a913960400191505060405180910390fd5b505050565b60008181526001830160205260408120548015611c225783546000198083019190810190600090879083908110611b8157fe5b9060005260206000209060020201905080876000018481548110611ba157fe5b600091825260208083208454600290930201918255600193840154918401919091558354825289830190526040902090840190558654879080611be057fe5b60008281526020808220600260001990940193840201828155600190810183905592909355888152898201909252604082209190915594506104ea9350505050565b60009150506104ea565b60008181526001830160205260408120548015611c225783546000198083019190810190600090879083908110611c5f57fe5b9060005260206000200154905080876000018481548110611c7c57fe5b600091825260208083209091019290925582815260018981019092526040902090840190558654879080611cac57fe5b600190038181906000526020600020016000905590558660010160008781526020019081526020016000206000905560019450505050506104ea565b600082815260018401602052604081205480611d4d5750506040805180820182528381526020808201848152865460018181018955600089815284812095516002909302909501918255915190820155865486845281880190925292909120556116a3565b82856000016001830381548110611d6057fe5b90600052602060002090600202016001018190555060009150506116a3565b6000611d8b8383611a80565b611dc1575081546001818101845560008481526020808220909301849055845484825282860190935260409020919091556104ea565b5060006104ea565b815460009081908310611e0d5760405162461bcd60e51b815260040180806020018281038252602281526020018061246a6022913960400191505060405180910390fd5b6000846000018481548110611e1e57fe5b906000526020600020906002020190508060000154816001015492509250509250929050565b60008281526001840160205260408120548281611edf5760405162461bcd60e51b81526004018080602001828103825283818151815260200191508051906020019080838360005b83811015611ea4578181015183820152602001611e8c565b50505050905090810190601f168015611ed15780820380516001836020036101000a031916815260200191505b509250505060405180910390fd5b50846000016001820381548110611ef257fe5b9060005260206000209060020201600101549150509392505050565b606061190b848460008585611f2285612034565b611f73576040805162461bcd60e51b815260206004820152601d60248201527f416464726573733a2063616c6c20746f206e6f6e2d636f6e7472616374000000604482015290519081900360640190fd5b60006060866001600160a01b031685876040518082805190602001908083835b60208310611fb25780518252601f199092019160209182019101611f93565b6001836020036101000a03801982511681845116808217855250505050505090500191505060006040518083038185875af1925050503d8060008114612014576040519150601f19603f3d011682016040523d82523d6000602084013e612019565b606091505b509150915061202982828661203a565b979650505050505050565b3b151590565b606083156120495750816116a3565b8251156120595782518084602001fd5b60405162461bcd60e51b8152602060048201818152845160248401528451859391928392604401919085019080838360008315611ea4578181015183820152602001611e8c565b604051806040016040528060008152602001600081525090565b6000602082840312156120cb578081fd5b81356116a381612409565b6000602082840312156120e7578081fd5b81516116a381612409565b60008060008060808587031215612107578283fd5b843561211281612409565b935060208581013561212381612409565b935060408601359250606086013567ffffffffffffffff80821115612146578384fd5b818801915088601f830112612159578384fd5b81358181111561216557fe5b604051601f8201601f191681018501838111828210171561218257fe5b60405281815283820185018b1015612198578586fd5b81858501868301379081019093019390935250939692955090935050565b6000602082840312156121c7578081fd5b5035919050565b600080604083850312156121e0578182fd5b50508035926020909101359150565b6001600160a01b0391909116815260200190565b6001600160a01b039384168152919092166020820152604081019190915260600190565b602080825282518282018190526000919060409081850190868401855b8281101561226957815180518552860151868501529284019290850190600101612244565b5091979650505050505050565b901515815260200190565b6001600160e01b031991909116815260200190565b602080825260169082015275546f6b656e206e6f7420696e2073656c6c20626f6f6b60501b604082015260600190565b60208082526021908201527f4f6e6c792053656c6c65722063616e2063616e63656c2073656c6c20746f6b656040820152603760f91b606082015260800190565b6020808252601f908201527f5072696365206d757374206265206772616e746572207468616e207a65726f00604082015260600190565b6020808252601f908201527f4f6e6c7920546f6b656e204f776e65722063616e2073656c6c20746f6b656e00604082015260600190565b6020808252601c908201527f4f6e6c792053656c6c65722063616e2075706461746520707269636500000000604082015260600190565b60208082526010908201526f666565206f7574206f662072616e676560801b604082015260600190565b60208082526010908201526f2bb937b7339036b9b39039b2b73232b960811b604082015260600190565b90815260200190565b6001600160a01b038116811461241e57600080fd5b5056fe456e756d657261626c655365743a20696e646578206f7574206f6620626f756e64734f776e61626c653a206e6577206f776e657220697320746865207a65726f2061646472657373456e756d657261626c654d61703a20696e646578206f7574206f6620626f756e6473536166654d6174683a206d756c7469706c69636174696f6e206f766572666c6f774f776e61626c653a2063616c6c6572206973206e6f7420746865206f776e65725361666545524332303a204552433230206f7065726174696f6e20646964206e6f742073756363656564a2646970667358221220f2a68086f5600d24163a7de8ebdebe9685dad2d9f073ddd76e0e5a223ad35a3564736f6c63430007040033",
  "devdoc": {
    "kind": "dev",
    "methods": {
      "onERC721Received(address,address,uint256,bytes)": {
        "details": "See {IERC721Receiver-onERC721Received}. Always returns `IERC721Receiver.onERC721Received.selector`."
      },
      "owner()": {
        "details": "Returns the address of the current owner."
      },
      "paused()": {
        "details": "Returns true if the contract is paused, and false otherwise."
      },
      "renounceOwnership()": {
        "details": "Leaves the contract without owner. It will not be possible to call `onlyOwner` functions anymore. Can only be called by the current owner. NOTE: Renouncing ownership will leave the contract without an owner, thereby removing any functionality that is only available to the owner."
      },
      "transferOwnership(address)": {
        "details": "Transfers ownership of the contract to a new account (`newOwner`). Can only be called by the current owner."
      }
    },
    "version": 1
  },
  "userdoc": {
    "kind": "user",
    "methods": {},
    "version": 1
  },
  "storageLayout": {
    "storage": [
      {
        "astId": 290,
        "contract": "contracts/ExchangeNFT.sol:ExchangeNFT",
        "label": "_owner",
        "offset": 0,
        "slot": "0",
        "type": "t_address"
      },
      {
        "astId": 4351,
        "contract": "contracts/ExchangeNFT.sol:ExchangeNFT",
        "label": "_paused",
        "offset": 20,
        "slot": "0",
        "type": "t_bool"
      },
      {
        "astId": 5550,
        "contract": "contracts/ExchangeNFT.sol:ExchangeNFT",
        "label": "nft",
        "offset": 0,
        "slot": "1",
        "type": "t_contract(IERC721)2886"
      },
      {
        "astId": 5552,
        "contract": "contracts/ExchangeNFT.sol:ExchangeNFT",
        "label": "quoteErc20",
        "offset": 0,
        "slot": "2",
        "type": "t_contract(IERC20)1549"
      },
      {
        "astId": 5554,
        "contract": "contracts/ExchangeNFT.sol:ExchangeNFT",
        "label": "feeToRate",
        "offset": 0,
        "slot": "3",
        "type": "t_uint256"
      },
      {
        "astId": 5556,
        "contract": "contracts/ExchangeNFT.sol:ExchangeNFT",
        "label": "devaddr",
        "offset": 0,
        "slot": "4",
        "type": "t_address"
      },
      {
        "astId": 5558,
        "contract": "contracts/ExchangeNFT.sol:ExchangeNFT",
        "label": "_asksMap",
        "offset": 0,
        "slot": "5",
        "type": "t_struct(UintToUintMap)8144_storage"
      },
      {
        "astId": 5562,
        "contract": "contracts/ExchangeNFT.sol:ExchangeNFT",
        "label": "_tokenSellers",
        "offset": 0,
        "slot": "7",
        "type": "t_mapping(t_uint256,t_address)"
      },
      {
        "astId": 5566,
        "contract": "contracts/ExchangeNFT.sol:ExchangeNFT",
        "label": "_userSellingTokens",
        "offset": 0,
        "slot": "8",
        "type": "t_mapping(t_address,t_struct(UintSet)4238_storage)"
      }
    ],
    "types": {
      "t_address": {
        "encoding": "inplace",
        "label": "address",
        "numberOfBytes": "20"
      },
      "t_array(t_bytes32)dyn_storage": {
        "base": "t_bytes32",
        "encoding": "dynamic_array",
        "label": "bytes32[]",
        "numberOfBytes": "32"
      },
      "t_array(t_struct(MapEntry)7872_storage)dyn_storage": {
        "base": "t_struct(MapEntry)7872_storage",
        "encoding": "dynamic_array",
        "label": "struct EnumerableMapper.MapEntry[]",
        "numberOfBytes": "32"
      },
      "t_bool": {
        "encoding": "inplace",
        "label": "bool",
        "numberOfBytes": "1"
      },
      "t_bytes32": {
        "encoding": "inplace",
        "label": "bytes32",
        "numberOfBytes": "32"
      },
      "t_contract(IERC20)1549": {
        "encoding": "inplace",
        "label": "contract IERC20",
        "numberOfBytes": "20"
      },
      "t_contract(IERC721)2886": {
        "encoding": "inplace",
        "label": "contract IERC721",
        "numberOfBytes": "20"
      },
      "t_mapping(t_address,t_struct(UintSet)4238_storage)": {
        "encoding": "mapping",
        "key": "t_address",
        "label": "mapping(address => struct EnumerableSet.UintSet)",
        "numberOfBytes": "32",
        "value": "t_struct(UintSet)4238_storage"
      },
      "t_mapping(t_bytes32,t_uint256)": {
        "encoding": "mapping",
        "key": "t_bytes32",
        "label": "mapping(bytes32 => uint256)",
        "numberOfBytes": "32",
        "value": "t_uint256"
      },
      "t_mapping(t_uint256,t_address)": {
        "encoding": "mapping",
        "key": "t_uint256",
        "label": "mapping(uint256 => address)",
        "numberOfBytes": "32",
        "value": "t_address"
      },
      "t_mapping(t_uint256,t_uint256)": {
        "encoding": "mapping",
        "key": "t_uint256",
        "label": "mapping(uint256 => uint256)",
        "numberOfBytes": "32",
        "value": "t_uint256"
      },
      "t_struct(Map)7880_storage": {
        "encoding": "inplace",
        "label": "struct EnumerableMapper.Map",
        "members": [
          {
            "astId": 7875,
            "contract": "contracts/ExchangeNFT.sol:ExchangeNFT",
            "label": "_entries",
            "offset": 0,
            "slot": "0",
            "type": "t_array(t_struct(MapEntry)7872_storage)dyn_storage"
          },
          {
            "astId": 7879,
            "contract": "contracts/ExchangeNFT.sol:ExchangeNFT",
            "label": "_indexes",
            "offset": 0,
            "slot": "1",
            "type": "t_mapping(t_uint256,t_uint256)"
          }
        ],
        "numberOfBytes": "64"
      },
      "t_struct(MapEntry)7872_storage": {
        "encoding": "inplace",
        "label": "struct EnumerableMapper.MapEntry",
        "members": [
          {
            "astId": 7869,
            "contract": "contracts/ExchangeNFT.sol:ExchangeNFT",
            "label": "_key",
            "offset": 0,
            "slot": "0",
            "type": "t_uint256"
          },
          {
            "astId": 7871,
            "contract": "contracts/ExchangeNFT.sol:ExchangeNFT",
            "label": "_value",
            "offset": 0,
            "slot": "1",
            "type": "t_uint256"
          }
        ],
        "numberOfBytes": "64"
      },
      "t_struct(Set)3852_storage": {
        "encoding": "inplace",
        "label": "struct EnumerableSet.Set",
        "members": [
          {
            "astId": 3847,
            "contract": "contracts/ExchangeNFT.sol:ExchangeNFT",
            "label": "_values",
            "offset": 0,
            "slot": "0",
            "type": "t_array(t_bytes32)dyn_storage"
          },
          {
            "astId": 3851,
            "contract": "contracts/ExchangeNFT.sol:ExchangeNFT",
            "label": "_indexes",
            "offset": 0,
            "slot": "1",
            "type": "t_mapping(t_bytes32,t_uint256)"
          }
        ],
        "numberOfBytes": "64"
      },
      "t_struct(UintSet)4238_storage": {
        "encoding": "inplace",
        "label": "struct EnumerableSet.UintSet",
        "members": [
          {
            "astId": 4237,
            "contract": "contracts/ExchangeNFT.sol:ExchangeNFT",
            "label": "_inner",
            "offset": 0,
            "slot": "0",
            "type": "t_struct(Set)3852_storage"
          }
        ],
        "numberOfBytes": "64"
      },
      "t_struct(UintToUintMap)8144_storage": {
        "encoding": "inplace",
        "label": "struct EnumerableMapper.UintToUintMap",
        "members": [
          {
            "astId": 8143,
            "contract": "contracts/ExchangeNFT.sol:ExchangeNFT",
            "label": "_inner",
            "offset": 0,
            "slot": "0",
            "type": "t_struct(Map)7880_storage"
          }
        ],
        "numberOfBytes": "64"
      },
      "t_uint256": {
        "encoding": "inplace",
        "label": "uint256",
        "numberOfBytes": "32"
      }
    }
  }
}