{
  "address": "0x48aA0305F915feF1eB274af58860Bf9bFA4877b7",
  "abi": [
    {
      "inputs": [
        {
          "internalType": "contract CartoonToken",
          "name": "_cto",
          "type": "address"
        },
        {
          "internalType": "contract ERC721Ex",
          "name": "_nCto",
          "type": "address"
        },
        {
          "internalType": "uint256",
          "name": "_ctoPerBlock",
          "type": "uint256"
        },
        {
          "internalType": "uint256",
          "name": "_startBlock",
          "type": "uint256"
        },
        {
          "internalType": "contract CardSpec",
          "name": "_cardSpec",
          "type": "address"
        }
      ],
      "stateMutability": "nonpayable",
      "type": "constructor"
    },
    {
      "anonymous": false,
      "inputs": [
        {
          "indexed": true,
          "internalType": "address",
          "name": "user",
          "type": "address"
        },
        {
          "indexed": true,
          "internalType": "uint256",
          "name": "pid",
          "type": "uint256"
        },
        {
          "indexed": false,
          "internalType": "uint256",
          "name": "tokenId",
          "type": "uint256"
        }
      ],
      "name": "Deposit",
      "type": "event"
    },
    {
      "anonymous": false,
      "inputs": [
        {
          "indexed": true,
          "internalType": "address",
          "name": "user",
          "type": "address"
        },
        {
          "indexed": true,
          "internalType": "uint256",
          "name": "pid",
          "type": "uint256"
        },
        {
          "indexed": false,
          "internalType": "uint256",
          "name": "tokenId",
          "type": "uint256"
        }
      ],
      "name": "EmergencyWithdraw",
      "type": "event"
    },
    {
      "anonymous": false,
      "inputs": [
        {
          "indexed": true,
          "internalType": "address",
          "name": "previousOwner",
          "type": "address"
        },
        {
          "indexed": true,
          "internalType": "address",
          "name": "newOwner",
          "type": "address"
        }
      ],
      "name": "OwnershipTransferred",
      "type": "event"
    },
    {
      "anonymous": false,
      "inputs": [
        {
          "indexed": true,
          "internalType": "address",
          "name": "user",
          "type": "address"
        },
        {
          "indexed": true,
          "internalType": "uint256",
          "name": "pid",
          "type": "uint256"
        },
        {
          "indexed": false,
          "internalType": "uint256",
          "name": "tokenId",
          "type": "uint256"
        }
      ],
      "name": "Withdraw",
      "type": "event"
    },
    {
      "inputs": [
        {
          "internalType": "uint256",
          "name": "_allocPoint",
          "type": "uint256"
        },
        {
          "internalType": "uint256",
          "name": "_cardId",
          "type": "uint256"
        },
        {
          "internalType": "bool",
          "name": "_withUpdate",
          "type": "bool"
        }
      ],
      "name": "add",
      "outputs": [],
      "stateMutability": "nonpayable",
      "type": "function"
    },
    {
      "inputs": [],
      "name": "cardSpec",
      "outputs": [
        {
          "internalType": "contract CardSpec",
          "name": "",
          "type": "address"
        }
      ],
      "stateMutability": "view",
      "type": "function"
    },
    {
      "inputs": [
        {
          "internalType": "uint256",
          "name": "_pid",
          "type": "uint256"
        },
        {
          "internalType": "address",
          "name": "_from",
          "type": "address"
        },
        {
          "internalType": "uint256",
          "name": "_tokenId",
          "type": "uint256"
        }
      ],
      "name": "containsUserTokenId",
      "outputs": [
        {
          "internalType": "bool",
          "name": "",
          "type": "bool"
        }
      ],
      "stateMutability": "view",
      "type": "function"
    },
    {
      "inputs": [],
      "name": "cto",
      "outputs": [
        {
          "internalType": "contract CartoonToken",
          "name": "",
          "type": "address"
        }
      ],
      "stateMutability": "view",
      "type": "function"
    },
    {
      "inputs": [],
      "name": "ctoPerBlock",
      "outputs": [
        {
          "internalType": "uint256",
          "name": "",
          "type": "uint256"
        }
      ],
      "stateMutability": "view",
      "type": "function"
    },
    {
      "inputs": [
        {
          "internalType": "uint256",
          "name": "_pid",
          "type": "uint256"
        },
        {
          "internalType": "uint256",
          "name": "_tokenId",
          "type": "uint256"
        }
      ],
      "name": "deposit",
      "outputs": [],
      "stateMutability": "nonpayable",
      "type": "function"
    },
    {
      "inputs": [
        {
          "internalType": "uint256",
          "name": "_pid",
          "type": "uint256"
        },
        {
          "internalType": "uint256",
          "name": "_tokenId",
          "type": "uint256"
        }
      ],
      "name": "emergencyWithdraw",
      "outputs": [],
      "stateMutability": "nonpayable",
      "type": "function"
    },
    {
      "inputs": [
        {
          "internalType": "uint256",
          "name": "_from",
          "type": "uint256"
        },
        {
          "internalType": "uint256",
          "name": "_to",
          "type": "uint256"
        }
      ],
      "name": "getMultiplier",
      "outputs": [
        {
          "internalType": "uint256",
          "name": "",
          "type": "uint256"
        }
      ],
      "stateMutability": "pure",
      "type": "function"
    },
    {
      "inputs": [
        {
          "internalType": "uint256",
          "name": "_pid",
          "type": "uint256"
        },
        {
          "internalType": "address",
          "name": "_from",
          "type": "address"
        }
      ],
      "name": "getUserInfo",
      "outputs": [
        {
          "internalType": "uint256",
          "name": "tokenAmount",
          "type": "uint256"
        },
        {
          "internalType": "uint256",
          "name": "rewardDebt",
          "type": "uint256"
        }
      ],
      "stateMutability": "view",
      "type": "function"
    },
    {
      "inputs": [
        {
          "internalType": "uint256",
          "name": "_pid",
          "type": "uint256"
        },
        {
          "internalType": "address",
          "name": "_from",
          "type": "address"
        },
        {
          "internalType": "uint256",
          "name": "_index",
          "type": "uint256"
        }
      ],
      "name": "getUserTokenIndex",
      "outputs": [
        {
          "internalType": "uint256",
          "name": "",
          "type": "uint256"
        }
      ],
      "stateMutability": "view",
      "type": "function"
    },
    {
      "inputs": [],
      "name": "massUpdatePools",
      "outputs": [],
      "stateMutability": "nonpayable",
      "type": "function"
    },
    {
      "inputs": [],
      "name": "nCto",
      "outputs": [
        {
          "internalType": "contract ERC721Ex",
          "name": "",
          "type": "address"
        }
      ],
      "stateMutability": "view",
      "type": "function"
    },
    {
      "inputs": [],
      "name": "owner",
      "outputs": [
        {
          "internalType": "address",
          "name": "",
          "type": "address"
        }
      ],
      "stateMutability": "view",
      "type": "function"
    },
    {
      "inputs": [
        {
          "internalType": "uint256",
          "name": "_pid",
          "type": "uint256"
        },
        {
          "internalType": "address",
          "name": "_user",
          "type": "address"
        }
      ],
      "name": "pendingCto",
      "outputs": [
        {
          "internalType": "uint256",
          "name": "",
          "type": "uint256"
        }
      ],
      "stateMutability": "view",
      "type": "function"
    },
    {
      "inputs": [
        {
          "internalType": "uint256",
          "name": "",
          "type": "uint256"
        }
      ],
      "name": "poolInfo",
      "outputs": [
        {
          "internalType": "uint256",
          "name": "allocPoint",
          "type": "uint256"
        },
        {
          "internalType": "uint256",
          "name": "lastRewardBlock",
          "type": "uint256"
        },
        {
          "internalType": "uint256",
          "name": "accCtoPerShare",
          "type": "uint256"
        },
        {
          "internalType": "uint256",
          "name": "tokenIdentity",
          "type": "uint256"
        },
        {
          "internalType": "uint256",
          "name": "tokenAmount",
          "type": "uint256"
        }
      ],
      "stateMutability": "view",
      "type": "function"
    },
    {
      "inputs": [],
      "name": "poolLength",
      "outputs": [
        {
          "internalType": "uint256",
          "name": "",
          "type": "uint256"
        }
      ],
      "stateMutability": "view",
      "type": "function"
    },
    {
      "inputs": [],
      "name": "renounceOwnership",
      "outputs": [],
      "stateMutability": "nonpayable",
      "type": "function"
    },
    {
      "inputs": [
        {
          "internalType": "uint256",
          "name": "_pid",
          "type": "uint256"
        },
        {
          "internalType": "uint256",
          "name": "_allocPoint",
          "type": "uint256"
        },
        {
          "internalType": "bool",
          "name": "_withUpdate",
          "type": "bool"
        }
      ],
      "name": "set",
      "outputs": [],
      "stateMutability": "nonpayable",
      "type": "function"
    },
    {
      "inputs": [],
      "name": "startBlock",
      "outputs": [
        {
          "internalType": "uint256",
          "name": "",
          "type": "uint256"
        }
      ],
      "stateMutability": "view",
      "type": "function"
    },
    {
      "inputs": [],
      "name": "totalAllocPoint",
      "outputs": [
        {
          "internalType": "uint256",
          "name": "",
          "type": "uint256"
        }
      ],
      "stateMutability": "view",
      "type": "function"
    },
    {
      "inputs": [
        {
          "internalType": "address",
          "name": "newOwner",
          "type": "address"
        }
      ],
      "name": "transferOwnership",
      "outputs": [],
      "stateMutability": "nonpayable",
      "type": "function"
    },
    {
      "inputs": [
        {
          "internalType": "uint256",
          "name": "_pid",
          "type": "uint256"
        }
      ],
      "name": "updatePool",
      "outputs": [],
      "stateMutability": "nonpayable",
      "type": "function"
    },
    {
      "inputs": [
        {
          "internalType": "uint256",
          "name": "_pid",
          "type": "uint256"
        },
        {
          "internalType": "uint256",
          "name": "_tokenId",
          "type": "uint256"
        }
      ],
      "name": "withdraw",
      "outputs": [],
      "stateMutability": "nonpayable",
      "type": "function"
    }
  ],
  "transactionHash": "0xbe7a7383cac64b6017bf0b5fc082b34e8af9e560f563c20a7baf12101c2cd8f2",
  "args": [
    "0x65B22Bd2F1c7A0f07283B4225771CC5455EEd272",
    "0xc4f6E2E782339Da6cB4e27214D42D6A60B4EF13E",
    10,
    6719210,
    "0x1E9c6F7baF1Ed882B5276568879b44Dc585ef2d5"
  ],
  "solcInputHash": "24858961e066203ddb505a514341a5fd",
  "bytecode": "0x608060405260006007553480156200001657600080fd5b50604051620019f9380380620019f98339810160408190526200003991620000df565b600062000045620000db565b600080546001600160a01b0319166001600160a01b0383169081178255604051929350917f8be0079c531659141344cd1fd0a4f28419497f9722a3daafe3b4186f6b6457e0908290a350600180546001600160a01b039687166001600160a01b03199182161790915560038054958716958216959095179094556004929092556008556002805491909316911617905562000160565b3390565b600080600080600060a08688031215620000f7578081fd5b8551620001048162000147565b6020870151909550620001178162000147565b8094505060408601519250606086015191506080860151620001398162000147565b809150509295509295909350565b6001600160a01b03811681146200015d57600080fd5b50565b61188980620001706000396000f3fe608060405234801561001057600080fd5b506004361061014d5760003560e01c806351eb05a6116100c35780638c7dace41161007c5780638c7dace41461028e5780638da5cb5b146102965780638dbb1e3a1461029e578063927f3d20146102b1578063e2bbb158146102c4578063f2fde38b146102d75761014d565b806351eb05a61461023b578063620ddef01461024e578063630b5ba1146102635780636406dbbb1461026b57806364482f7914610273578063715018a6146102865761014d565b80631f276b6e116101155780631f276b6e146101d25780632d772421146101e55780632f868e57146101f85780633e0425e514610200578063441a3e701461022057806348cd4cb1146102335761014d565b806307f6a6c214610152578063081e3eda146101675780631069f3b5146101855780631526fe27146101a657806317caf6f1146101ca575b600080fd5b610165610160366004611654565b6102ea565b005b61016f610508565b60405161017c919061175e565b60405180910390f35b6101986101933660046115d4565b61050e565b60405161017c929190611767565b6101b96101b43660046115a4565b61054c565b60405161017c959493929190611775565b61016f61058d565b6101656101e0366004611633565b610593565b61016f6101f33660046115ff565b6106a1565b61016f6106d5565b61021361020e3660046115ff565b6106db565b60405161017c91906116b9565b61016561022e366004611633565b610707565b61016f61084a565b6101656102493660046115a4565b610850565b61025661096a565b60405161017c919061168c565b610165610979565b61025661099c565b610165610281366004611654565b6109ab565b610165610a79565b610256610b25565b610256610b34565b61016f6102ac366004611633565b610b43565b61016f6102bf3660046115d4565b610b58565b6101656102d2366004611633565b610c4d565b6101656102e536600461156e565b610e0a565b6102f2610f0c565b6001600160a01b0316610303610b34565b6001600160a01b03161461034c576040805162461bcd60e51b81526020600482018190526024820152600080516020611810833981519152604482015290519081900360640190fd5b801561035a5761035a610979565b6000600854431161036d5760085461036f565b435b60075490915061037f9085610f10565b60075560025460405163b5924acb60e01b81526000916001600160a01b03169063b5924acb906103b390879060040161175e565b60206040518083038186803b1580156103cb57600080fd5b505afa1580156103df573d6000803e3d6000fd5b505050506040513d601f19601f8201168201806040525081019061040391906115bc565b6040805160a081018252968752602087019384526000908701818152606088019283526080880182815260058054600181018255938190529851929098027f036b6384b5eca791c62761152d0c79bb0604c104a5fb6f4eb0703f3154bb3db081019290925593517f036b6384b5eca791c62761152d0c79bb0604c104a5fb6f4eb0703f3154bb3db182015592517f036b6384b5eca791c62761152d0c79bb0604c104a5fb6f4eb0703f3154bb3db2840155517f036b6384b5eca791c62761152d0c79bb0604c104a5fb6f4eb0703f3154bb3db38301555092517f036b6384b5eca791c62761152d0c79bb0604c104a5fb6f4eb0703f3154bb3db4909301929092555050565b60055490565b60008281526006602090815260408083206001600160a01b03851684529091528120819061053b81610f6a565b816002015492509250509250929050565b6005818154811061055c57600080fd5b6000918252602090912060059091020180546001820154600283015460038401546004909401549294509092909185565b60075481565b6000600583815481106105a257fe5b600091825260208083208684526006825260408085203386529092529220600590910290910191506105d48184610f7d565b6105f95760405162461bcd60e51b81526004016105f090611727565b60405180910390fd5b6106038184610f89565b5060035461061c906001600160a01b0316303386610f95565b600482015461062c9060016110f2565b6004830155600282015461065a9064e8d4a51000906106549061064e85610f6a565b9061114f565b906111a8565b6002820155604051849033907fbb757047c2b5f3974fe26b7c10f732e7bce710b0952a71082702781e62ae05959061069390879061175e565b60405180910390a350505050565b60008381526006602090815260408083206001600160a01b038616845290915281206106cd908361120f565b949350505050565b60045481565b60008381526006602090815260408083206001600160a01b038616845290915281206106cd9083610f7d565b60006005838154811061071657fe5b6000918252602080832086845260068252604080852033865290925292206005909102909101915061074784610850565b6000610774826002015461076e64e8d4a51000610654876002015461064e88600001610f6a565b906110f2565b9050610780338261121b565b83156107e5576107908285610f7d565b6107ac5760405162461bcd60e51b81526004016105f0906116fb565b6107b68285610f89565b506003546107cf906001600160a01b0316303387610f95565b60048301546107df9060016110f2565b60048401555b61080264e8d4a51000610654856002015461064e86600001610f6a565b6002830155604051859033907ff279e6a1f5e320cca91135676d9cb6e44ca8a08c0b88342bcdb1144f6511b5689061083b90889061175e565b60405180910390a35050505050565b60085481565b60006005828154811061085f57fe5b90600052602060002090600502019050806001015443116108805750610967565b60048101546108955743600190910155610967565b60006108a5826001015443610b43565b905060006108cc600754610654856000015461064e6004548761114f90919063ffffffff16565b6001546040516340c10f1960e01b81529192506001600160a01b0316906340c10f19906108ff90309085906004016116a0565b600060405180830381600087803b15801561091957600080fd5b505af115801561092d573d6000803e3d6000fd5b5050506004840154610958915061094d906106548464e8d4a5100061114f565b600285015490610f10565b60028401555050436001909101555b50565b6001546001600160a01b031681565b60055460005b818110156109985761099081610850565b60010161097f565b5050565b6002546001600160a01b031681565b6109b3610f0c565b6001600160a01b03166109c4610b34565b6001600160a01b031614610a0d576040805162461bcd60e51b81526020600482018190526024820152600080516020611810833981519152604482015290519081900360640190fd5b8015610a1b57610a1b610979565b610a4f82610a4960058681548110610a2f57fe5b6000918252602090912060059091020154600754906110f2565b90610f10565b6007819055508160058481548110610a6357fe5b6000918252602090912060059091020155505050565b610a81610f0c565b6001600160a01b0316610a92610b34565b6001600160a01b031614610adb576040805162461bcd60e51b81526020600482018190526024820152600080516020611810833981519152604482015290519081900360640190fd5b600080546040516001600160a01b03909116907f8be0079c531659141344cd1fd0a4f28419497f9722a3daafe3b4186f6b6457e0908390a3600080546001600160a01b0319169055565b6003546001600160a01b031681565b6000546001600160a01b031690565b6000610b4f82846110f2565b90505b92915050565b60008060058481548110610b6857fe5b600091825260208083208784526006825260408085206001600160a01b03891686529092529220600260059092029092019081015460018201549193509043118015610bb75750600483015415155b15610c24576000610bcc846001015443610b43565b90506000610bf3600754610654876000015461064e6004548761114f90919063ffffffff16565b9050610c1f610c18866004015461065464e8d4a510008561114f90919063ffffffff16565b8490610f10565b925050505b6002820154610c439061076e64e8d4a510006106548561064e88610f6a565b9695505050505050565b600060058381548110610c5c57fe5b60009182526020808320868452600682526040808520338652909252922060059091029091019150610c8d84610850565b6000610c9882610f6a565b1115610cd3576000610cc5826002015461076e64e8d4a51000610654876002015461064e88600001610f6a565b9050610cd1338261121b565b505b8215610db4576003820154600254604051637272bf7d60e01b81526001600160a01b0390911690637272bf7d90610d0e90879060040161175e565b60206040518083038186803b158015610d2657600080fd5b505afa158015610d3a573d6000803e3d6000fd5b505050506040513d601f19601f82011682018060405250810190610d5e91906115bc565b14610d7b5760405162461bcd60e51b81526004016105f0906116c4565b600354610d93906001600160a01b0316333086610f95565b610d9d81846113bb565b506004820154610dae906001610f10565b60048301555b610dd164e8d4a51000610654846002015461064e85600001610f6a565b6002820155604051849033907f90890809c654f11d6e72a28fa60149770a0d11ec6c92319d6ceb2bb0a4ea1a159061069390879061175e565b610e12610f0c565b6001600160a01b0316610e23610b34565b6001600160a01b031614610e6c576040805162461bcd60e51b81526020600482018190526024820152600080516020611810833981519152604482015290519081900360640190fd5b6001600160a01b038116610eb15760405162461bcd60e51b81526004018080602001828103825260268152602001806117c96026913960400191505060405180910390fd5b600080546040516001600160a01b03808516939216917f8be0079c531659141344cd1fd0a4f28419497f9722a3daafe3b4186f6b6457e091a3600080546001600160a01b0319166001600160a01b0392909216919091179055565b3390565b600082820183811015610b4f576040805162461bcd60e51b815260206004820152601b60248201527f536166654d6174683a206164646974696f6e206f766572666c6f770000000000604482015290519081900360640190fd5b6000610f75826113c7565b90505b919050565b6000610b4f83836113cb565b6000610b4f83836113e3565b604080516001600160a01b0385811660248301528481166044830152606480830185905283518084039091018152608490920183526020820180516001600160e01b03166323b872dd60e01b17815292518251600094606094938a169392918291908083835b6020831061101a5780518252601f199092019160209182019101610ffb565b6001836020036101000a0380198251168184511680821785525050505050509050019150506000604051808303816000865af19150503d806000811461107c576040519150601f19603f3d011682016040523d82523d6000602084013e611081565b606091505b50915091508180156110af5750805115806110af57508080602001905160208110156110ac57600080fd5b50515b6110ea5760405162461bcd60e51b81526004018080602001828103825260248152602001806118306024913960400191505060405180910390fd5b505050505050565b600082821115611149576040805162461bcd60e51b815260206004820152601e60248201527f536166654d6174683a207375627472616374696f6e206f766572666c6f770000604482015290519081900360640190fd5b50900390565b60008261115e57506000610b52565b8282028284828161116b57fe5b0414610b4f5760405162461bcd60e51b81526004018080602001828103825260218152602001806117ef6021913960400191505060405180910390fd5b60008082116111fe576040805162461bcd60e51b815260206004820152601a60248201527f536166654d6174683a206469766973696f6e206279207a65726f000000000000604482015290519081900360640190fd5b81838161120757fe5b049392505050565b6000610b4f83836114a9565b6001546040516370a0823160e01b81526000916001600160a01b0316906370a082319061124c90309060040161168c565b60206040518083038186803b15801561126457600080fd5b505afa158015611278573d6000803e3d6000fd5b505050506040513d601f19601f8201168201806040525081019061129c91906115bc565b9050808211156113305760015460405163a9059cbb60e01b81526001600160a01b039091169063a9059cbb906112d890869085906004016116a0565b602060405180830381600087803b1580156112f257600080fd5b505af1158015611306573d6000803e3d6000fd5b505050506040513d601f19601f8201168201806040525081019061132a9190611588565b506113b6565b60015460405163a9059cbb60e01b81526001600160a01b039091169063a9059cbb9061136290869086906004016116a0565b602060405180830381600087803b15801561137c57600080fd5b505af1158015611390573d6000803e3d6000fd5b505050506040513d601f19601f820116820180604052508101906113b49190611588565b505b505050565b6000610b4f838361150d565b5490565b60009081526001919091016020526040902054151590565b6000818152600183016020526040812054801561149f578354600019808301919081019060009087908390811061141657fe5b906000526020600020015490508087600001848154811061143357fe5b60009182526020808320909101929092558281526001898101909252604090209084019055865487908061146357fe5b60019003818190600052602060002001600090559055866001016000878152602001908152602001600020600090556001945050505050610b52565b6000915050610b52565b815460009082106114eb5760405162461bcd60e51b81526004018080602001828103825260228152602001806117a76022913960400191505060405180910390fd5b8260000182815481106114fa57fe5b9060005260206000200154905092915050565b600061151983836113cb565b61154f57508154600181810184556000848152602080822090930184905584548482528286019093526040902091909155610b52565b506000610b52565b80356001600160a01b0381168114610f7857600080fd5b60006020828403121561157f578081fd5b610b4f82611557565b600060208284031215611599578081fd5b8151610b4f81611798565b6000602082840312156115b5578081fd5b5035919050565b6000602082840312156115cd578081fd5b5051919050565b600080604083850312156115e6578081fd5b823591506115f660208401611557565b90509250929050565b600080600060608486031215611613578081fd5b8335925061162360208501611557565b9150604084013590509250925092565b60008060408385031215611645578182fd5b50508035926020909101359150565b600080600060608486031215611668578283fd5b8335925060208401359150604084013561168181611798565b809150509250925092565b6001600160a01b0391909116815260200190565b6001600160a01b03929092168252602082015260400190565b901515815260200190565b60208082526017908201527f746f6b656e206964656e74697479206d69736d61746368000000000000000000604082015260600190565b6020808252601290820152711dda5d1a191c985dce881b9bdd0819dbdbd960721b604082015260600190565b6020808252601b908201527f656d657267656e637957697468647261773a206e6f7420676f6f640000000000604082015260600190565b90815260200190565b918252602082015260400190565b948552602085019390935260408401919091526060830152608082015260a00190565b801515811461096757600080fdfe456e756d657261626c655365743a20696e646578206f7574206f6620626f756e64734f776e61626c653a206e6577206f776e657220697320746865207a65726f2061646472657373536166654d6174683a206d756c7469706c69636174696f6e206f766572666c6f774f776e61626c653a2063616c6c6572206973206e6f7420746865206f776e65725472616e7366657248656c7065723a205452414e534645525f46524f4d5f4641494c4544a26469706673582212206095cc68ec157ab7ed1bd9d82f2319588ed5198045870d969b762c91230a56c664736f6c63430007040033",
  "devdoc": {
    "kind": "dev",
    "methods": {
      "owner()": {
        "details": "Returns the address of the current owner."
      },
      "renounceOwnership()": {
        "details": "Leaves the contract without owner. It will not be possible to call `onlyOwner` functions anymore. Can only be called by the current owner. NOTE: Renouncing ownership will leave the contract without an owner, thereby removing any functionality that is only available to the owner."
      },
      "transferOwnership(address)": {
        "details": "Transfers ownership of the contract to a new account (`newOwner`). Can only be called by the current owner."
      }
    },
    "version": 1
  },
  "userdoc": {
    "kind": "user",
    "methods": {},
    "version": 1
  },
  "storageLayout": {
    "storage": [
      {
        "astId": 290,
        "contract": "contracts/pool/MasterChefNFT.sol:MasterChefNFT",
        "label": "_owner",
        "offset": 0,
        "slot": "0",
        "type": "t_address"
      },
      {
        "astId": 9194,
        "contract": "contracts/pool/MasterChefNFT.sol:MasterChefNFT",
        "label": "cto",
        "offset": 0,
        "slot": "1",
        "type": "t_contract(CartoonToken)4950"
      },
      {
        "astId": 9196,
        "contract": "contracts/pool/MasterChefNFT.sol:MasterChefNFT",
        "label": "cardSpec",
        "offset": 0,
        "slot": "2",
        "type": "t_contract(CardSpec)4882"
      },
      {
        "astId": 9198,
        "contract": "contracts/pool/MasterChefNFT.sol:MasterChefNFT",
        "label": "nCto",
        "offset": 0,
        "slot": "3",
        "type": "t_contract(ERC721Ex)5509"
      },
      {
        "astId": 9200,
        "contract": "contracts/pool/MasterChefNFT.sol:MasterChefNFT",
        "label": "ctoPerBlock",
        "offset": 0,
        "slot": "4",
        "type": "t_uint256"
      },
      {
        "astId": 9203,
        "contract": "contracts/pool/MasterChefNFT.sol:MasterChefNFT",
        "label": "poolInfo",
        "offset": 0,
        "slot": "5",
        "type": "t_array(t_struct(PoolInfo)9192_storage)dyn_storage"
      },
      {
        "astId": 9209,
        "contract": "contracts/pool/MasterChefNFT.sol:MasterChefNFT",
        "label": "userInfo",
        "offset": 0,
        "slot": "6",
        "type": "t_mapping(t_uint256,t_mapping(t_address,t_struct(UserInfo)9181_storage))"
      },
      {
        "astId": 9212,
        "contract": "contracts/pool/MasterChefNFT.sol:MasterChefNFT",
        "label": "totalAllocPoint",
        "offset": 0,
        "slot": "7",
        "type": "t_uint256"
      },
      {
        "astId": 9214,
        "contract": "contracts/pool/MasterChefNFT.sol:MasterChefNFT",
        "label": "startBlock",
        "offset": 0,
        "slot": "8",
        "type": "t_uint256"
      }
    ],
    "types": {
      "t_address": {
        "encoding": "inplace",
        "label": "address",
        "numberOfBytes": "20"
      },
      "t_array(t_bytes32)dyn_storage": {
        "base": "t_bytes32",
        "encoding": "dynamic_array",
        "label": "bytes32[]",
        "numberOfBytes": "32"
      },
      "t_array(t_struct(PoolInfo)9192_storage)dyn_storage": {
        "base": "t_struct(PoolInfo)9192_storage",
        "encoding": "dynamic_array",
        "label": "struct MasterChefNFT.PoolInfo[]",
        "numberOfBytes": "32"
      },
      "t_bytes32": {
        "encoding": "inplace",
        "label": "bytes32",
        "numberOfBytes": "32"
      },
      "t_contract(CardSpec)4882": {
        "encoding": "inplace",
        "label": "contract CardSpec",
        "numberOfBytes": "20"
      },
      "t_contract(CartoonToken)4950": {
        "encoding": "inplace",
        "label": "contract CartoonToken",
        "numberOfBytes": "20"
      },
      "t_contract(ERC721Ex)5509": {
        "encoding": "inplace",
        "label": "contract ERC721Ex",
        "numberOfBytes": "20"
      },
      "t_mapping(t_address,t_struct(UserInfo)9181_storage)": {
        "encoding": "mapping",
        "key": "t_address",
        "label": "mapping(address => struct MasterChefNFT.UserInfo)",
        "numberOfBytes": "32",
        "value": "t_struct(UserInfo)9181_storage"
      },
      "t_mapping(t_bytes32,t_uint256)": {
        "encoding": "mapping",
        "key": "t_bytes32",
        "label": "mapping(bytes32 => uint256)",
        "numberOfBytes": "32",
        "value": "t_uint256"
      },
      "t_mapping(t_uint256,t_mapping(t_address,t_struct(UserInfo)9181_storage))": {
        "encoding": "mapping",
        "key": "t_uint256",
        "label": "mapping(uint256 => mapping(address => struct MasterChefNFT.UserInfo))",
        "numberOfBytes": "32",
        "value": "t_mapping(t_address,t_struct(UserInfo)9181_storage)"
      },
      "t_struct(PoolInfo)9192_storage": {
        "encoding": "inplace",
        "label": "struct MasterChefNFT.PoolInfo",
        "members": [
          {
            "astId": 9183,
            "contract": "contracts/pool/MasterChefNFT.sol:MasterChefNFT",
            "label": "allocPoint",
            "offset": 0,
            "slot": "0",
            "type": "t_uint256"
          },
          {
            "astId": 9185,
            "contract": "contracts/pool/MasterChefNFT.sol:MasterChefNFT",
            "label": "lastRewardBlock",
            "offset": 0,
            "slot": "1",
            "type": "t_uint256"
          },
          {
            "astId": 9187,
            "contract": "contracts/pool/MasterChefNFT.sol:MasterChefNFT",
            "label": "accCtoPerShare",
            "offset": 0,
            "slot": "2",
            "type": "t_uint256"
          },
          {
            "astId": 9189,
            "contract": "contracts/pool/MasterChefNFT.sol:MasterChefNFT",
            "label": "tokenIdentity",
            "offset": 0,
            "slot": "3",
            "type": "t_uint256"
          },
          {
            "astId": 9191,
            "contract": "contracts/pool/MasterChefNFT.sol:MasterChefNFT",
            "label": "tokenAmount",
            "offset": 0,
            "slot": "4",
            "type": "t_uint256"
          }
        ],
        "numberOfBytes": "160"
      },
      "t_struct(Set)3852_storage": {
        "encoding": "inplace",
        "label": "struct EnumerableSet.Set",
        "members": [
          {
            "astId": 3847,
            "contract": "contracts/pool/MasterChefNFT.sol:MasterChefNFT",
            "label": "_values",
            "offset": 0,
            "slot": "0",
            "type": "t_array(t_bytes32)dyn_storage"
          },
          {
            "astId": 3851,
            "contract": "contracts/pool/MasterChefNFT.sol:MasterChefNFT",
            "label": "_indexes",
            "offset": 0,
            "slot": "1",
            "type": "t_mapping(t_bytes32,t_uint256)"
          }
        ],
        "numberOfBytes": "64"
      },
      "t_struct(UintSet)4238_storage": {
        "encoding": "inplace",
        "label": "struct EnumerableSet.UintSet",
        "members": [
          {
            "astId": 4237,
            "contract": "contracts/pool/MasterChefNFT.sol:MasterChefNFT",
            "label": "_inner",
            "offset": 0,
            "slot": "0",
            "type": "t_struct(Set)3852_storage"
          }
        ],
        "numberOfBytes": "64"
      },
      "t_struct(UserInfo)9181_storage": {
        "encoding": "inplace",
        "label": "struct MasterChefNFT.UserInfo",
        "members": [
          {
            "astId": 9178,
            "contract": "contracts/pool/MasterChefNFT.sol:MasterChefNFT",
            "label": "tokenIds",
            "offset": 0,
            "slot": "0",
            "type": "t_struct(UintSet)4238_storage"
          },
          {
            "astId": 9180,
            "contract": "contracts/pool/MasterChefNFT.sol:MasterChefNFT",
            "label": "rewardDebt",
            "offset": 0,
            "slot": "2",
            "type": "t_uint256"
          }
        ],
        "numberOfBytes": "96"
      },
      "t_uint256": {
        "encoding": "inplace",
        "label": "uint256",
        "numberOfBytes": "32"
      }
    }
  }
}