{
  "address": "0xF59a3a1C7fe0991A1d6a92332adc01b132e6B10e",
  "abi": [
    {
      "inputs": [
        {
          "internalType": "contract CartoonToken",
          "name": "_cto",
          "type": "address"
        },
        {
          "internalType": "uint256",
          "name": "_ctoPerBlock",
          "type": "uint256"
        },
        {
          "internalType": "uint256",
          "name": "_startBlock",
          "type": "uint256"
        }
      ],
      "stateMutability": "nonpayable",
      "type": "constructor"
    },
    {
      "anonymous": false,
      "inputs": [
        {
          "indexed": true,
          "internalType": "address",
          "name": "user",
          "type": "address"
        },
        {
          "indexed": true,
          "internalType": "uint256",
          "name": "pid",
          "type": "uint256"
        },
        {
          "indexed": false,
          "internalType": "uint256",
          "name": "amount",
          "type": "uint256"
        }
      ],
      "name": "Deposit",
      "type": "event"
    },
    {
      "anonymous": false,
      "inputs": [
        {
          "indexed": true,
          "internalType": "address",
          "name": "user",
          "type": "address"
        },
        {
          "indexed": true,
          "internalType": "uint256",
          "name": "pid",
          "type": "uint256"
        },
        {
          "indexed": false,
          "internalType": "uint256",
          "name": "amount",
          "type": "uint256"
        }
      ],
      "name": "EmergencyWithdraw",
      "type": "event"
    },
    {
      "anonymous": false,
      "inputs": [
        {
          "indexed": true,
          "internalType": "address",
          "name": "previousOwner",
          "type": "address"
        },
        {
          "indexed": true,
          "internalType": "address",
          "name": "newOwner",
          "type": "address"
        }
      ],
      "name": "OwnershipTransferred",
      "type": "event"
    },
    {
      "anonymous": false,
      "inputs": [
        {
          "indexed": true,
          "internalType": "address",
          "name": "user",
          "type": "address"
        },
        {
          "indexed": true,
          "internalType": "uint256",
          "name": "pid",
          "type": "uint256"
        },
        {
          "indexed": false,
          "internalType": "uint256",
          "name": "amount",
          "type": "uint256"
        }
      ],
      "name": "Withdraw",
      "type": "event"
    },
    {
      "inputs": [
        {
          "internalType": "uint256",
          "name": "_allocPoint",
          "type": "uint256"
        },
        {
          "internalType": "contract IERC20",
          "name": "_lpToken",
          "type": "address"
        },
        {
          "internalType": "bool",
          "name": "_withUpdate",
          "type": "bool"
        }
      ],
      "name": "add",
      "outputs": [],
      "stateMutability": "nonpayable",
      "type": "function"
    },
    {
      "inputs": [],
      "name": "cto",
      "outputs": [
        {
          "internalType": "contract CartoonToken",
          "name": "",
          "type": "address"
        }
      ],
      "stateMutability": "view",
      "type": "function"
    },
    {
      "inputs": [],
      "name": "ctoPerBlock",
      "outputs": [
        {
          "internalType": "uint256",
          "name": "",
          "type": "uint256"
        }
      ],
      "stateMutability": "view",
      "type": "function"
    },
    {
      "inputs": [
        {
          "internalType": "uint256",
          "name": "_pid",
          "type": "uint256"
        },
        {
          "internalType": "uint256",
          "name": "_amount",
          "type": "uint256"
        }
      ],
      "name": "deposit",
      "outputs": [],
      "stateMutability": "nonpayable",
      "type": "function"
    },
    {
      "inputs": [
        {
          "internalType": "uint256",
          "name": "_pid",
          "type": "uint256"
        }
      ],
      "name": "emergencyWithdraw",
      "outputs": [],
      "stateMutability": "nonpayable",
      "type": "function"
    },
    {
      "inputs": [
        {
          "internalType": "uint256",
          "name": "_from",
          "type": "uint256"
        },
        {
          "internalType": "uint256",
          "name": "_to",
          "type": "uint256"
        }
      ],
      "name": "getMultiplier",
      "outputs": [
        {
          "internalType": "uint256",
          "name": "",
          "type": "uint256"
        }
      ],
      "stateMutability": "pure",
      "type": "function"
    },
    {
      "inputs": [],
      "name": "massUpdatePools",
      "outputs": [],
      "stateMutability": "nonpayable",
      "type": "function"
    },
    {
      "inputs": [],
      "name": "owner",
      "outputs": [
        {
          "internalType": "address",
          "name": "",
          "type": "address"
        }
      ],
      "stateMutability": "view",
      "type": "function"
    },
    {
      "inputs": [
        {
          "internalType": "uint256",
          "name": "_pid",
          "type": "uint256"
        },
        {
          "internalType": "address",
          "name": "_user",
          "type": "address"
        }
      ],
      "name": "pendingCto",
      "outputs": [
        {
          "internalType": "uint256",
          "name": "",
          "type": "uint256"
        }
      ],
      "stateMutability": "view",
      "type": "function"
    },
    {
      "inputs": [
        {
          "internalType": "uint256",
          "name": "",
          "type": "uint256"
        }
      ],
      "name": "poolInfo",
      "outputs": [
        {
          "internalType": "contract IERC20",
          "name": "lpToken",
          "type": "address"
        },
        {
          "internalType": "uint256",
          "name": "allocPoint",
          "type": "uint256"
        },
        {
          "internalType": "uint256",
          "name": "lastRewardBlock",
          "type": "uint256"
        },
        {
          "internalType": "uint256",
          "name": "accCtoPerShare",
          "type": "uint256"
        }
      ],
      "stateMutability": "view",
      "type": "function"
    },
    {
      "inputs": [],
      "name": "poolLength",
      "outputs": [
        {
          "internalType": "uint256",
          "name": "",
          "type": "uint256"
        }
      ],
      "stateMutability": "view",
      "type": "function"
    },
    {
      "inputs": [],
      "name": "renounceOwnership",
      "outputs": [],
      "stateMutability": "nonpayable",
      "type": "function"
    },
    {
      "inputs": [
        {
          "internalType": "uint256",
          "name": "_pid",
          "type": "uint256"
        },
        {
          "internalType": "uint256",
          "name": "_allocPoint",
          "type": "uint256"
        },
        {
          "internalType": "bool",
          "name": "_withUpdate",
          "type": "bool"
        }
      ],
      "name": "set",
      "outputs": [],
      "stateMutability": "nonpayable",
      "type": "function"
    },
    {
      "inputs": [],
      "name": "startBlock",
      "outputs": [
        {
          "internalType": "uint256",
          "name": "",
          "type": "uint256"
        }
      ],
      "stateMutability": "view",
      "type": "function"
    },
    {
      "inputs": [],
      "name": "totalAllocPoint",
      "outputs": [
        {
          "internalType": "uint256",
          "name": "",
          "type": "uint256"
        }
      ],
      "stateMutability": "view",
      "type": "function"
    },
    {
      "inputs": [
        {
          "internalType": "address",
          "name": "newOwner",
          "type": "address"
        }
      ],
      "name": "transferOwnership",
      "outputs": [],
      "stateMutability": "nonpayable",
      "type": "function"
    },
    {
      "inputs": [
        {
          "internalType": "uint256",
          "name": "_pid",
          "type": "uint256"
        }
      ],
      "name": "updatePool",
      "outputs": [],
      "stateMutability": "nonpayable",
      "type": "function"
    },
    {
      "inputs": [
        {
          "internalType": "uint256",
          "name": "",
          "type": "uint256"
        },
        {
          "internalType": "address",
          "name": "",
          "type": "address"
        }
      ],
      "name": "userInfo",
      "outputs": [
        {
          "internalType": "uint256",
          "name": "amount",
          "type": "uint256"
        },
        {
          "internalType": "uint256",
          "name": "rewardDebt",
          "type": "uint256"
        }
      ],
      "stateMutability": "view",
      "type": "function"
    },
    {
      "inputs": [
        {
          "internalType": "uint256",
          "name": "_pid",
          "type": "uint256"
        },
        {
          "internalType": "uint256",
          "name": "_amount",
          "type": "uint256"
        }
      ],
      "name": "withdraw",
      "outputs": [],
      "stateMutability": "nonpayable",
      "type": "function"
    }
  ],
  "transactionHash": "0x79098c1c6cdc7f0fdab035fce4cc7dfcf04eae1b57b02c14f98bcf66d2d56981",
  "args": [
    "0x65B22Bd2F1c7A0f07283B4225771CC5455EEd272",
    10,
    6719210
  ],
  "solcInputHash": "24858961e066203ddb505a514341a5fd",
  "bytecode": "0x6080604052600060055534801561001557600080fd5b506040516116a13803806116a18339818101604052606081101561003857600080fd5b508051602082015160409092015190919060006100536100c9565b600080546001600160a01b0319166001600160a01b0383169081178255604051929350917f8be0079c531659141344cd1fd0a4f28419497f9722a3daafe3b4186f6b6457e0908290a350600180546001600160a01b0319166001600160a01b0394909416939093179092556002556006556100cd565b3390565b6115c5806100dc6000396000f3fe608060405234801561001057600080fd5b50600436106101215760003560e01c8063620ddef0116100ad5780638dbb1e3a116100715780638dbb1e3a1461029f578063927f3d20146102c257806393f1a40b146102ee578063e2bbb15814610333578063f2fde38b1461035657610121565b8063620ddef014610238578063630b5ba11461025c57806364482f7914610264578063715018a61461028f5780638da5cb5b1461029757610121565b80632f868e57116100f45780632f868e57146101cb578063441a3e70146101d357806348cd4cb1146101f657806351eb05a6146101fe5780635312ea8e1461021b57610121565b8063081e3eda146101265780631526fe271461014057806317caf6f11461018d5780631eaaa04514610195575b600080fd5b61012e61037c565b60408051918252519081900360200190f35b61015d6004803603602081101561015657600080fd5b5035610382565b604080516001600160a01b0390951685526020850193909352838301919091526060830152519081900360800190f35b61012e6103c6565b6101c9600480360360608110156101ab57600080fd5b508035906001600160a01b03602082013516906040013515156103cc565b005b61012e610551565b6101c9600480360360408110156101e957600080fd5b5080359060200135610557565b61012e6106ac565b6101c96004803603602081101561021457600080fd5b50356106b2565b6101c96004803603602081101561023157600080fd5b5035610857565b6102406108ef565b604080516001600160a01b039092168252519081900360200190f35b6101c96108fe565b6101c96004803603606081101561027a57600080fd5b50803590602081013590604001351515610921565b6101c96109fc565b610240610aa8565b61012e600480360360408110156102b557600080fd5b5080359060200135610ab7565b61012e600480360360408110156102d857600080fd5b50803590602001356001600160a01b0316610acc565b61031a6004803603604081101561030457600080fd5b50803590602001356001600160a01b0316610c2a565b6040805192835260208301919091528051918290030190f35b6101c96004803603604081101561034957600080fd5b5080359060200135610c4e565b6101c96004803603602081101561036c57600080fd5b50356001600160a01b0316610d53565b60035490565b6003818154811061039257600080fd5b600091825260209091206004909102018054600182015460028301546003909301546001600160a01b039092169350919084565b60055481565b6103d4610e55565b6001600160a01b03166103e5610aa8565b6001600160a01b03161461042e576040805162461bcd60e51b81526020600482018190526024820152600080516020611546833981519152604482015290519081900360640190fd5b801561043c5761043c6108fe565b6000600654431161044f57600654610451565b435b6005549091506104619085610e59565b600555604080516080810182526001600160a01b0394851681526020810195865290810191825260006060820181815260038054600181018255925291517fc2575a0e9e593c00f959f8c92f12db2869c3395a3b0502d05e2516446f71f85b600490920291820180546001600160a01b031916919096161790945593517fc2575a0e9e593c00f959f8c92f12db2869c3395a3b0502d05e2516446f71f85c840155517fc2575a0e9e593c00f959f8c92f12db2869c3395a3b0502d05e2516446f71f85d8301555090517fc2575a0e9e593c00f959f8c92f12db2869c3395a3b0502d05e2516446f71f85e90910155565b60025481565b60006003838154811061056657fe5b60009182526020808320868452600480835260408086203387529093529190932080549290910290920192508311156105db576040805162461bcd60e51b81526020600482015260126024820152711dda5d1a191c985dce881b9bdd0819dbdbd960721b604482015290519081900360640190fd5b6105e4846106b2565b600061061e826001015461061864e8d4a5100061061287600301548760000154610eb390919063ffffffff16565b90610f0c565b90610f73565b905061062a3382610fd0565b81546106369085610f73565b80835560038401546106539164e8d4a51000916106129190610eb3565b6001830155825461066e906001600160a01b03163386611161565b604080518581529051869133917ff279e6a1f5e320cca91135676d9cb6e44ca8a08c0b88342bcdb1144f6511b5689181900360200190a35050505050565b60065481565b6000600382815481106106c157fe5b90600052602060002090600402019050806002015443116106e25750610854565b8054604080516370a0823160e01b815230600482015290516000926001600160a01b0316916370a08231916024808301926020929190829003018186803b15801561072c57600080fd5b505afa158015610740573d6000803e3d6000fd5b505050506040513d602081101561075657600080fd5b505190508061076c575043600290910155610854565b600061077c836002015443610ab7565b905060006107a960055461061286600101546107a360025487610eb390919063ffffffff16565b90610eb3565b600154604080516340c10f1960e01b81523060048201526024810184905290519293506001600160a01b03909116916340c10f199160448082019260009290919082900301818387803b1580156107ff57600080fd5b505af1158015610813573d6000803e3d6000fd5b505050506108416108368461061264e8d4a5100085610eb390919063ffffffff16565b600386015490610e59565b6003850155505043600290920191909155505b50565b60006003828154811061086657fe5b600091825260208083208584526004808352604080862033808852945290942080549490930201805490945091926108a8926001600160a01b03169190611161565b80546040805191825251849133917fbb757047c2b5f3974fe26b7c10f732e7bce710b0952a71082702781e62ae05959181900360200190a360008082556001909101555050565b6001546001600160a01b031681565b60035460005b8181101561091d57610915816106b2565b600101610904565b5050565b610929610e55565b6001600160a01b031661093a610aa8565b6001600160a01b031614610983576040805162461bcd60e51b81526020600482018190526024820152600080516020611546833981519152604482015290519081900360640190fd5b8015610991576109916108fe565b6109ce826109c8600386815481106109a557fe5b906000526020600020906004020160010154600554610f7390919063ffffffff16565b90610e59565b60058190555081600384815481106109e257fe5b906000526020600020906004020160010181905550505050565b610a04610e55565b6001600160a01b0316610a15610aa8565b6001600160a01b031614610a5e576040805162461bcd60e51b81526020600482018190526024820152600080516020611546833981519152604482015290519081900360640190fd5b600080546040516001600160a01b03909116907f8be0079c531659141344cd1fd0a4f28419497f9722a3daafe3b4186f6b6457e0908390a3600080546001600160a01b0319169055565b6000546001600160a01b031690565b6000610ac38284610f73565b90505b92915050565b60008060038481548110610adc57fe5b60009182526020808320878452600480835260408086206001600160a01b038a811688529085528187209583029093016003810154815483516370a0823160e01b81523095810195909552925191985095969491909316926370a08231926024808201939291829003018186803b158015610b5657600080fd5b505afa158015610b6a573d6000803e3d6000fd5b505050506040513d6020811015610b8057600080fd5b5051600285015490915043118015610b9757508015155b15610bf7576000610bac856002015443610ab7565b90506000610bd360055461061288600101546107a360025487610eb390919063ffffffff16565b9050610bf2610beb846106128464e8d4a51000610eb3565b8590610e59565b935050505b610c1f836001015461061864e8d4a51000610612868860000154610eb390919063ffffffff16565b979650505050505050565b60046020908152600092835260408084209091529082529020805460019091015482565b600060038381548110610c5d57fe5b60009182526020808320868452600480835260408086203387529093529190932091029091019150610c8e846106b2565b805415610cd1576000610cc3826001015461061864e8d4a5100061061287600301548760000154610eb390919063ffffffff16565b9050610ccf3382610fd0565b505b8154610ce8906001600160a01b03163330866111b3565b8054610cf49084610e59565b8082556003830154610d119164e8d4a51000916106129190610eb3565b6001820155604080518481529051859133917f90890809c654f11d6e72a28fa60149770a0d11ec6c92319d6ceb2bb0a4ea1a159181900360200190a350505050565b610d5b610e55565b6001600160a01b0316610d6c610aa8565b6001600160a01b031614610db5576040805162461bcd60e51b81526020600482018190526024820152600080516020611546833981519152604482015290519081900360640190fd5b6001600160a01b038116610dfa5760405162461bcd60e51b81526004018080602001828103825260268152602001806114d96026913960400191505060405180910390fd5b600080546040516001600160a01b03808516939216917f8be0079c531659141344cd1fd0a4f28419497f9722a3daafe3b4186f6b6457e091a3600080546001600160a01b0319166001600160a01b0392909216919091179055565b3390565b600082820183811015610ac3576040805162461bcd60e51b815260206004820152601b60248201527f536166654d6174683a206164646974696f6e206f766572666c6f770000000000604482015290519081900360640190fd5b600082610ec257506000610ac6565b82820282848281610ecf57fe5b0414610ac35760405162461bcd60e51b81526004018080602001828103825260218152602001806115256021913960400191505060405180910390fd5b6000808211610f62576040805162461bcd60e51b815260206004820152601a60248201527f536166654d6174683a206469766973696f6e206279207a65726f000000000000604482015290519081900360640190fd5b818381610f6b57fe5b049392505050565b600082821115610fca576040805162461bcd60e51b815260206004820152601e60248201527f536166654d6174683a207375627472616374696f6e206f766572666c6f770000604482015290519081900360640190fd5b50900390565b600154604080516370a0823160e01b815230600482015290516000926001600160a01b0316916370a08231916024808301926020929190829003018186803b15801561101b57600080fd5b505afa15801561102f573d6000803e3d6000fd5b505050506040513d602081101561104557600080fd5b50519050808211156110d9576001546040805163a9059cbb60e01b81526001600160a01b038681166004830152602482018590529151919092169163a9059cbb9160448083019260209291908290030181600087803b1580156110a757600080fd5b505af11580156110bb573d6000803e3d6000fd5b505050506040513d60208110156110d157600080fd5b5061115c9050565b6001546040805163a9059cbb60e01b81526001600160a01b038681166004830152602482018690529151919092169163a9059cbb9160448083019260209291908290030181600087803b15801561112f57600080fd5b505af1158015611143573d6000803e3d6000fd5b505050506040513d602081101561115957600080fd5b50505b505050565b604080516001600160a01b038416602482015260448082018490528251808303909101815260649091019091526020810180516001600160e01b031663a9059cbb60e01b17905261115c908490611213565b604080516001600160a01b0380861660248301528416604482015260648082018490528251808303909101815260849091019091526020810180516001600160e01b03166323b872dd60e01b17905261120d908590611213565b50505050565b6060611268826040518060400160405280602081526020017f5361666545524332303a206c6f772d6c6576656c2063616c6c206661696c6564815250856001600160a01b03166112c49092919063ffffffff16565b80519091501561115c5780806020019051602081101561128757600080fd5b505161115c5760405162461bcd60e51b815260040180806020018281038252602a815260200180611566602a913960400191505060405180910390fd5b60606112d384846000856112dd565b90505b9392505050565b60608247101561131e5760405162461bcd60e51b81526004018080602001828103825260268152602001806114ff6026913960400191505060405180910390fd5b6113278561142e565b611378576040805162461bcd60e51b815260206004820152601d60248201527f416464726573733a2063616c6c20746f206e6f6e2d636f6e7472616374000000604482015290519081900360640190fd5b60006060866001600160a01b031685876040518082805190602001908083835b602083106113b75780518252601f199092019160209182019101611398565b6001836020036101000a03801982511681845116808217855250505050505090500191505060006040518083038185875af1925050503d8060008114611419576040519150601f19603f3d011682016040523d82523d6000602084013e61141e565b606091505b5091509150610c1f828286611434565b3b151590565b606083156114435750816112d6565b8251156114535782518084602001fd5b8160405162461bcd60e51b81526004018080602001828103825283818151815260200191508051906020019080838360005b8381101561149d578181015183820152602001611485565b50505050905090810190601f1680156114ca5780820380516001836020036101000a031916815260200191505b509250505060405180910390fdfe4f776e61626c653a206e6577206f776e657220697320746865207a65726f2061646472657373416464726573733a20696e73756666696369656e742062616c616e636520666f722063616c6c536166654d6174683a206d756c7469706c69636174696f6e206f766572666c6f774f776e61626c653a2063616c6c6572206973206e6f7420746865206f776e65725361666545524332303a204552433230206f7065726174696f6e20646964206e6f742073756363656564a2646970667358221220b5347ad19edef457d26cda8eaea81c3c733aadf6dc87a1a5a0a733bac747f8f564736f6c63430007040033",
  "devdoc": {
    "kind": "dev",
    "methods": {
      "owner()": {
        "details": "Returns the address of the current owner."
      },
      "renounceOwnership()": {
        "details": "Leaves the contract without owner. It will not be possible to call `onlyOwner` functions anymore. Can only be called by the current owner. NOTE: Renouncing ownership will leave the contract without an owner, thereby removing any functionality that is only available to the owner."
      },
      "transferOwnership(address)": {
        "details": "Transfers ownership of the contract to a new account (`newOwner`). Can only be called by the current owner."
      }
    },
    "version": 1
  },
  "userdoc": {
    "kind": "user",
    "methods": {},
    "version": 1
  },
  "storageLayout": {
    "storage": [
      {
        "astId": 290,
        "contract": "contracts/pool/MasterChef.sol:MasterChef",
        "label": "_owner",
        "offset": 0,
        "slot": "0",
        "type": "t_address"
      },
      {
        "astId": 8461,
        "contract": "contracts/pool/MasterChef.sol:MasterChef",
        "label": "cto",
        "offset": 0,
        "slot": "1",
        "type": "t_contract(CartoonToken)4950"
      },
      {
        "astId": 8463,
        "contract": "contracts/pool/MasterChef.sol:MasterChef",
        "label": "ctoPerBlock",
        "offset": 0,
        "slot": "2",
        "type": "t_uint256"
      },
      {
        "astId": 8466,
        "contract": "contracts/pool/MasterChef.sol:MasterChef",
        "label": "poolInfo",
        "offset": 0,
        "slot": "3",
        "type": "t_array(t_struct(PoolInfo)8459_storage)dyn_storage"
      },
      {
        "astId": 8472,
        "contract": "contracts/pool/MasterChef.sol:MasterChef",
        "label": "userInfo",
        "offset": 0,
        "slot": "4",
        "type": "t_mapping(t_uint256,t_mapping(t_address,t_struct(UserInfo)8450_storage))"
      },
      {
        "astId": 8475,
        "contract": "contracts/pool/MasterChef.sol:MasterChef",
        "label": "totalAllocPoint",
        "offset": 0,
        "slot": "5",
        "type": "t_uint256"
      },
      {
        "astId": 8477,
        "contract": "contracts/pool/MasterChef.sol:MasterChef",
        "label": "startBlock",
        "offset": 0,
        "slot": "6",
        "type": "t_uint256"
      }
    ],
    "types": {
      "t_address": {
        "encoding": "inplace",
        "label": "address",
        "numberOfBytes": "20"
      },
      "t_array(t_struct(PoolInfo)8459_storage)dyn_storage": {
        "base": "t_struct(PoolInfo)8459_storage",
        "encoding": "dynamic_array",
        "label": "struct MasterChef.PoolInfo[]",
        "numberOfBytes": "32"
      },
      "t_contract(CartoonToken)4950": {
        "encoding": "inplace",
        "label": "contract CartoonToken",
        "numberOfBytes": "20"
      },
      "t_contract(IERC20)1549": {
        "encoding": "inplace",
        "label": "contract IERC20",
        "numberOfBytes": "20"
      },
      "t_mapping(t_address,t_struct(UserInfo)8450_storage)": {
        "encoding": "mapping",
        "key": "t_address",
        "label": "mapping(address => struct MasterChef.UserInfo)",
        "numberOfBytes": "32",
        "value": "t_struct(UserInfo)8450_storage"
      },
      "t_mapping(t_uint256,t_mapping(t_address,t_struct(UserInfo)8450_storage))": {
        "encoding": "mapping",
        "key": "t_uint256",
        "label": "mapping(uint256 => mapping(address => struct MasterChef.UserInfo))",
        "numberOfBytes": "32",
        "value": "t_mapping(t_address,t_struct(UserInfo)8450_storage)"
      },
      "t_struct(PoolInfo)8459_storage": {
        "encoding": "inplace",
        "label": "struct MasterChef.PoolInfo",
        "members": [
          {
            "astId": 8452,
            "contract": "contracts/pool/MasterChef.sol:MasterChef",
            "label": "lpToken",
            "offset": 0,
            "slot": "0",
            "type": "t_contract(IERC20)1549"
          },
          {
            "astId": 8454,
            "contract": "contracts/pool/MasterChef.sol:MasterChef",
            "label": "allocPoint",
            "offset": 0,
            "slot": "1",
            "type": "t_uint256"
          },
          {
            "astId": 8456,
            "contract": "contracts/pool/MasterChef.sol:MasterChef",
            "label": "lastRewardBlock",
            "offset": 0,
            "slot": "2",
            "type": "t_uint256"
          },
          {
            "astId": 8458,
            "contract": "contracts/pool/MasterChef.sol:MasterChef",
            "label": "accCtoPerShare",
            "offset": 0,
            "slot": "3",
            "type": "t_uint256"
          }
        ],
        "numberOfBytes": "128"
      },
      "t_struct(UserInfo)8450_storage": {
        "encoding": "inplace",
        "label": "struct MasterChef.UserInfo",
        "members": [
          {
            "astId": 8447,
            "contract": "contracts/pool/MasterChef.sol:MasterChef",
            "label": "amount",
            "offset": 0,
            "slot": "0",
            "type": "t_uint256"
          },
          {
            "astId": 8449,
            "contract": "contracts/pool/MasterChef.sol:MasterChef",
            "label": "rewardDebt",
            "offset": 0,
            "slot": "1",
            "type": "t_uint256"
          }
        ],
        "numberOfBytes": "64"
      },
      "t_uint256": {
        "encoding": "inplace",
        "label": "uint256",
        "numberOfBytes": "32"
      }
    }
  }
}