{
  "address": "0x154949B86B95edB23f991105248642d2bE7A556B",
  "abi": [
    {
      "inputs": [
        {
          "internalType": "address",
          "name": "_factory",
          "type": "address"
        },
        {
          "internalType": "address",
          "name": "_WBNB",
          "type": "address"
        }
      ],
      "stateMutability": "nonpayable",
      "type": "constructor"
    },
    {
      "anonymous": false,
      "inputs": [
        {
          "indexed": true,
          "internalType": "address",
          "name": "previousOwner",
          "type": "address"
        },
        {
          "indexed": true,
          "internalType": "address",
          "name": "newOwner",
          "type": "address"
        }
      ],
      "name": "OwnershipTransferred",
      "type": "event"
    },
    {
      "inputs": [],
      "name": "WBNB",
      "outputs": [
        {
          "internalType": "address",
          "name": "",
          "type": "address"
        }
      ],
      "stateMutability": "view",
      "type": "function"
    },
    {
      "inputs": [
        {
          "internalType": "address",
          "name": "tokenA",
          "type": "address"
        },
        {
          "internalType": "address",
          "name": "tokenB",
          "type": "address"
        },
        {
          "internalType": "uint256",
          "name": "amountADesired",
          "type": "uint256"
        },
        {
          "internalType": "uint256",
          "name": "amountBDesired",
          "type": "uint256"
        },
        {
          "internalType": "uint256",
          "name": "amountAMin",
          "type": "uint256"
        },
        {
          "internalType": "uint256",
          "name": "amountBMin",
          "type": "uint256"
        },
        {
          "internalType": "address",
          "name": "to",
          "type": "address"
        },
        {
          "internalType": "uint256",
          "name": "deadline",
          "type": "uint256"
        }
      ],
      "name": "addLiquidity",
      "outputs": [
        {
          "internalType": "uint256",
          "name": "amountA",
          "type": "uint256"
        },
        {
          "internalType": "uint256",
          "name": "amountB",
          "type": "uint256"
        },
        {
          "internalType": "uint256",
          "name": "liquidity",
          "type": "uint256"
        }
      ],
      "stateMutability": "nonpayable",
      "type": "function"
    },
    {
      "inputs": [
        {
          "internalType": "address",
          "name": "token",
          "type": "address"
        },
        {
          "internalType": "uint256",
          "name": "amountTokenDesired",
          "type": "uint256"
        },
        {
          "internalType": "uint256",
          "name": "amountTokenMin",
          "type": "uint256"
        },
        {
          "internalType": "uint256",
          "name": "amountETHMin",
          "type": "uint256"
        },
        {
          "internalType": "address",
          "name": "to",
          "type": "address"
        },
        {
          "internalType": "uint256",
          "name": "deadline",
          "type": "uint256"
        }
      ],
      "name": "addLiquidityETH",
      "outputs": [
        {
          "internalType": "uint256",
          "name": "amountToken",
          "type": "uint256"
        },
        {
          "internalType": "uint256",
          "name": "amountETH",
          "type": "uint256"
        },
        {
          "internalType": "uint256",
          "name": "liquidity",
          "type": "uint256"
        }
      ],
      "stateMutability": "payable",
      "type": "function"
    },
    {
      "inputs": [],
      "name": "factory",
      "outputs": [
        {
          "internalType": "address",
          "name": "",
          "type": "address"
        }
      ],
      "stateMutability": "view",
      "type": "function"
    },
    {
      "inputs": [
        {
          "internalType": "uint256",
          "name": "amountOut",
          "type": "uint256"
        },
        {
          "internalType": "uint256",
          "name": "reserveIn",
          "type": "uint256"
        },
        {
          "internalType": "uint256",
          "name": "reserveOut",
          "type": "uint256"
        },
        {
          "internalType": "address",
          "name": "token0",
          "type": "address"
        },
        {
          "internalType": "address",
          "name": "token1",
          "type": "address"
        }
      ],
      "name": "getAmountIn",
      "outputs": [
        {
          "internalType": "uint256",
          "name": "amountIn",
          "type": "uint256"
        }
      ],
      "stateMutability": "view",
      "type": "function"
    },
    {
      "inputs": [
        {
          "internalType": "uint256",
          "name": "amountIn",
          "type": "uint256"
        },
        {
          "internalType": "uint256",
          "name": "reserveIn",
          "type": "uint256"
        },
        {
          "internalType": "uint256",
          "name": "reserveOut",
          "type": "uint256"
        },
        {
          "internalType": "address",
          "name": "token0",
          "type": "address"
        },
        {
          "internalType": "address",
          "name": "token1",
          "type": "address"
        }
      ],
      "name": "getAmountOut",
      "outputs": [
        {
          "internalType": "uint256",
          "name": "amountOut",
          "type": "uint256"
        }
      ],
      "stateMutability": "view",
      "type": "function"
    },
    {
      "inputs": [
        {
          "internalType": "uint256",
          "name": "amountOut",
          "type": "uint256"
        },
        {
          "internalType": "address[]",
          "name": "path",
          "type": "address[]"
        }
      ],
      "name": "getAmountsIn",
      "outputs": [
        {
          "internalType": "uint256[]",
          "name": "amounts",
          "type": "uint256[]"
        }
      ],
      "stateMutability": "view",
      "type": "function"
    },
    {
      "inputs": [
        {
          "internalType": "uint256",
          "name": "amountIn",
          "type": "uint256"
        },
        {
          "internalType": "address[]",
          "name": "path",
          "type": "address[]"
        }
      ],
      "name": "getAmountsOut",
      "outputs": [
        {
          "internalType": "uint256[]",
          "name": "amounts",
          "type": "uint256[]"
        }
      ],
      "stateMutability": "view",
      "type": "function"
    },
    {
      "inputs": [
        {
          "internalType": "address",
          "name": "account",
          "type": "address"
        }
      ],
      "name": "isOwner",
      "outputs": [
        {
          "internalType": "bool",
          "name": "",
          "type": "bool"
        }
      ],
      "stateMutability": "view",
      "type": "function"
    },
    {
      "inputs": [],
      "name": "owner",
      "outputs": [
        {
          "internalType": "address",
          "name": "",
          "type": "address"
        }
      ],
      "stateMutability": "view",
      "type": "function"
    },
    {
      "inputs": [
        {
          "internalType": "address",
          "name": "tokenA",
          "type": "address"
        },
        {
          "internalType": "address",
          "name": "tokenB",
          "type": "address"
        }
      ],
      "name": "pairFor",
      "outputs": [
        {
          "internalType": "address",
          "name": "pair",
          "type": "address"
        }
      ],
      "stateMutability": "view",
      "type": "function"
    },
    {
      "inputs": [
        {
          "internalType": "uint256",
          "name": "amountA",
          "type": "uint256"
        },
        {
          "internalType": "uint256",
          "name": "reserveA",
          "type": "uint256"
        },
        {
          "internalType": "uint256",
          "name": "reserveB",
          "type": "uint256"
        }
      ],
      "name": "quote",
      "outputs": [
        {
          "internalType": "uint256",
          "name": "amountB",
          "type": "uint256"
        }
      ],
      "stateMutability": "view",
      "type": "function"
    },
    {
      "inputs": [
        {
          "internalType": "address",
          "name": "tokenA",
          "type": "address"
        },
        {
          "internalType": "address",
          "name": "tokenB",
          "type": "address"
        },
        {
          "internalType": "uint256",
          "name": "liquidity",
          "type": "uint256"
        },
        {
          "internalType": "uint256",
          "name": "amountAMin",
          "type": "uint256"
        },
        {
          "internalType": "uint256",
          "name": "amountBMin",
          "type": "uint256"
        },
        {
          "internalType": "address",
          "name": "to",
          "type": "address"
        },
        {
          "internalType": "uint256",
          "name": "deadline",
          "type": "uint256"
        }
      ],
      "name": "removeLiquidity",
      "outputs": [
        {
          "internalType": "uint256",
          "name": "amountA",
          "type": "uint256"
        },
        {
          "internalType": "uint256",
          "name": "amountB",
          "type": "uint256"
        }
      ],
      "stateMutability": "nonpayable",
      "type": "function"
    },
    {
      "inputs": [
        {
          "internalType": "address",
          "name": "token",
          "type": "address"
        },
        {
          "internalType": "uint256",
          "name": "liquidity",
          "type": "uint256"
        },
        {
          "internalType": "uint256",
          "name": "amountTokenMin",
          "type": "uint256"
        },
        {
          "internalType": "uint256",
          "name": "amountETHMin",
          "type": "uint256"
        },
        {
          "internalType": "address",
          "name": "to",
          "type": "address"
        },
        {
          "internalType": "uint256",
          "name": "deadline",
          "type": "uint256"
        }
      ],
      "name": "removeLiquidityETH",
      "outputs": [
        {
          "internalType": "uint256",
          "name": "amountToken",
          "type": "uint256"
        },
        {
          "internalType": "uint256",
          "name": "amountETH",
          "type": "uint256"
        }
      ],
      "stateMutability": "nonpayable",
      "type": "function"
    },
    {
      "inputs": [
        {
          "internalType": "address",
          "name": "token",
          "type": "address"
        },
        {
          "internalType": "uint256",
          "name": "liquidity",
          "type": "uint256"
        },
        {
          "internalType": "uint256",
          "name": "amountTokenMin",
          "type": "uint256"
        },
        {
          "internalType": "uint256",
          "name": "amountETHMin",
          "type": "uint256"
        },
        {
          "internalType": "address",
          "name": "to",
          "type": "address"
        },
        {
          "internalType": "uint256",
          "name": "deadline",
          "type": "uint256"
        }
      ],
      "name": "removeLiquidityETHSupportingFeeOnTransferTokens",
      "outputs": [
        {
          "internalType": "uint256",
          "name": "amountETH",
          "type": "uint256"
        }
      ],
      "stateMutability": "nonpayable",
      "type": "function"
    },
    {
      "inputs": [
        {
          "internalType": "address",
          "name": "token",
          "type": "address"
        },
        {
          "internalType": "uint256",
          "name": "liquidity",
          "type": "uint256"
        },
        {
          "internalType": "uint256",
          "name": "amountTokenMin",
          "type": "uint256"
        },
        {
          "internalType": "uint256",
          "name": "amountETHMin",
          "type": "uint256"
        },
        {
          "internalType": "address",
          "name": "to",
          "type": "address"
        },
        {
          "internalType": "uint256",
          "name": "deadline",
          "type": "uint256"
        },
        {
          "internalType": "bool",
          "name": "approveMax",
          "type": "bool"
        },
        {
          "internalType": "uint8",
          "name": "v",
          "type": "uint8"
        },
        {
          "internalType": "bytes32",
          "name": "r",
          "type": "bytes32"
        },
        {
          "internalType": "bytes32",
          "name": "s",
          "type": "bytes32"
        }
      ],
      "name": "removeLiquidityETHWithPermit",
      "outputs": [
        {
          "internalType": "uint256",
          "name": "amountToken",
          "type": "uint256"
        },
        {
          "internalType": "uint256",
          "name": "amountETH",
          "type": "uint256"
        }
      ],
      "stateMutability": "nonpayable",
      "type": "function"
    },
    {
      "inputs": [
        {
          "internalType": "address",
          "name": "token",
          "type": "address"
        },
        {
          "internalType": "uint256",
          "name": "liquidity",
          "type": "uint256"
        },
        {
          "internalType": "uint256",
          "name": "amountTokenMin",
          "type": "uint256"
        },
        {
          "internalType": "uint256",
          "name": "amountETHMin",
          "type": "uint256"
        },
        {
          "internalType": "address",
          "name": "to",
          "type": "address"
        },
        {
          "internalType": "uint256",
          "name": "deadline",
          "type": "uint256"
        },
        {
          "internalType": "bool",
          "name": "approveMax",
          "type": "bool"
        },
        {
          "internalType": "uint8",
          "name": "v",
          "type": "uint8"
        },
        {
          "internalType": "bytes32",
          "name": "r",
          "type": "bytes32"
        },
        {
          "internalType": "bytes32",
          "name": "s",
          "type": "bytes32"
        }
      ],
      "name": "removeLiquidityETHWithPermitSupportingFeeOnTransferTokens",
      "outputs": [
        {
          "internalType": "uint256",
          "name": "amountETH",
          "type": "uint256"
        }
      ],
      "stateMutability": "nonpayable",
      "type": "function"
    },
    {
      "inputs": [
        {
          "internalType": "address",
          "name": "tokenA",
          "type": "address"
        },
        {
          "internalType": "address",
          "name": "tokenB",
          "type": "address"
        },
        {
          "internalType": "uint256",
          "name": "liquidity",
          "type": "uint256"
        },
        {
          "internalType": "uint256",
          "name": "amountAMin",
          "type": "uint256"
        },
        {
          "internalType": "uint256",
          "name": "amountBMin",
          "type": "uint256"
        },
        {
          "internalType": "address",
          "name": "to",
          "type": "address"
        },
        {
          "internalType": "uint256",
          "name": "deadline",
          "type": "uint256"
        },
        {
          "internalType": "bool",
          "name": "approveMax",
          "type": "bool"
        },
        {
          "internalType": "uint8",
          "name": "v",
          "type": "uint8"
        },
        {
          "internalType": "bytes32",
          "name": "r",
          "type": "bytes32"
        },
        {
          "internalType": "bytes32",
          "name": "s",
          "type": "bytes32"
        }
      ],
      "name": "removeLiquidityWithPermit",
      "outputs": [
        {
          "internalType": "uint256",
          "name": "amountA",
          "type": "uint256"
        },
        {
          "internalType": "uint256",
          "name": "amountB",
          "type": "uint256"
        }
      ],
      "stateMutability": "nonpayable",
      "type": "function"
    },
    {
      "inputs": [],
      "name": "renounceOwnership",
      "outputs": [],
      "stateMutability": "nonpayable",
      "type": "function"
    },
    {
      "inputs": [
        {
          "internalType": "address",
          "name": "_swapMininng",
          "type": "address"
        }
      ],
      "name": "setSwapMining",
      "outputs": [],
      "stateMutability": "nonpayable",
      "type": "function"
    },
    {
      "inputs": [
        {
          "internalType": "uint256",
          "name": "amountOut",
          "type": "uint256"
        },
        {
          "internalType": "address[]",
          "name": "path",
          "type": "address[]"
        },
        {
          "internalType": "address",
          "name": "to",
          "type": "address"
        },
        {
          "internalType": "uint256",
          "name": "deadline",
          "type": "uint256"
        }
      ],
      "name": "swapETHForExactTokens",
      "outputs": [
        {
          "internalType": "uint256[]",
          "name": "amounts",
          "type": "uint256[]"
        }
      ],
      "stateMutability": "payable",
      "type": "function"
    },
    {
      "inputs": [
        {
          "internalType": "uint256",
          "name": "amountOutMin",
          "type": "uint256"
        },
        {
          "internalType": "address[]",
          "name": "path",
          "type": "address[]"
        },
        {
          "internalType": "address",
          "name": "to",
          "type": "address"
        },
        {
          "internalType": "uint256",
          "name": "deadline",
          "type": "uint256"
        }
      ],
      "name": "swapExactETHForTokens",
      "outputs": [
        {
          "internalType": "uint256[]",
          "name": "amounts",
          "type": "uint256[]"
        }
      ],
      "stateMutability": "payable",
      "type": "function"
    },
    {
      "inputs": [
        {
          "internalType": "uint256",
          "name": "amountOutMin",
          "type": "uint256"
        },
        {
          "internalType": "address[]",
          "name": "path",
          "type": "address[]"
        },
        {
          "internalType": "address",
          "name": "to",
          "type": "address"
        },
        {
          "internalType": "uint256",
          "name": "deadline",
          "type": "uint256"
        }
      ],
      "name": "swapExactETHForTokensSupportingFeeOnTransferTokens",
      "outputs": [],
      "stateMutability": "payable",
      "type": "function"
    },
    {
      "inputs": [
        {
          "internalType": "uint256",
          "name": "amountIn",
          "type": "uint256"
        },
        {
          "internalType": "uint256",
          "name": "amountOutMin",
          "type": "uint256"
        },
        {
          "internalType": "address[]",
          "name": "path",
          "type": "address[]"
        },
        {
          "internalType": "address",
          "name": "to",
          "type": "address"
        },
        {
          "internalType": "uint256",
          "name": "deadline",
          "type": "uint256"
        }
      ],
      "name": "swapExactTokensForETH",
      "outputs": [
        {
          "internalType": "uint256[]",
          "name": "amounts",
          "type": "uint256[]"
        }
      ],
      "stateMutability": "nonpayable",
      "type": "function"
    },
    {
      "inputs": [
        {
          "internalType": "uint256",
          "name": "amountIn",
          "type": "uint256"
        },
        {
          "internalType": "uint256",
          "name": "amountOutMin",
          "type": "uint256"
        },
        {
          "internalType": "address[]",
          "name": "path",
          "type": "address[]"
        },
        {
          "internalType": "address",
          "name": "to",
          "type": "address"
        },
        {
          "internalType": "uint256",
          "name": "deadline",
          "type": "uint256"
        }
      ],
      "name": "swapExactTokensForETHSupportingFeeOnTransferTokens",
      "outputs": [],
      "stateMutability": "nonpayable",
      "type": "function"
    },
    {
      "inputs": [
        {
          "internalType": "uint256",
          "name": "amountIn",
          "type": "uint256"
        },
        {
          "internalType": "uint256",
          "name": "amountOutMin",
          "type": "uint256"
        },
        {
          "internalType": "address[]",
          "name": "path",
          "type": "address[]"
        },
        {
          "internalType": "address",
          "name": "to",
          "type": "address"
        },
        {
          "internalType": "uint256",
          "name": "deadline",
          "type": "uint256"
        }
      ],
      "name": "swapExactTokensForTokens",
      "outputs": [
        {
          "internalType": "uint256[]",
          "name": "amounts",
          "type": "uint256[]"
        }
      ],
      "stateMutability": "nonpayable",
      "type": "function"
    },
    {
      "inputs": [
        {
          "internalType": "uint256",
          "name": "amountIn",
          "type": "uint256"
        },
        {
          "internalType": "uint256",
          "name": "amountOutMin",
          "type": "uint256"
        },
        {
          "internalType": "address[]",
          "name": "path",
          "type": "address[]"
        },
        {
          "internalType": "address",
          "name": "to",
          "type": "address"
        },
        {
          "internalType": "uint256",
          "name": "deadline",
          "type": "uint256"
        }
      ],
      "name": "swapExactTokensForTokensSupportingFeeOnTransferTokens",
      "outputs": [],
      "stateMutability": "nonpayable",
      "type": "function"
    },
    {
      "inputs": [],
      "name": "swapMining",
      "outputs": [
        {
          "internalType": "address",
          "name": "",
          "type": "address"
        }
      ],
      "stateMutability": "view",
      "type": "function"
    },
    {
      "inputs": [
        {
          "internalType": "uint256",
          "name": "amountOut",
          "type": "uint256"
        },
        {
          "internalType": "uint256",
          "name": "amountInMax",
          "type": "uint256"
        },
        {
          "internalType": "address[]",
          "name": "path",
          "type": "address[]"
        },
        {
          "internalType": "address",
          "name": "to",
          "type": "address"
        },
        {
          "internalType": "uint256",
          "name": "deadline",
          "type": "uint256"
        }
      ],
      "name": "swapTokensForExactETH",
      "outputs": [
        {
          "internalType": "uint256[]",
          "name": "amounts",
          "type": "uint256[]"
        }
      ],
      "stateMutability": "nonpayable",
      "type": "function"
    },
    {
      "inputs": [
        {
          "internalType": "uint256",
          "name": "amountOut",
          "type": "uint256"
        },
        {
          "internalType": "uint256",
          "name": "amountInMax",
          "type": "uint256"
        },
        {
          "internalType": "address[]",
          "name": "path",
          "type": "address[]"
        },
        {
          "internalType": "address",
          "name": "to",
          "type": "address"
        },
        {
          "internalType": "uint256",
          "name": "deadline",
          "type": "uint256"
        }
      ],
      "name": "swapTokensForExactTokens",
      "outputs": [
        {
          "internalType": "uint256[]",
          "name": "amounts",
          "type": "uint256[]"
        }
      ],
      "stateMutability": "nonpayable",
      "type": "function"
    },
    {
      "inputs": [
        {
          "internalType": "address",
          "name": "newOwner",
          "type": "address"
        }
      ],
      "name": "transferOwnership",
      "outputs": [],
      "stateMutability": "nonpayable",
      "type": "function"
    },
    {
      "stateMutability": "payable",
      "type": "receive"
    }
  ],
  "transactionHash": "0xb82c496880ffb8c1bf4e7454ed62cb353777fe4698ee0fde28e69b59c62e30c9",
  "args": [
    "0xc571C8C976a8517A0dFEbB5a3e338DE2C65F873c",
    "0x209D6c1fCE680e7Eb0672e42294827afd98E6Af7"
  ],
  "solcInputHash": "f37e4c046f4611b7f7fdb5b9fcef2ecf",
  "bytecode": "0x60c060405234801561001057600080fd5b5060405162005114380380620051148339818101604052604081101561003557600080fd5b508051602090910151600080546001600160a01b03191633178082556040516001600160a01b039190911691907f8be0079c531659141344cd1fd0a4f28419497f9722a3daafe3b4186f6b6457e0908290a36001600160601b0319606092831b8116608052911b1660a05260805160601c60a05160601c614f5f620001b5600039806101ec5280610ec65280610f015280610fe352806112e452806118aa5280611b7e5280611fb0528061208b52806121655280612233528061247e528061250652806128275280612ab05280612b645280612c305280612cc55280612d39528061334252806135f15280613626528061365a52806136ce528061385c5280613aa35280613b2b52508061109952806113d5528061167e528061196052806122ef528061268c528061284d528061293e52806129be52806130ac5280613208528061326c52806132dc5280613917528061407452806143b75280614570528061488c528061494552806149f55280614ac85280614bbd5250614f5f6000f3fe6080604052600436106101dc5760003560e01c80638da5cb5b11610102578063c45a015511610095578063e8e3370011610064578063e8e3370014610cfc578063f2fde38b14610d7c578063f305d71914610daf578063fb3bdb4114610df557610215565b8063c45a015514610b72578063cd7290d514610b87578063d06ca61f14610bd4578063ded9382a14610c8957610215565b8063ad615dec116100d1578063ad615dec14610a08578063af2979eb14610a3e578063b6f9de9514610a91578063baa2abde14610b1557610215565b80638da5cb5b146109565780638dd950021461096b57806396ed28f91461098057806399ef4b87146109bb57610215565b80634e5eda111161017a578063715018a611610149578063715018a614610791578063791ac947146107a65780637ff36ab51461083c5780638803dbee146108c057610215565b80634e5eda11146106125780634f887183146106435780635b0d5984146106765780635c11d795146106fb57610215565b80632195995c116101b65780632195995c146104215780632f54bf6e1461049f57806338ed1739146104e65780634a25d94a1461057c57610215565b806302751cec1461021a57806318cbafe5146102865780631f00ca741461036c57610215565b3661021557336001600160a01b037f0000000000000000000000000000000000000000000000000000000000000000161461021357fe5b005b600080fd5b34801561022657600080fd5b5061026d600480360360c081101561023d57600080fd5b506001600160a01b0381358116916020810135916040820135916060810135916080820135169060a00135610e79565b6040805192835260208301919091528051918290030190f35b34801561029257600080fd5b5061031c600480360360a08110156102a957600080fd5b813591602081013591810190606081016040820135600160201b8111156102cf57600080fd5b8201836020820111156102e157600080fd5b803590602001918460208302840111600160201b8311171561030257600080fd5b91935091506001600160a01b038135169060200135610f93565b60408051602080825283518183015283519192839290830191858101910280838360005b83811015610358578181015183820152602001610340565b505050509050019250505060405180910390f35b34801561037857600080fd5b5061031c6004803603604081101561038f57600080fd5b81359190810190604081016020820135600160201b8111156103b057600080fd5b8201836020820111156103c257600080fd5b803590602001918460208302840111600160201b831117156103e357600080fd5b9190808060200260200160405190810160405280939291908181526020018383602002808284376000920191909152509295506113a3945050505050565b34801561042d57600080fd5b5061026d600480360361016081101561044557600080fd5b506001600160a01b038135811691602081013582169160408201359160608101359160808201359160a08101359091169060c08101359060e081013515159060ff610100820135169061012081013590610140013561151e565b3480156104ab57600080fd5b506104d2600480360360208110156104c257600080fd5b50356001600160a01b03166115f7565b604080519115158252519081900360200190f35b3480156104f257600080fd5b5061031c600480360360a081101561050957600080fd5b813591602081013591810190606081016040820135600160201b81111561052f57600080fd5b82018360208201111561054157600080fd5b803590602001918460208302840111600160201b8311171561056257600080fd5b91935091506001600160a01b03813516906020013561160b565b34801561058857600080fd5b5061031c600480360360a081101561059f57600080fd5b813591602081013591810190606081016040820135600160201b8111156105c557600080fd5b8201836020820111156105d757600080fd5b803590602001918460208302840111600160201b831117156105f857600080fd5b91935091506001600160a01b03813516906020013561185a565b34801561061e57600080fd5b50610627611aea565b604080516001600160a01b039092168252519081900360200190f35b34801561064f57600080fd5b506102136004803603602081101561066657600080fd5b50356001600160a01b0316611af9565b34801561068257600080fd5b506106e9600480360361014081101561069a57600080fd5b506001600160a01b0381358116916020810135916040820135916060810135916080820135169060a08101359060c081013515159060ff60e08201351690610100810135906101200135611b75565b60408051918252519081900360200190f35b34801561070757600080fd5b50610213600480360360a081101561071e57600080fd5b813591602081013591810190606081016040820135600160201b81111561074457600080fd5b82018360208201111561075657600080fd5b803590602001918460208302840111600160201b8311171561077757600080fd5b91935091506001600160a01b038135169060200135611c62565b34801561079d57600080fd5b50610213611ebe565b3480156107b257600080fd5b50610213600480360360a08110156107c957600080fd5b813591602081013591810190606081016040820135600160201b8111156107ef57600080fd5b82018360208201111561080157600080fd5b803590602001918460208302840111600160201b8311171561082257600080fd5b91935091506001600160a01b038135169060200135611f62565b61031c6004803603608081101561085257600080fd5b81359190810190604081016020820135600160201b81111561087357600080fd5b82018360208201111561088557600080fd5b803590602001918460208302840111600160201b831117156108a657600080fd5b91935091506001600160a01b0381351690602001356121eb565b3480156108cc57600080fd5b5061031c600480360360a08110156108e357600080fd5b813591602081013591810190606081016040820135600160201b81111561090957600080fd5b82018360208201111561091b57600080fd5b803590602001918460208302840111600160201b8311171561093c57600080fd5b91935091506001600160a01b038135169060200135612619565b34801561096257600080fd5b50610627612816565b34801561097757600080fd5b50610627612825565b34801561098c57600080fd5b50610627600480360360408110156109a357600080fd5b506001600160a01b0381358116916020013516612849565b3480156109c757600080fd5b506106e9600480360360a08110156109de57600080fd5b508035906020810135906040810135906001600160a01b03606082013581169160800135166128fc565b348015610a1457600080fd5b506106e960048036036060811015610a2b57600080fd5b50803590602081013590604001356129ba565b348015610a4a57600080fd5b506106e9600480360360c0811015610a6157600080fd5b506001600160a01b0381358116916020810135916040820135916060810135916080820135169060a00135612a64565b61021360048036036080811015610aa757600080fd5b81359190810190604081016020820135600160201b811115610ac857600080fd5b820183602082011115610ada57600080fd5b803590602001918460208302840111600160201b83111715610afb57600080fd5b91935091506001600160a01b038135169060200135612bea565b348015610b2157600080fd5b5061026d600480360360e0811015610b3857600080fd5b506001600160a01b038135811691602081013582169160408201359160608101359160808201359160a08101359091169060c00135612f3a565b348015610b7e57600080fd5b50610627613206565b348015610b9357600080fd5b506106e9600480360360a0811015610baa57600080fd5b508035906020810135906040810135906001600160a01b036060820135811691608001351661322a565b348015610be057600080fd5b5061031c60048036036040811015610bf757600080fd5b81359190810190604081016020820135600160201b811115610c1857600080fd5b820183602082011115610c2a57600080fd5b803590602001918460208302840111600160201b83111715610c4b57600080fd5b9190808060200260200160405190810160405280939291908181526020018383602002808284376000920191909152509295506132b2945050505050565b348015610c9557600080fd5b5061026d6004803603610140811015610cad57600080fd5b506001600160a01b0381358116916020810135916040820135916060810135916080820135169060a08101359060c081013515159060ff60e08201351690610100810135906101200135613337565b348015610d0857600080fd5b50610d5e6004803603610100811015610d2057600080fd5b506001600160a01b038135811691602081013582169160408201359160608101359160808201359160a08101359160c0820135169060e0013561342a565b60408051938452602084019290925282820152519081900360600190f35b348015610d8857600080fd5b5061021360048036036020811015610d9f57600080fd5b50356001600160a01b031661353c565b610d5e600480360360c0811015610dc557600080fd5b506001600160a01b0381358116916020810135916040820135916060810135916080820135169060a001356135a2565b61031c60048036036080811015610e0b57600080fd5b81359190810190604081016020820135600160201b811115610e2c57600080fd5b820183602082011115610e3e57600080fd5b803590602001918460208302840111600160201b83111715610e5f57600080fd5b91935091506001600160a01b038135169060200135613814565b6000808242811015610ec0576040805162461bcd60e51b81526020600482015260136024820152600080516020614ee6833981519152604482015290519081900360640190fd5b610eef897f00000000000000000000000000000000000000000000000000000000000000008a8a8a308a612f3a565b9093509150610eff898685613c70565b7f00000000000000000000000000000000000000000000000000000000000000006001600160a01b0316632e1a7d4d836040518263ffffffff1660e01b815260040180828152602001915050600060405180830381600087803b158015610f6557600080fd5b505af1158015610f79573d6000803e3d6000fd5b50505050610f878583613dda565b50965096945050505050565b60608142811015610fd9576040805162461bcd60e51b81526020600482015260136024820152600080516020614ee6833981519152604482015290519081900360640190fd5b6001600160a01b037f0000000000000000000000000000000000000000000000000000000000000000168686600019810181811061101357fe5b905060200201356001600160a01b03166001600160a01b03161461106c576040805162461bcd60e51b81526020600482015260186024820152600080516020614e60833981519152604482015290519081900360640190fd5b6040805163d06ca61f60e01b8152600481018a815260248201928352604482018890526001600160a01b037f0000000000000000000000000000000000000000000000000000000000000000169263d06ca61f928c928b928b92606401846020850280828437600081840152601f19601f82011690508083019250505094505050505060006040518083038186803b15801561110757600080fd5b505afa15801561111b573d6000803e3d6000fd5b505050506040513d6000823e601f3d908101601f19168201604052602081101561114457600080fd5b8101908080516040519392919084600160201b82111561116357600080fd5b90830190602082018581111561117857600080fd5b82518660208202830111600160201b8211171561119457600080fd5b82525081516020918201928201910280838360005b838110156111c15781810151838201526020016111a9565b50505050905001604052505050915086826001845103815181106111e157fe5b602002602001015110156112265760405162461bcd60e51b8152600401808060200182810382526026815260200180614e196026913960400191505060405180910390fd5b6112a38686600081811061123657fe5b905060200201356001600160a01b0316336112898989600081811061125757fe5b905060200201356001600160a01b03168a8a600181811061127457fe5b905060200201356001600160a01b0316612849565b8560008151811061129657fe5b6020026020010151613ed2565b6112e28287878080602002602001604051908101604052809392919081815260200183836020028082843760009201919091525030925061402f915050565b7f00000000000000000000000000000000000000000000000000000000000000006001600160a01b0316632e1a7d4d8360018551038151811061132157fe5b60200260200101516040518263ffffffff1660e01b815260040180828152602001915050600060405180830381600087803b15801561135f57600080fd5b505af1158015611373573d6000803e3d6000fd5b50505050611398848360018551038151811061138b57fe5b6020026020010151613dda565b509695505050505050565b604080516307c0329d60e21b815260048101848152602482019283528351604483015283516060936001600160a01b037f00000000000000000000000000000000000000000000000000000000000000001693631f00ca7493889388939192606401906020808601910280838360005b8381101561142b578181015183820152602001611413565b50505050905001935050505060006040518083038186803b15801561144f57600080fd5b505afa158015611463573d6000803e3d6000fd5b505050506040513d6000823e601f3d908101601f19168201604052602081101561148c57600080fd5b8101908080516040519392919084600160201b8211156114ab57600080fd5b9083019060208201858111156114c057600080fd5b82518660208202830111600160201b821117156114dc57600080fd5b82525081516020918201928201910280838360005b838110156115095781810151838201526020016114f1565b50505050905001604052505050905092915050565b600080600061152d8e8e612849565b905060008761153c578c611540565b6000195b6040805163d505accf60e01b815233600482015230602482015260448101839052606481018c905260ff8a16608482015260a4810189905260c4810188905290519192506001600160a01b0384169163d505accf9160e48082019260009290919082900301818387803b1580156115b657600080fd5b505af11580156115ca573d6000803e3d6000fd5b505050506115dd8f8f8f8f8f8f8f612f3a565b809450819550505050509b509b9950505050505050505050565b6000546001600160a01b0390811691161490565b60608142811015611651576040805162461bcd60e51b81526020600482015260136024820152600080516020614ee6833981519152604482015290519081900360640190fd5b6040805163d06ca61f60e01b8152600481018a815260248201928352604482018890526001600160a01b037f0000000000000000000000000000000000000000000000000000000000000000169263d06ca61f928c928b928b92606401846020850280828437600081840152601f19601f82011690508083019250505094505050505060006040518083038186803b1580156116ec57600080fd5b505afa158015611700573d6000803e3d6000fd5b505050506040513d6000823e601f3d908101601f19168201604052602081101561172957600080fd5b8101908080516040519392919084600160201b82111561174857600080fd5b90830190602082018581111561175d57600080fd5b82518660208202830111600160201b8211171561177957600080fd5b82525081516020918201928201910280838360005b838110156117a657818101518382015260200161178e565b50505050905001604052505050915086826001845103815181106117c657fe5b6020026020010151101561180b5760405162461bcd60e51b8152600401808060200182810382526026815260200180614e196026913960400191505060405180910390fd5b61181b8686600081811061123657fe5b6113988287878080602002602001604051908101604052809392919081815260200183836020028082843760009201919091525089925061402f915050565b606081428110156118a0576040805162461bcd60e51b81526020600482015260136024820152600080516020614ee6833981519152604482015290519081900360640190fd5b6001600160a01b037f000000000000000000000000000000000000000000000000000000000000000016868660001981018181106118da57fe5b905060200201356001600160a01b03166001600160a01b031614611933576040805162461bcd60e51b81526020600482015260186024820152600080516020614e60833981519152604482015290519081900360640190fd5b604080516307c0329d60e21b8152600481018a815260248201928352604482018890526001600160a01b037f00000000000000000000000000000000000000000000000000000000000000001692631f00ca74928c928b928b92606401846020850280828437600081840152601f19601f82011690508083019250505094505050505060006040518083038186803b1580156119ce57600080fd5b505afa1580156119e2573d6000803e3d6000fd5b505050506040513d6000823e601f3d908101601f191682016040526020811015611a0b57600080fd5b8101908080516040519392919084600160201b821115611a2a57600080fd5b908301906020820185811115611a3f57600080fd5b82518660208202830111600160201b82111715611a5b57600080fd5b82525081516020918201928201910280838360005b83811015611a88578181015183820152602001611a70565b5050505090500160405250505091508682600081518110611aa557fe5b602002602001015111156112265760405162461bcd60e51b8152600401808060200182810382526022815260200180614ea16022913960400191505060405180910390fd5b6001546001600160a01b031681565b611b02336115f7565b611b53576040805162461bcd60e51b815260206004820181905260248201527f4f776e61626c653a2063616c6c6572206973206e6f7420746865206f776e6572604482015290519081900360640190fd5b600180546001600160a01b0319166001600160a01b0392909216919091179055565b600080611ba28c7f0000000000000000000000000000000000000000000000000000000000000000612849565b9050600086611bb1578b611bb5565b6000195b6040805163d505accf60e01b815233600482015230602482015260448101839052606481018b905260ff8916608482015260a4810188905260c4810187905290519192506001600160a01b0384169163d505accf9160e48082019260009290919082900301818387803b158015611c2b57600080fd5b505af1158015611c3f573d6000803e3d6000fd5b50505050611c518d8d8d8d8d8d612a64565b9d9c50505050505050505050505050565b8042811015611ca6576040805162461bcd60e51b81526020600482015260136024820152600080516020614ee6833981519152604482015290519081900360640190fd5b611cfa85856000818110611cb657fe5b905060200201356001600160a01b031633611cf488886000818110611cd757fe5b905060200201356001600160a01b03168989600181811061127457fe5b8a613ed2565b600085856000198101818110611d0c57fe5b905060200201356001600160a01b03166001600160a01b03166370a08231856040518263ffffffff1660e01b815260040180826001600160a01b0316815260200191505060206040518083038186803b158015611d6857600080fd5b505afa158015611d7c573d6000803e3d6000fd5b505050506040513d6020811015611d9257600080fd5b50516040805160208881028281018201909352888252929350611dd4929091899189918291850190849080828437600092019190915250889250614372915050565b86611e778288886000198101818110611de957fe5b905060200201356001600160a01b03166001600160a01b03166370a08231886040518263ffffffff1660e01b815260040180826001600160a01b0316815260200191505060206040518083038186803b158015611e4557600080fd5b505afa158015611e59573d6000803e3d6000fd5b505050506040513d6020811015611e6f57600080fd5b505190614833565b1015611eb45760405162461bcd60e51b8152600401808060200182810382526026815260200180614e196026913960400191505060405180910390fd5b5050505050505050565b611ec7336115f7565b611f18576040805162461bcd60e51b815260206004820181905260248201527f4f776e61626c653a2063616c6c6572206973206e6f7420746865206f776e6572604482015290519081900360640190fd5b600080546040516001600160a01b03909116907f8be0079c531659141344cd1fd0a4f28419497f9722a3daafe3b4186f6b6457e0908390a3600080546001600160a01b0319169055565b8042811015611fa6576040805162461bcd60e51b81526020600482015260136024820152600080516020614ee6833981519152604482015290519081900360640190fd5b6001600160a01b037f00000000000000000000000000000000000000000000000000000000000000001685856000198101818110611fe057fe5b905060200201356001600160a01b03166001600160a01b031614612039576040805162461bcd60e51b81526020600482015260186024820152600080516020614e60833981519152604482015290519081900360640190fd5b61204985856000818110611cb657fe5b612087858580806020026020016040519081016040528093929190818152602001838360200280828437600092019190915250309250614372915050565b60007f00000000000000000000000000000000000000000000000000000000000000006001600160a01b03166370a08231306040518263ffffffff1660e01b815260040180826001600160a01b0316815260200191505060206040518083038186803b1580156120f657600080fd5b505afa15801561210a573d6000803e3d6000fd5b505050506040513d602081101561212057600080fd5b50519050868110156121635760405162461bcd60e51b8152600401808060200182810382526026815260200180614e196026913960400191505060405180910390fd5b7f00000000000000000000000000000000000000000000000000000000000000006001600160a01b0316632e1a7d4d826040518263ffffffff1660e01b815260040180828152602001915050600060405180830381600087803b1580156121c957600080fd5b505af11580156121dd573d6000803e3d6000fd5b50505050611eb48482613dda565b60608142811015612231576040805162461bcd60e51b81526020600482015260136024820152600080516020614ee6833981519152604482015290519081900360640190fd5b7f00000000000000000000000000000000000000000000000000000000000000006001600160a01b03168686600081811061226857fe5b905060200201356001600160a01b03166001600160a01b0316146122c1576040805162461bcd60e51b81526020600482015260186024820152600080516020614e60833981519152604482015290519081900360640190fd5b6040805163d06ca61f60e01b8152346004820181815260248301938452604483018990526001600160a01b037f0000000000000000000000000000000000000000000000000000000000000000169363d06ca61f938b928b929091606401846020850280828437600081840152601f19601f82011690508083019250505094505050505060006040518083038186803b15801561235d57600080fd5b505afa158015612371573d6000803e3d6000fd5b505050506040513d6000823e601f3d908101601f19168201604052602081101561239a57600080fd5b8101908080516040519392919084600160201b8211156123b957600080fd5b9083019060208201858111156123ce57600080fd5b82518660208202830111600160201b821117156123ea57600080fd5b82525081516020918201928201910280838360005b838110156124175781810151838201526020016123ff565b505050509050016040525050509150868260018451038151811061243757fe5b6020026020010151101561247c5760405162461bcd60e51b8152600401808060200182810382526026815260200180614e196026913960400191505060405180910390fd5b7f00000000000000000000000000000000000000000000000000000000000000006001600160a01b031663d0e30db0836000815181106124b857fe5b60200260200101516040518263ffffffff1660e01b81526004016000604051808303818588803b1580156124eb57600080fd5b505af11580156124ff573d6000803e3d6000fd5b50505050507f00000000000000000000000000000000000000000000000000000000000000006001600160a01b031663a9059cbb61254388886000818110611cd757fe5b8460008151811061255057fe5b60200260200101516040518363ffffffff1660e01b815260040180836001600160a01b0316815260200182815260200192505050602060405180830381600087803b15801561259e57600080fd5b505af11580156125b2573d6000803e3d6000fd5b505050506040513d60208110156125c857600080fd5b50516125d057fe5b61260f8287878080602002602001604051908101604052809392919081815260200183836020028082843760009201919091525089925061402f915050565b5095945050505050565b6060814281101561265f576040805162461bcd60e51b81526020600482015260136024820152600080516020614ee6833981519152604482015290519081900360640190fd5b604080516307c0329d60e21b8152600481018a815260248201928352604482018890526001600160a01b037f00000000000000000000000000000000000000000000000000000000000000001692631f00ca74928c928b928b92606401846020850280828437600081840152601f19601f82011690508083019250505094505050505060006040518083038186803b1580156126fa57600080fd5b505afa15801561270e573d6000803e3d6000fd5b505050506040513d6000823e601f3d908101601f19168201604052602081101561273757600080fd5b8101908080516040519392919084600160201b82111561275657600080fd5b90830190602082018581111561276b57600080fd5b82518660208202830111600160201b8211171561278757600080fd5b82525081516020918201928201910280838360005b838110156127b457818101518382015260200161279c565b50505050905001604052505050915086826000815181106127d157fe5b6020026020010151111561180b5760405162461bcd60e51b8152600401808060200182810382526022815260200180614ea16022913960400191505060405180910390fd5b6000546001600160a01b031690565b7f000000000000000000000000000000000000000000000000000000000000000081565b60007f00000000000000000000000000000000000000000000000000000000000000006001600160a01b03166396ed28f984846040518363ffffffff1660e01b815260040180836001600160a01b03168152602001826001600160a01b031681526020019250505060206040518083038186803b1580156128c957600080fd5b505afa1580156128dd573d6000803e3d6000fd5b505050506040513d60208110156128f357600080fd5b50519392505050565b604080516399ef4b8760e01b81526004810187905260248101869052604481018590526001600160a01b038481166064830152838116608483015291516000927f000000000000000000000000000000000000000000000000000000000000000016916399ef4b879160a4808301926020929190829003018186803b15801561298457600080fd5b505afa158015612998573d6000803e3d6000fd5b505050506040513d60208110156129ae57600080fd5b50519695505050505050565b60007f00000000000000000000000000000000000000000000000000000000000000006001600160a01b031663ad615dec8585856040518463ffffffff1660e01b815260040180848152602001838152602001828152602001935050505060206040518083038186803b158015612a3057600080fd5b505afa158015612a44573d6000803e3d6000fd5b505050506040513d6020811015612a5a57600080fd5b5051949350505050565b60008142811015612aaa576040805162461bcd60e51b81526020600482015260136024820152600080516020614ee6833981519152604482015290519081900360640190fd5b612ad9887f00000000000000000000000000000000000000000000000000000000000000008989893089612f3a565b905080925050612b6288858a6001600160a01b03166370a08231306040518263ffffffff1660e01b815260040180826001600160a01b0316815260200191505060206040518083038186803b158015612b3157600080fd5b505afa158015612b45573d6000803e3d6000fd5b505050506040513d6020811015612b5b57600080fd5b5051613c70565b7f00000000000000000000000000000000000000000000000000000000000000006001600160a01b0316632e1a7d4d836040518263ffffffff1660e01b815260040180828152602001915050600060405180830381600087803b158015612bc857600080fd5b505af1158015612bdc573d6000803e3d6000fd5b505050506113988483613dda565b8042811015612c2e576040805162461bcd60e51b81526020600482015260136024820152600080516020614ee6833981519152604482015290519081900360640190fd5b7f00000000000000000000000000000000000000000000000000000000000000006001600160a01b031685856000818110612c6557fe5b905060200201356001600160a01b03166001600160a01b031614612cbe576040805162461bcd60e51b81526020600482015260186024820152600080516020614e60833981519152604482015290519081900360640190fd5b60003490507f00000000000000000000000000000000000000000000000000000000000000006001600160a01b031663d0e30db0826040518263ffffffff1660e01b81526004016000604051808303818588803b158015612d1e57600080fd5b505af1158015612d32573d6000803e3d6000fd5b50505050507f00000000000000000000000000000000000000000000000000000000000000006001600160a01b031663a9059cbb612d7688886000818110611cd757fe5b836040518363ffffffff1660e01b815260040180836001600160a01b0316815260200182815260200192505050602060405180830381600087803b158015612dbd57600080fd5b505af1158015612dd1573d6000803e3d6000fd5b505050506040513d6020811015612de757600080fd5b5051612def57fe5b600086866000198101818110612e0157fe5b905060200201356001600160a01b03166001600160a01b03166370a08231866040518263ffffffff1660e01b815260040180826001600160a01b0316815260200191505060206040518083038186803b158015612e5d57600080fd5b505afa158015612e71573d6000803e3d6000fd5b505050506040513d6020811015612e8757600080fd5b50516040805160208981028281018201909352898252929350612ec99290918a918a918291850190849080828437600092019190915250899250614372915050565b87611e778289896000198101818110612ede57fe5b905060200201356001600160a01b03166001600160a01b03166370a08231896040518263ffffffff1660e01b815260040180826001600160a01b0316815260200191505060206040518083038186803b158015611e4557600080fd5b6000808242811015612f81576040805162461bcd60e51b81526020600482015260136024820152600080516020614ee6833981519152604482015290519081900360640190fd5b6000612f8d8b8b612849565b604080516323b872dd60e01b81523360048201526001600160a01b03831660248201819052604482018d9052915192935090916323b872dd916064808201926020929091908290030181600087803b158015612fe857600080fd5b505af1158015612ffc573d6000803e3d6000fd5b505050506040513d602081101561301257600080fd5b50506040805163226bf2d160e21b81526001600160a01b03888116600483015282516000938493928616926389afcb44926024808301939282900301818787803b15801561305f57600080fd5b505af1158015613073573d6000803e3d6000fd5b505050506040513d604081101561308957600080fd5b8101908080519060200190929190805190602001909291905050509150915060007f00000000000000000000000000000000000000000000000000000000000000006001600160a01b031663544caa568f8f6040518363ffffffff1660e01b815260040180836001600160a01b03168152602001826001600160a01b0316815260200192505050604080518083038186803b15801561312757600080fd5b505afa15801561313b573d6000803e3d6000fd5b505050506040513d604081101561315157600080fd5b505190506001600160a01b038e81169082161461316f578183613172565b82825b90975095508a8710156131b65760405162461bcd60e51b8152600401808060200182810382526021815260200180614e806021913960400191505060405180910390fd5b898610156131f55760405162461bcd60e51b8152600401808060200182810382526021815260200180614e3f6021913960400191505060405180910390fd5b505050505097509795505050505050565b7f000000000000000000000000000000000000000000000000000000000000000081565b6040805163cd7290d560e01b81526004810187905260248101869052604481018590526001600160a01b038481166064830152838116608483015291516000927f0000000000000000000000000000000000000000000000000000000000000000169163cd7290d59160a4808301926020929190829003018186803b15801561298457600080fd5b6040805163d06ca61f60e01b815260048101848152602482019283528351604483015283516060937f00000000000000000000000000000000000000000000000000000000000000006001600160a01b03169363d06ca61f9388938893919260640190602080860191028083836000831561142b578181015183820152602001611413565b60008060006133668d7f0000000000000000000000000000000000000000000000000000000000000000612849565b9050600087613375578c613379565b6000195b6040805163d505accf60e01b815233600482015230602482015260448101839052606481018c905260ff8a16608482015260a4810189905260c4810188905290519192506001600160a01b0384169163d505accf9160e48082019260009290919082900301818387803b1580156133ef57600080fd5b505af1158015613403573d6000803e3d6000fd5b505050506134158e8e8e8e8e8e610e79565b909f909e509c50505050505050505050505050565b60008060008342811015613473576040805162461bcd60e51b81526020600482015260136024820152600080516020614ee6833981519152604482015290519081900360640190fd5b6134818c8c8c8c8c8c61487c565b909450925060006134928d8d612849565b90506134a08d338388613ed2565b6134ac8c338387613ed2565b806001600160a01b0316636a627842886040518263ffffffff1660e01b815260040180826001600160a01b03168152602001915050602060405180830381600087803b1580156134fb57600080fd5b505af115801561350f573d6000803e3d6000fd5b505050506040513d602081101561352557600080fd5b5051949d939c50939a509198505050505050505050565b613545336115f7565b613596576040805162461bcd60e51b815260206004820181905260248201527f4f776e61626c653a2063616c6c6572206973206e6f7420746865206f776e6572604482015290519081900360640190fd5b61359f81614cbb565b50565b600080600083428110156135eb576040805162461bcd60e51b81526020600482015260136024820152600080516020614ee6833981519152604482015290519081900360640190fd5b6136198a7f00000000000000000000000000000000000000000000000000000000000000008b348c8c61487c565b9094509250600061364a8b7f0000000000000000000000000000000000000000000000000000000000000000612849565b90506136588b338388613ed2565b7f00000000000000000000000000000000000000000000000000000000000000006001600160a01b031663d0e30db0856040518263ffffffff1660e01b81526004016000604051808303818588803b1580156136b357600080fd5b505af11580156136c7573d6000803e3d6000fd5b50505050507f00000000000000000000000000000000000000000000000000000000000000006001600160a01b031663a9059cbb82866040518363ffffffff1660e01b815260040180836001600160a01b0316815260200182815260200192505050602060405180830381600087803b15801561374357600080fd5b505af1158015613757573d6000803e3d6000fd5b505050506040513d602081101561376d57600080fd5b505161377557fe5b806001600160a01b0316636a627842886040518263ffffffff1660e01b815260040180826001600160a01b03168152602001915050602060405180830381600087803b1580156137c457600080fd5b505af11580156137d8573d6000803e3d6000fd5b505050506040513d60208110156137ee57600080fd5b50519250348410156138065761380633853403613dda565b505096509650969350505050565b6060814281101561385a576040805162461bcd60e51b81526020600482015260136024820152600080516020614ee6833981519152604482015290519081900360640190fd5b7f00000000000000000000000000000000000000000000000000000000000000006001600160a01b03168686600081811061389157fe5b905060200201356001600160a01b03166001600160a01b0316146138ea576040805162461bcd60e51b81526020600482015260186024820152600080516020614e60833981519152604482015290519081900360640190fd5b604080516307c0329d60e21b81526004810189815260248201928352604482018890526001600160a01b037f00000000000000000000000000000000000000000000000000000000000000001692631f00ca74928b928b928b92606401846020850280828437600081840152601f19601f82011690508083019250505094505050505060006040518083038186803b15801561398557600080fd5b505afa158015613999573d6000803e3d6000fd5b505050506040513d6000823e601f3d908101601f1916820160405260208110156139c257600080fd5b8101908080516040519392919084600160201b8211156139e157600080fd5b9083019060208201858111156139f657600080fd5b82518660208202830111600160201b82111715613a1257600080fd5b82525081516020918201928201910280838360005b83811015613a3f578181015183820152602001613a27565b5050505090500160405250505091503482600081518110613a5c57fe5b60200260200101511115613aa15760405162461bcd60e51b8152600401808060200182810382526022815260200180614ea16022913960400191505060405180910390fd5b7f00000000000000000000000000000000000000000000000000000000000000006001600160a01b031663d0e30db083600081518110613add57fe5b60200260200101516040518263ffffffff1660e01b81526004016000604051808303818588803b158015613b1057600080fd5b505af1158015613b24573d6000803e3d6000fd5b50505050507f00000000000000000000000000000000000000000000000000000000000000006001600160a01b031663a9059cbb613b6888886000818110611cd757fe5b84600081518110613b7557fe5b60200260200101516040518363ffffffff1660e01b815260040180836001600160a01b0316815260200182815260200192505050602060405180830381600087803b158015613bc357600080fd5b505af1158015613bd7573d6000803e3d6000fd5b505050506040513d6020811015613bed57600080fd5b5051613bf557fe5b613c348287878080602002602001604051908101604052809392919081815260200183836020028082843760009201919091525089925061402f915050565b81600081518110613c4157fe5b602002602001015134111561260f5761260f3383600081518110613c6157fe5b60200260200101513403613dda565b604080516001600160a01b038481166024830152604480830185905283518084039091018152606490920183526020820180516001600160e01b031663a9059cbb60e01b178152925182516000946060949389169392918291908083835b60208310613ced5780518252601f199092019160209182019101613cce565b6001836020036101000a0380198251168184511680821785525050505050509050019150506000604051808303816000865af19150503d8060008114613d4f576040519150601f19603f3d011682016040523d82523d6000602084013e613d54565b606091505b5091509150818015613d82575080511580613d825750808060200190516020811015613d7f57600080fd5b50515b613dd3576040805162461bcd60e51b815260206004820152601f60248201527f5472616e7366657248656c7065723a205452414e534645525f4641494c454400604482015290519081900360640190fd5b5050505050565b604080516000808252602082019092526001600160a01b0384169083906040518082805190602001908083835b60208310613e265780518252601f199092019160209182019101613e07565b6001836020036101000a03801982511681845116808217855250505050505090500191505060006040518083038185875af1925050503d8060008114613e88576040519150601f19603f3d011682016040523d82523d6000602084013e613e8d565b606091505b5050905080613ecd5760405162461bcd60e51b8152600401808060200182810382526023815260200180614ec36023913960400191505060405180910390fd5b505050565b604080516001600160a01b0385811660248301528481166044830152606480830185905283518084039091018152608490920183526020820180516001600160e01b03166323b872dd60e01b17815292518251600094606094938a169392918291908083835b60208310613f575780518252601f199092019160209182019101613f38565b6001836020036101000a0380198251168184511680821785525050505050509050019150506000604051808303816000865af19150503d8060008114613fb9576040519150601f19603f3d011682016040523d82523d6000602084013e613fbe565b606091505b5091509150818015613fec575080511580613fec5750808060200190516020811015613fe957600080fd5b50515b6140275760405162461bcd60e51b8152600401808060200182810382526024815260200180614f066024913960400191505060405180910390fd5b505050505050565b60005b600183510381101561436c5760008084838151811061404d57fe5b602002602001015185846001018151811061406457fe5b60200260200101519150915060007f00000000000000000000000000000000000000000000000000000000000000006001600160a01b031663544caa5684846040518363ffffffff1660e01b815260040180836001600160a01b03168152602001826001600160a01b0316815260200192505050604080518083038186803b1580156140ef57600080fd5b505afa158015614103573d6000803e3d6000fd5b505050506040513d604081101561411957600080fd5b5051875190915060009088906001870190811061413257fe5b60209081029190910101516001549091506001600160a01b0316156141e2576001546040805163152cf14360e31b81523360048201526001600160a01b0387811660248301528681166044830152606482018590529151919092169163a9678a189160848083019260209291908290030181600087803b1580156141b557600080fd5b505af11580156141c9573d6000803e3d6000fd5b505050506040513d60208110156141df57600080fd5b50505b600080836001600160a01b0316866001600160a01b0316146142065782600061420a565b6000835b91509150600060028a510388106142215788614241565b614241868b8a6002018151811061423457fe5b6020026020010151612849565b905061424d8787612849565b6001600160a01b031663022c0d9f84848460006040519080825280601f01601f19166020018201604052801561428a576020820181803683370190505b506040518563ffffffff1660e01b815260040180858152602001848152602001836001600160a01b0316815260200180602001828103825283818151815260200191508051906020019080838360005b838110156142f25781810151838201526020016142da565b50505050905090810190601f16801561431f5780820380516001836020036101000a031916815260200191505b5095505050505050600060405180830381600087803b15801561434157600080fd5b505af1158015614355573d6000803e3d6000fd5b505060019099019850614032975050505050505050565b50505050565b60005b6001835103811015613ecd5760008084838151811061439057fe5b60200260200101518584600101815181106143a757fe5b60200260200101519150915060007f00000000000000000000000000000000000000000000000000000000000000006001600160a01b031663544caa5684846040518363ffffffff1660e01b815260040180836001600160a01b03168152602001826001600160a01b0316815260200192505050604080518083038186803b15801561443257600080fd5b505afa158015614446573d6000803e3d6000fd5b505050506040513d604081101561445c57600080fd5b50519050600061446c8484612849565b9050600080600080846001600160a01b0316630902f1ac6040518163ffffffff1660e01b815260040160606040518083038186803b1580156144ad57600080fd5b505afa1580156144c1573d6000803e3d6000fd5b505050506040513d60608110156144d757600080fd5b5080516020909101516dffffffffffffffffffffffffffff91821693501690506000806001600160a01b038a811690891614614514578284614517565b83835b9150915061456c828b6001600160a01b03166370a082318a6040518263ffffffff1660e01b815260040180826001600160a01b0316815260200191505060206040518083038186803b158015611e4557600080fd5b95507f00000000000000000000000000000000000000000000000000000000000000006001600160a01b03166399ef4b878784848e8e6040518663ffffffff1660e01b815260040180868152602001858152602001848152602001836001600160a01b03168152602001826001600160a01b031681526020019550505050505060206040518083038186803b15801561460457600080fd5b505afa158015614618573d6000803e3d6000fd5b505050506040513d602081101561462e57600080fd5b50516001549095506001600160a01b03161593506146db92505050576001546040805163152cf14360e31b81523360048201526001600160a01b0389811660248301528881166044830152606482018590529151919092169163a9678a189160848083019260209291908290030181600087803b1580156146ae57600080fd5b505af11580156146c2573d6000803e3d6000fd5b505050506040513d60208110156146d857600080fd5b50505b600080856001600160a01b0316886001600160a01b0316146146ff57826000614703565b6000835b91509150600060028c51038a1061471a578a61472d565b61472d888d8c6002018151811061423457fe5b604080516000808252602082019283905263022c0d9f60e01b835260248201878152604483018790526001600160a01b038086166064850152608060848501908152845160a48601819052969750908c169563022c0d9f958a958a958a9591949193919260c486019290918190849084905b838110156147b757818101518382015260200161479f565b50505050905090810190601f1680156147e45780820380516001836020036101000a031916815260200191505b5095505050505050600060405180830381600087803b15801561480657600080fd5b505af115801561481a573d6000803e3d6000fd5b50506001909b019a506143759950505050505050505050565b600061487583836040518060400160405280601e81526020017f536166654d6174683a207375627472616374696f6e206f766572666c6f770000815250614d5b565b9392505050565b60008060006001600160a01b03167f00000000000000000000000000000000000000000000000000000000000000006001600160a01b031663e6a439058a8a6040518363ffffffff1660e01b815260040180836001600160a01b03168152602001826001600160a01b031681526020019250505060206040518083038186803b15801561490857600080fd5b505afa15801561491c573d6000803e3d6000fd5b505050506040513d602081101561493257600080fd5b50516001600160a01b031614156149f0577f00000000000000000000000000000000000000000000000000000000000000006001600160a01b031663c9c6539689896040518363ffffffff1660e01b815260040180836001600160a01b03168152602001826001600160a01b0316815260200192505050602060405180830381600087803b1580156149c357600080fd5b505af11580156149d7573d6000803e3d6000fd5b505050506040513d60208110156149ed57600080fd5b50505b6000807f00000000000000000000000000000000000000000000000000000000000000006001600160a01b031663d52bb6f48b8b6040518363ffffffff1660e01b815260040180836001600160a01b03168152602001826001600160a01b0316815260200192505050604080518083038186803b158015614a7057600080fd5b505afa158015614a84573d6000803e3d6000fd5b505050506040513d6040811015614a9a57600080fd5b508051602090910151909250905081158015614ab4575080155b15614ac457879350869250614cae565b60007f00000000000000000000000000000000000000000000000000000000000000006001600160a01b031663ad615dec8a85856040518463ffffffff1660e01b815260040180848152602001838152602001828152602001935050505060206040518083038186803b158015614b3a57600080fd5b505afa158015614b4e573d6000803e3d6000fd5b505050506040513d6020811015614b6457600080fd5b50519050878111614bb95785811015614bae5760405162461bcd60e51b8152600401808060200182810382526021815260200180614e3f6021913960400191505060405180910390fd5b889450925082614cac565b60007f00000000000000000000000000000000000000000000000000000000000000006001600160a01b031663ad615dec8a85876040518463ffffffff1660e01b815260040180848152602001838152602001828152602001935050505060206040518083038186803b158015614c2f57600080fd5b505afa158015614c43573d6000803e3d6000fd5b505050506040513d6020811015614c5957600080fd5b5051905089811115614c6757fe5b87811015614ca65760405162461bcd60e51b8152600401808060200182810382526021815260200180614e806021913960400191505060405180910390fd5b94508793505b505b5050965096945050505050565b6001600160a01b038116614d005760405162461bcd60e51b8152600401808060200182810382526026815260200180614df36026913960400191505060405180910390fd5b600080546040516001600160a01b03808516939216917f8be0079c531659141344cd1fd0a4f28419497f9722a3daafe3b4186f6b6457e091a3600080546001600160a01b0319166001600160a01b0392909216919091179055565b60008184841115614dea5760405162461bcd60e51b81526004018080602001828103825283818151815260200191508051906020019080838360005b83811015614daf578181015183820152602001614d97565b50505050905090810190601f168015614ddc5780820380516001836020036101000a031916815260200191505b509250505060405180910390fd5b50505090039056fe4f776e61626c653a206e6577206f776e657220697320746865207a65726f20616464726573734d646578526f757465723a20494e53554646494349454e545f4f55545055545f414d4f554e544d646578526f757465723a20494e53554646494349454e545f425f414d4f554e544d646578526f757465723a20494e56414c49445f5041544800000000000000004d646578526f757465723a20494e53554646494349454e545f415f414d4f554e544d646578526f757465723a204558434553534956455f494e5055545f414d4f554e545472616e7366657248656c7065723a204554485f5452414e534645525f4641494c45444d646578526f757465723a2045585049524544000000000000000000000000005472616e7366657248656c7065723a205452414e534645525f46524f4d5f4641494c4544a2646970667358221220f7c728474a2ed6bea06d47e93f6830454ead415971ddc79af636e34d72adb29964736f6c63430007040033",
  "devdoc": {
    "kind": "dev",
    "methods": {},
    "version": 1
  },
  "userdoc": {
    "kind": "user",
    "methods": {},
    "version": 1
  },
  "storageLayout": {
    "storage": [
      {
        "astId": 1734,
        "contract": "contracts/mocks/MdxRouterMock.sol:MdexRouter",
        "label": "_owner",
        "offset": 0,
        "slot": "0",
        "type": "t_address"
      },
      {
        "astId": 1859,
        "contract": "contracts/mocks/MdxRouterMock.sol:MdexRouter",
        "label": "swapMining",
        "offset": 0,
        "slot": "1",
        "type": "t_address"
      }
    ],
    "types": {
      "t_address": {
        "encoding": "inplace",
        "label": "address",
        "numberOfBytes": "20"
      }
    }
  }
}