{
  "address": "0xc4f6E2E782339Da6cB4e27214D42D6A60B4EF13E",
  "abi": [
    {
      "inputs": [
        {
          "internalType": "contract CardSpec",
          "name": "_spec",
          "type": "address"
        },
        {
          "internalType": "address",
          "name": "_dev",
          "type": "address"
        }
      ],
      "stateMutability": "nonpayable",
      "type": "constructor"
    },
    {
      "anonymous": false,
      "inputs": [
        {
          "indexed": true,
          "internalType": "address",
          "name": "owner",
          "type": "address"
        },
        {
          "indexed": true,
          "internalType": "address",
          "name": "approved",
          "type": "address"
        },
        {
          "indexed": true,
          "internalType": "uint256",
          "name": "tokenId",
          "type": "uint256"
        }
      ],
      "name": "Approval",
      "type": "event"
    },
    {
      "anonymous": false,
      "inputs": [
        {
          "indexed": true,
          "internalType": "address",
          "name": "owner",
          "type": "address"
        },
        {
          "indexed": true,
          "internalType": "address",
          "name": "operator",
          "type": "address"
        },
        {
          "indexed": false,
          "internalType": "bool",
          "name": "approved",
          "type": "bool"
        }
      ],
      "name": "ApprovalForAll",
      "type": "event"
    },
    {
      "anonymous": false,
      "inputs": [
        {
          "indexed": false,
          "internalType": "address",
          "name": "account",
          "type": "address"
        }
      ],
      "name": "Paused",
      "type": "event"
    },
    {
      "anonymous": false,
      "inputs": [
        {
          "indexed": true,
          "internalType": "bytes32",
          "name": "role",
          "type": "bytes32"
        },
        {
          "indexed": true,
          "internalType": "bytes32",
          "name": "previousAdminRole",
          "type": "bytes32"
        },
        {
          "indexed": true,
          "internalType": "bytes32",
          "name": "newAdminRole",
          "type": "bytes32"
        }
      ],
      "name": "RoleAdminChanged",
      "type": "event"
    },
    {
      "anonymous": false,
      "inputs": [
        {
          "indexed": true,
          "internalType": "bytes32",
          "name": "role",
          "type": "bytes32"
        },
        {
          "indexed": true,
          "internalType": "address",
          "name": "account",
          "type": "address"
        },
        {
          "indexed": true,
          "internalType": "address",
          "name": "sender",
          "type": "address"
        }
      ],
      "name": "RoleGranted",
      "type": "event"
    },
    {
      "anonymous": false,
      "inputs": [
        {
          "indexed": true,
          "internalType": "bytes32",
          "name": "role",
          "type": "bytes32"
        },
        {
          "indexed": true,
          "internalType": "address",
          "name": "account",
          "type": "address"
        },
        {
          "indexed": true,
          "internalType": "address",
          "name": "sender",
          "type": "address"
        }
      ],
      "name": "RoleRevoked",
      "type": "event"
    },
    {
      "anonymous": false,
      "inputs": [
        {
          "indexed": true,
          "internalType": "address",
          "name": "from",
          "type": "address"
        },
        {
          "indexed": true,
          "internalType": "address",
          "name": "to",
          "type": "address"
        },
        {
          "indexed": true,
          "internalType": "uint256",
          "name": "tokenId",
          "type": "uint256"
        }
      ],
      "name": "Transfer",
      "type": "event"
    },
    {
      "anonymous": false,
      "inputs": [
        {
          "indexed": false,
          "internalType": "address",
          "name": "account",
          "type": "address"
        }
      ],
      "name": "Unpaused",
      "type": "event"
    },
    {
      "inputs": [],
      "name": "ADMIN_ROLE",
      "outputs": [
        {
          "internalType": "bytes32",
          "name": "",
          "type": "bytes32"
        }
      ],
      "stateMutability": "view",
      "type": "function"
    },
    {
      "inputs": [],
      "name": "DEFAULT_ADMIN_ROLE",
      "outputs": [
        {
          "internalType": "bytes32",
          "name": "",
          "type": "bytes32"
        }
      ],
      "stateMutability": "view",
      "type": "function"
    },
    {
      "inputs": [],
      "name": "MINT_ROLE",
      "outputs": [
        {
          "internalType": "bytes32",
          "name": "",
          "type": "bytes32"
        }
      ],
      "stateMutability": "view",
      "type": "function"
    },
    {
      "inputs": [],
      "name": "PAUSED_ROLE",
      "outputs": [
        {
          "internalType": "bytes32",
          "name": "",
          "type": "bytes32"
        }
      ],
      "stateMutability": "view",
      "type": "function"
    },
    {
      "inputs": [],
      "name": "UPDATE_TOKEN_URI_ROLE",
      "outputs": [
        {
          "internalType": "bytes32",
          "name": "",
          "type": "bytes32"
        }
      ],
      "stateMutability": "view",
      "type": "function"
    },
    {
      "inputs": [
        {
          "internalType": "address",
          "name": "to",
          "type": "address"
        },
        {
          "internalType": "uint256",
          "name": "tokenId",
          "type": "uint256"
        }
      ],
      "name": "approve",
      "outputs": [],
      "stateMutability": "nonpayable",
      "type": "function"
    },
    {
      "inputs": [
        {
          "internalType": "address",
          "name": "to",
          "type": "address"
        },
        {
          "internalType": "uint256[]",
          "name": "tokenIds",
          "type": "uint256[]"
        }
      ],
      "name": "approveBulk",
      "outputs": [],
      "stateMutability": "nonpayable",
      "type": "function"
    },
    {
      "inputs": [
        {
          "internalType": "address",
          "name": "owner",
          "type": "address"
        }
      ],
      "name": "balanceOf",
      "outputs": [
        {
          "internalType": "uint256",
          "name": "",
          "type": "uint256"
        }
      ],
      "stateMutability": "view",
      "type": "function"
    },
    {
      "inputs": [],
      "name": "baseURI",
      "outputs": [
        {
          "internalType": "string",
          "name": "",
          "type": "string"
        }
      ],
      "stateMutability": "view",
      "type": "function"
    },
    {
      "inputs": [
        {
          "internalType": "uint256",
          "name": "tokenId",
          "type": "uint256"
        }
      ],
      "name": "burn",
      "outputs": [],
      "stateMutability": "nonpayable",
      "type": "function"
    },
    {
      "inputs": [
        {
          "internalType": "uint256",
          "name": "tokenId",
          "type": "uint256"
        }
      ],
      "name": "getApproved",
      "outputs": [
        {
          "internalType": "address",
          "name": "",
          "type": "address"
        }
      ],
      "stateMutability": "view",
      "type": "function"
    },
    {
      "inputs": [
        {
          "internalType": "uint256[]",
          "name": "tokenIds",
          "type": "uint256[]"
        }
      ],
      "name": "getApprovedBulk",
      "outputs": [
        {
          "internalType": "address[]",
          "name": "",
          "type": "address[]"
        }
      ],
      "stateMutability": "view",
      "type": "function"
    },
    {
      "inputs": [
        {
          "internalType": "address",
          "name": "from",
          "type": "address"
        },
        {
          "internalType": "uint256",
          "name": "identity",
          "type": "uint256"
        },
        {
          "internalType": "uint256",
          "name": "index",
          "type": "uint256"
        }
      ],
      "name": "getIdentityTokenAt",
      "outputs": [
        {
          "internalType": "uint256",
          "name": "",
          "type": "uint256"
        }
      ],
      "stateMutability": "view",
      "type": "function"
    },
    {
      "inputs": [
        {
          "internalType": "address",
          "name": "from",
          "type": "address"
        },
        {
          "internalType": "uint256",
          "name": "identity",
          "type": "uint256"
        }
      ],
      "name": "getIdentityTokenLength",
      "outputs": [
        {
          "internalType": "uint256",
          "name": "",
          "type": "uint256"
        }
      ],
      "stateMutability": "view",
      "type": "function"
    },
    {
      "inputs": [
        {
          "internalType": "bytes32",
          "name": "role",
          "type": "bytes32"
        }
      ],
      "name": "getRoleAdmin",
      "outputs": [
        {
          "internalType": "bytes32",
          "name": "",
          "type": "bytes32"
        }
      ],
      "stateMutability": "view",
      "type": "function"
    },
    {
      "inputs": [
        {
          "internalType": "bytes32",
          "name": "role",
          "type": "bytes32"
        },
        {
          "internalType": "uint256",
          "name": "index",
          "type": "uint256"
        }
      ],
      "name": "getRoleMember",
      "outputs": [
        {
          "internalType": "address",
          "name": "",
          "type": "address"
        }
      ],
      "stateMutability": "view",
      "type": "function"
    },
    {
      "inputs": [
        {
          "internalType": "bytes32",
          "name": "role",
          "type": "bytes32"
        }
      ],
      "name": "getRoleMemberCount",
      "outputs": [
        {
          "internalType": "uint256",
          "name": "",
          "type": "uint256"
        }
      ],
      "stateMutability": "view",
      "type": "function"
    },
    {
      "inputs": [
        {
          "internalType": "bytes32",
          "name": "role",
          "type": "bytes32"
        },
        {
          "internalType": "address",
          "name": "account",
          "type": "address"
        }
      ],
      "name": "grantRole",
      "outputs": [],
      "stateMutability": "nonpayable",
      "type": "function"
    },
    {
      "inputs": [
        {
          "internalType": "bytes32",
          "name": "role",
          "type": "bytes32"
        },
        {
          "internalType": "address",
          "name": "account",
          "type": "address"
        }
      ],
      "name": "hasRole",
      "outputs": [
        {
          "internalType": "bool",
          "name": "",
          "type": "bool"
        }
      ],
      "stateMutability": "view",
      "type": "function"
    },
    {
      "inputs": [
        {
          "internalType": "address",
          "name": "owner",
          "type": "address"
        },
        {
          "internalType": "address",
          "name": "operator",
          "type": "address"
        }
      ],
      "name": "isApprovedForAll",
      "outputs": [
        {
          "internalType": "bool",
          "name": "",
          "type": "bool"
        }
      ],
      "stateMutability": "view",
      "type": "function"
    },
    {
      "inputs": [
        {
          "internalType": "address",
          "name": "to",
          "type": "address"
        },
        {
          "internalType": "uint256",
          "name": "tokenPreId",
          "type": "uint256"
        }
      ],
      "name": "mint",
      "outputs": [
        {
          "internalType": "uint256",
          "name": "tokenId",
          "type": "uint256"
        }
      ],
      "stateMutability": "nonpayable",
      "type": "function"
    },
    {
      "inputs": [
        {
          "internalType": "address",
          "name": "to",
          "type": "address"
        },
        {
          "internalType": "uint256",
          "name": "cardId",
          "type": "uint256"
        }
      ],
      "name": "mintCard",
      "outputs": [
        {
          "internalType": "uint256",
          "name": "tokenId",
          "type": "uint256"
        }
      ],
      "stateMutability": "nonpayable",
      "type": "function"
    },
    {
      "inputs": [],
      "name": "name",
      "outputs": [
        {
          "internalType": "string",
          "name": "",
          "type": "string"
        }
      ],
      "stateMutability": "view",
      "type": "function"
    },
    {
      "inputs": [
        {
          "internalType": "uint256",
          "name": "tokenId",
          "type": "uint256"
        }
      ],
      "name": "ownerOf",
      "outputs": [
        {
          "internalType": "address",
          "name": "",
          "type": "address"
        }
      ],
      "stateMutability": "view",
      "type": "function"
    },
    {
      "inputs": [],
      "name": "pause",
      "outputs": [],
      "stateMutability": "nonpayable",
      "type": "function"
    },
    {
      "inputs": [],
      "name": "paused",
      "outputs": [
        {
          "internalType": "bool",
          "name": "",
          "type": "bool"
        }
      ],
      "stateMutability": "view",
      "type": "function"
    },
    {
      "inputs": [
        {
          "internalType": "bytes32",
          "name": "role",
          "type": "bytes32"
        },
        {
          "internalType": "address",
          "name": "account",
          "type": "address"
        }
      ],
      "name": "renounceRole",
      "outputs": [],
      "stateMutability": "nonpayable",
      "type": "function"
    },
    {
      "inputs": [
        {
          "internalType": "bytes32",
          "name": "role",
          "type": "bytes32"
        },
        {
          "internalType": "address",
          "name": "account",
          "type": "address"
        }
      ],
      "name": "revokeRole",
      "outputs": [],
      "stateMutability": "nonpayable",
      "type": "function"
    },
    {
      "inputs": [
        {
          "internalType": "address",
          "name": "to",
          "type": "address"
        },
        {
          "internalType": "uint256",
          "name": "tokenPreId",
          "type": "uint256"
        },
        {
          "internalType": "bytes",
          "name": "_data",
          "type": "bytes"
        }
      ],
      "name": "safeMint",
      "outputs": [
        {
          "internalType": "uint256",
          "name": "tokenId",
          "type": "uint256"
        }
      ],
      "stateMutability": "nonpayable",
      "type": "function"
    },
    {
      "inputs": [
        {
          "internalType": "address",
          "name": "from",
          "type": "address"
        },
        {
          "internalType": "address",
          "name": "to",
          "type": "address"
        },
        {
          "internalType": "uint256",
          "name": "tokenId",
          "type": "uint256"
        }
      ],
      "name": "safeTransferFrom",
      "outputs": [],
      "stateMutability": "nonpayable",
      "type": "function"
    },
    {
      "inputs": [
        {
          "internalType": "address",
          "name": "from",
          "type": "address"
        },
        {
          "internalType": "address",
          "name": "to",
          "type": "address"
        },
        {
          "internalType": "uint256",
          "name": "tokenId",
          "type": "uint256"
        },
        {
          "internalType": "bytes",
          "name": "_data",
          "type": "bytes"
        }
      ],
      "name": "safeTransferFrom",
      "outputs": [],
      "stateMutability": "nonpayable",
      "type": "function"
    },
    {
      "inputs": [
        {
          "internalType": "address",
          "name": "operator",
          "type": "address"
        },
        {
          "internalType": "bool",
          "name": "approved",
          "type": "bool"
        }
      ],
      "name": "setApprovalForAll",
      "outputs": [],
      "stateMutability": "nonpayable",
      "type": "function"
    },
    {
      "inputs": [
        {
          "internalType": "string",
          "name": "baseURI",
          "type": "string"
        }
      ],
      "name": "setBaseURI",
      "outputs": [],
      "stateMutability": "nonpayable",
      "type": "function"
    },
    {
      "inputs": [
        {
          "internalType": "uint256",
          "name": "tokenId",
          "type": "uint256"
        },
        {
          "internalType": "string",
          "name": "tokenURI",
          "type": "string"
        }
      ],
      "name": "setTokenURI",
      "outputs": [],
      "stateMutability": "nonpayable",
      "type": "function"
    },
    {
      "inputs": [],
      "name": "spec",
      "outputs": [
        {
          "internalType": "contract CardSpec",
          "name": "",
          "type": "address"
        }
      ],
      "stateMutability": "view",
      "type": "function"
    },
    {
      "inputs": [
        {
          "internalType": "bytes4",
          "name": "interfaceId",
          "type": "bytes4"
        }
      ],
      "name": "supportsInterface",
      "outputs": [
        {
          "internalType": "bool",
          "name": "",
          "type": "bool"
        }
      ],
      "stateMutability": "view",
      "type": "function"
    },
    {
      "inputs": [],
      "name": "symbol",
      "outputs": [
        {
          "internalType": "string",
          "name": "",
          "type": "string"
        }
      ],
      "stateMutability": "view",
      "type": "function"
    },
    {
      "inputs": [
        {
          "internalType": "uint256",
          "name": "index",
          "type": "uint256"
        }
      ],
      "name": "tokenByIndex",
      "outputs": [
        {
          "internalType": "uint256",
          "name": "",
          "type": "uint256"
        }
      ],
      "stateMutability": "view",
      "type": "function"
    },
    {
      "inputs": [],
      "name": "tokenIndex",
      "outputs": [
        {
          "internalType": "uint256",
          "name": "",
          "type": "uint256"
        }
      ],
      "stateMutability": "view",
      "type": "function"
    },
    {
      "inputs": [
        {
          "internalType": "address",
          "name": "owner",
          "type": "address"
        },
        {
          "internalType": "uint256",
          "name": "index",
          "type": "uint256"
        }
      ],
      "name": "tokenOfOwnerByIndex",
      "outputs": [
        {
          "internalType": "uint256",
          "name": "",
          "type": "uint256"
        }
      ],
      "stateMutability": "view",
      "type": "function"
    },
    {
      "inputs": [
        {
          "internalType": "uint256",
          "name": "tokenId",
          "type": "uint256"
        }
      ],
      "name": "tokenURI",
      "outputs": [
        {
          "internalType": "string",
          "name": "",
          "type": "string"
        }
      ],
      "stateMutability": "view",
      "type": "function"
    },
    {
      "inputs": [],
      "name": "totalSupply",
      "outputs": [
        {
          "internalType": "uint256",
          "name": "",
          "type": "uint256"
        }
      ],
      "stateMutability": "view",
      "type": "function"
    },
    {
      "inputs": [
        {
          "internalType": "address",
          "name": "from",
          "type": "address"
        },
        {
          "internalType": "address",
          "name": "to",
          "type": "address"
        },
        {
          "internalType": "uint256",
          "name": "tokenId",
          "type": "uint256"
        }
      ],
      "name": "transferFrom",
      "outputs": [],
      "stateMutability": "nonpayable",
      "type": "function"
    },
    {
      "inputs": [],
      "name": "unpause",
      "outputs": [],
      "stateMutability": "nonpayable",
      "type": "function"
    }
  ],
  "transactionHash": "0xdaf80dda7fa3693fb732e7e320e2929c98931d5a26a79d8326ff786148855f33",
  "args": [
    "0x1E9c6F7baF1Ed882B5276568879b44Dc585ef2d5",
    "0x71b29689f42a50Ae234f1415C9158Adc458c2348"
  ],
  "solcInputHash": "24858961e066203ddb505a514341a5fd",
  "bytecode": "0x60806040523480156200001157600080fd5b5060405162003a4e38038062003a4e833981810160405260408110156200003757600080fd5b508051602091820151604080518082018252601a81527f6e6f6e2d66756e6769626c6520436172746f6f6e20546f6b656e00000000000081860152815180830190925260048252634e43544f60e01b9482019490945291929091620000a36301ffc9a760e01b62000200565b8151620000b8906006906020850190620003ed565b508051620000ce906007906020840190620003ed565b50620000e16380ac58cd60e01b62000200565b620000f3635b5e139f60e01b62000200565b6200010563780e9d6360e01b62000200565b5050600a805460ff19169055600d80546001600160a01b0319166001600160a01b0384161790556200014760008051602062003a2e8339815191528262000285565b620001827fcf1e7e3bee0e3167872271ce5d51dcec9a6ad0ff65a358daa0e5988775cca4e960008051602062003a2e83398151915262000295565b620001bd7f154c00819833dac601ee5ddded6fda79d9d8b506b911b3dbd54cdb95fe6c368660008051602062003a2e83398151915262000295565b620001f87f375af72e98626b8c328e8df43813527285e7872665324182365ef80f7ae9a3d260008051602062003a2e83398151915262000295565b505062000499565b6001600160e01b0319808216141562000260576040805162461bcd60e51b815260206004820152601c60248201527f4552433136353a20696e76616c696420696e7465726661636520696400000000604482015290519081900360640190fd5b6001600160e01b0319166000908152602081905260409020805460ff19166001179055565b620002918282620002e7565b5050565b6000828152600b6020526040808220600201549051839285917fbd79b86ffe0ab8e8776151514217cd7cacd52c909f66475c3af44e129f0b00ff9190a46000918252600b602052604090912060020155565b6000828152600b602090815260409091206200030e91839062001fa262000362821b17901c565b1562000291576200031e62000382565b6001600160a01b0316816001600160a01b0316837f2f8788117e7eff1d82e926ec794901d17c78024a50270940304540a733656f0d60405160405180910390a45050565b600062000379836001600160a01b03841662000386565b90505b92915050565b3390565b6000620003948383620003d5565b620003cc575081546001818101845560008481526020808220909301849055845484825282860190935260409020919091556200037c565b5060006200037c565b60009081526001919091016020526040902054151590565b828054600181600116156101000203166002900490600052602060002090601f01602090048101928262000425576000855562000470565b82601f106200044057805160ff191683800117855562000470565b8280016001018555821562000470579182015b828111156200047057825182559160200191906001019062000453565b506200047e92915062000482565b5090565b5b808211156200047e576000815560010162000483565b61358580620004a96000396000f3fe608060405234801561001057600080fd5b50600436106102745760003560e01c806370a0823111610151578063ae57937b116100c3578063d547741f11610087578063d547741f14610b2d578063d55f927314610b59578063e985e9c514610b61578063e9a9c85014610b8f578063f2a2477014610b97578063f448c9bc14610bc957610274565b8063ae57937b146109fb578063b88d4fde14610a03578063c16199da14610ac7578063c87b56dd14610af3578063ca15c87314610b1057610274565b80638832e6e3116101155780638832e6e3146108b55780639010d07c1461096e57806391d148541461099157806395d89b41146109bd578063a217fddf146109c5578063a22cb465146109cd57610274565b806370a0823114610786578063724e68ed146107ac57806375b238fc1461089d5780637e622c56146108a55780638456cb59146108ad57610274565b806336568abe116101ea5780634f6ccce7116101ae5780634f6ccce71461066c57806355f804b3146106895780635c975abb1461072d5780636352211e1461073557806364e2c857146107525780636c0360eb1461077e57610274565b806336568abe146105b95780633f4ba83a146105e557806340c10f19146105ed57806342842e0e1461061957806342966c681461064f57610274565b8063162094c41161023c578063162094c41461044957806318160ddd146104f457806323b872dd1461050e578063248a9ca3146105445780632f2ff15d146105615780632f745c591461058d57610274565b806301ffc9a7146102795780630260a4ea146102b457806306fdde0314610367578063081812fc146103e4578063095ea7b31461041d575b600080fd5b6102a06004803603602081101561028f57600080fd5b50356001600160e01b031916610bd1565b604080519115158252519081900360200190f35b610365600480360360408110156102ca57600080fd5b6001600160a01b038235169190810190604081016020820135600160201b8111156102f457600080fd5b82018360208201111561030657600080fd5b803590602001918460208302840111600160201b8311171561032757600080fd5b919080806020026020016040519081016040528093929190818152602001838360200280828437600092019190915250929550610bf4945050505050565b005b61036f610c2a565b6040805160208082528351818301528351919283929083019185019080838360005b838110156103a9578181015183820152602001610391565b50505050905090810190601f1680156103d65780820380516001836020036101000a031916815260200191505b509250505060405180910390f35b610401600480360360208110156103fa57600080fd5b5035610cc0565b604080516001600160a01b039092168252519081900360200190f35b6103656004803603604081101561043357600080fd5b506001600160a01b038135169060200135610d22565b6103656004803603604081101561045f57600080fd5b81359190810190604081016020820135600160201b81111561048057600080fd5b82018360208201111561049257600080fd5b803590602001918460018302840111600160201b831117156104b357600080fd5b91908080601f016020809104026020016040519081016040528093929190818152602001838380828437600092019190915250929550610df8945050505050565b6104fc610e88565b60408051918252519081900360200190f35b6103656004803603606081101561052457600080fd5b506001600160a01b03813581169160208101359091169060400135610e99565b6104fc6004803603602081101561055a57600080fd5b5035610ef0565b6103656004803603604081101561057757600080fd5b50803590602001356001600160a01b0316610f05565b6104fc600480360360408110156105a357600080fd5b506001600160a01b038135169060200135610f68565b610365600480360360408110156105cf57600080fd5b50803590602001356001600160a01b0316610f93565b610365610ff4565b6104fc6004803603604081101561060357600080fd5b506001600160a01b0381351690602001356110c2565b6103656004803603606081101561062f57600080fd5b506001600160a01b03813581169160208101359091169060400135611156565b6103656004803603602081101561066557600080fd5b5035611171565b6104fc6004803603602081101561068257600080fd5b50356111d9565b6103656004803603602081101561069f57600080fd5b810190602081018135600160201b8111156106b957600080fd5b8201836020820111156106cb57600080fd5b803590602001918460018302840111600160201b831117156106ec57600080fd5b91908080601f0160208091040260200160405190810160405280939291908181526020018383808284376000920191909152509295506111ef945050505050565b6102a0611275565b6104016004803603602081101561074b57600080fd5b503561127e565b6104fc6004803603604081101561076857600080fd5b506001600160a01b0381351690602001356112a6565b61036f6116c3565b6104fc6004803603602081101561079c57600080fd5b50356001600160a01b0316611724565b61084d600480360360208110156107c257600080fd5b810190602081018135600160201b8111156107dc57600080fd5b8201836020820111156107ee57600080fd5b803590602001918460208302840111600160201b8311171561080f57600080fd5b91908080602002602001604051908101604052809392919081815260200183836020028082843760009201919091525092955061178c945050505050565b60408051602080825283518183015283519192839290830191858101910280838360005b83811015610889578181015183820152602001610871565b505050509050019250505060405180910390f35b6104fc61182f565b6104fc611853565b610365611877565b6104fc600480360360608110156108cb57600080fd5b6001600160a01b0382351691602081013591810190606081016040820135600160201b8111156108fa57600080fd5b82018360208201111561090c57600080fd5b803590602001918460018302840111600160201b8311171561092d57600080fd5b91908080601f016020809104026020016040519081016040528093929190818152602001838380828437600092019190915250929550611940945050505050565b6104016004803603604081101561098457600080fd5b50803590602001356119dc565b6102a0600480360360408110156109a757600080fd5b50803590602001356001600160a01b03166119f4565b61036f611a0c565b6104fc611a6d565b610365600480360360408110156109e357600080fd5b506001600160a01b0381351690602001351515611a72565b6104fc611b77565b61036560048036036080811015610a1957600080fd5b6001600160a01b03823581169260208101359091169160408201359190810190608081016060820135600160201b811115610a5357600080fd5b820183602082011115610a6557600080fd5b803590602001918460018302840111600160201b83111715610a8657600080fd5b91908080601f016020809104026020016040519081016040528093929190818152602001838380828437600092019190915250929550611b9b945050505050565b6104fc60048036036040811015610add57600080fd5b506001600160a01b038135169060200135611bf9565b61036f60048036036020811015610b0957600080fd5b5035611c25565b6104fc60048036036020811015610b2657600080fd5b5035611ea8565b61036560048036036040811015610b4357600080fd5b50803590602001356001600160a01b0316611ebf565b6104fc611f18565b6102a060048036036040811015610b7757600080fd5b506001600160a01b0381358116916020013516611f1e565b6104fc611f4c565b6104fc60048036036060811015610bad57600080fd5b506001600160a01b038135169060208101359060400135611f5e565b610401611f93565b6001600160e01b0319811660009081526020819052604090205460ff165b919050565b60005b8151811015610c2557610c1d83838381518110610c1057fe5b6020026020010151610d22565b600101610bf7565b505050565b60068054604080516020601f6002600019610100600188161502019095169490940493840181900481028201810190925282815260609390929091830182828015610cb65780601f10610c8b57610100808354040283529160200191610cb6565b820191906000526020600020905b815481529060010190602001808311610c9957829003601f168201915b5050505050905090565b6000610ccb82611fb7565b610d065760405162461bcd60e51b815260040180806020018281038252602c81526020018061341f602c913960400191505060405180910390fd5b506000908152600460205260409020546001600160a01b031690565b6000610d2d8261127e565b9050806001600160a01b0316836001600160a01b03161415610d805760405162461bcd60e51b81526004018080602001828103825260218152602001806134cf6021913960400191505060405180910390fd5b806001600160a01b0316610d92611fc4565b6001600160a01b03161480610db35750610db381610dae611fc4565b611f1e565b610dee5760405162461bcd60e51b81526004018080602001828103825260388152602001806133526038913960400191505060405180910390fd5b610c258383611fc8565b610e297fcf1e7e3bee0e3167872271ce5d51dcec9a6ad0ff65a358daa0e5988775cca4e9610e24611fc4565b6119f4565b610e7a576040805162461bcd60e51b815260206004820152601f60248201527f4d75737420686176652075706461746520746f6b656e2075726920726f6c6500604482015290519081900360640190fd5b610e848282612036565b5050565b6000610e946002612099565b905090565b610eaa610ea4611fc4565b826120a4565b610ee55760405162461bcd60e51b81526004018080602001828103825260318152602001806134f06031913960400191505060405180910390fd5b610c25838383612140565b6000908152600b602052604090206002015490565b6000828152600b6020526040902060020154610f2390610e24611fc4565b610f5e5760405162461bcd60e51b815260040180806020018281038252602f815260200180613271602f913960400191505060405180910390fd5b610e84828261228c565b6001600160a01b0382166000908152600160205260408120610f8a90836122f5565b90505b92915050565b610f9b611fc4565b6001600160a01b0316816001600160a01b031614610fea5760405162461bcd60e51b815260040180806020018281038252602f815260200180613521602f913960400191505060405180910390fd5b610e848282612301565b610ffc611275565b611044576040805162461bcd60e51b815260206004820152601460248201527314185d5cd8589b194e881b9bdd081c185d5cd95960621b604482015290519081900360640190fd5b6110707f375af72e98626b8c328e8df43813527285e7872665324182365ef80f7ae9a3d2610e24611fc4565b6110b8576040805162461bcd60e51b81526020600482015260146024820152734d757374206861766520706175736520726f6c6560601b604482015290519081900360640190fd5b6110c061236a565b565b60006110de6000805160206133dd833981519152610e24611fc4565b611125576040805162461bcd60e51b81526020600482015260136024820152724d7573742068617665206d696e7420726f6c6560681b604482015290519081900360640190fd5b50600c80546001019081905567ffffffffffffffff164260401b64ffffffffff60401b16821717610f8d838261240a565b610c2583838360405180602001604052806000815250611b9b565b61117c610ea4611fc4565b6111cd576040805162461bcd60e51b815260206004820181905260248201527f63616c6c6572206973206e6f74206f776e6572206e6f7220617070726f766564604482015290519081900360640190fd5b6111d681612538565b50565b6000806111e7600284612605565b509392505050565b61121b7fcf1e7e3bee0e3167872271ce5d51dcec9a6ad0ff65a358daa0e5988775cca4e9610e24611fc4565b61126c576040805162461bcd60e51b815260206004820152601f60248201527f4d75737420686176652075706461746520746f6b656e2075726920726f6c6500604482015290519081900360640190fd5b6111d681612621565b600a5460ff1690565b6000610f8d826040518060600160405280602981526020016133b46029913960029190612634565b60006112c26000805160206133dd833981519152610e24611fc4565b611309576040805162461bcd60e51b81526020600482015260136024820152724d7573742068617665206d696e7420726f6c6560681b604482015290519081900360640190fd5b600d5460408051637553606d60e11b815260048101859052905160009283926001600160a01b039091169163eaa6c0da91602480820192606092909190829003018186803b15801561135a57600080fd5b505afa15801561136e573d6000803e3d6000fd5b505050506040513d606081101561138457600080fd5b508051602091820151600c805460010190819055600d5460408051630d25447360e21b8152815195985093965067ffffffffffffffff909216944290921b64ffffffffff60401b16936001600160a01b039091169263349511cc926004808301939192829003018186803b1580156113fb57600080fd5b505afa15801561140f573d6000803e3d6000fd5b505050506040513d602081101561142557600080fd5b5051600d54604080516352a7c7d760e11b8152905161ffff871660ff9094169390931b926001600160a01b039092169163a54f8fae91600480820192602092909190829003018186803b15801561147b57600080fd5b505afa15801561148f573d6000803e3d6000fd5b505050506040513d60208110156114a557600080fd5b5051600d546040805163e10f024d60e01b8152905161ffff891660ff9094169390931b926001600160a01b039092169163e10f024d91600480820192602092909190829003018186803b1580156114fb57600080fd5b505afa15801561150f573d6000803e3d6000fd5b505050506040513d602081101561152557600080fd5b5051600d5460408051630ab12ded60e01b8152905160ff909316926001600160a01b0390921691630ab12ded91600480820192602092909190829003018186803b15801561157257600080fd5b505afa158015611586573d6000803e3d6000fd5b505050506040513d602081101561159c57600080fd5b505161ffff16901b1717171792506115b4858461240a565b6116bb83611640600d60009054906101000a90046001600160a01b03166001600160a01b0316635e526eb16040518163ffffffff1660e01b815260040160206040518083038186803b15801561160957600080fd5b505afa15801561161d573d6000803e3d6000fd5b505050506040513d602081101561163357600080fd5b505160ff1686901c612641565b6040516020018082805190602001908083835b602083106116725780518252601f199092019160209182019101611653565b6001836020036101000a0380198251168184511680821785525050505050509050018064173539b7b760d91b815250600501915050604051602081830303815290604052612036565b505092915050565b60098054604080516020601f6002600019610100600188161502019095169490940493840181900481028201810190925282815260609390929091830182828015610cb65780601f10610c8b57610100808354040283529160200191610cb6565b60006001600160a01b03821661176b5760405162461bcd60e51b815260040180806020018281038252602a81526020018061338a602a913960400191505060405180910390fd5b6001600160a01b0382166000908152600160205260409020610f8d90612099565b606080825167ffffffffffffffff811180156117a757600080fd5b506040519080825280602002602001820160405280156117d1578160200160208202803683370190505b50905060005b8351811015611828576117fc8482815181106117ef57fe5b6020026020010151610cc0565b82828151811061180857fe5b6001600160a01b03909216602092830291909101909101526001016117d7565b5092915050565b7fa49807205ce4d355092ef5a8a18f56e8913cf4a201fbe287825b095693c2177581565b7fcf1e7e3bee0e3167872271ce5d51dcec9a6ad0ff65a358daa0e5988775cca4e981565b61187f611275565b156118c4576040805162461bcd60e51b815260206004820152601060248201526f14185d5cd8589b194e881c185d5cd95960821b604482015290519081900360640190fd5b6118f07f375af72e98626b8c328e8df43813527285e7872665324182365ef80f7ae9a3d2610e24611fc4565b611938576040805162461bcd60e51b81526020600482015260146024820152734d757374206861766520706175736520726f6c6560601b604482015290519081900360640190fd5b6110c061271c565b600061195c6000805160206133dd833981519152610e24611fc4565b6119a3576040805162461bcd60e51b81526020600482015260136024820152724d7573742068617665206d696e7420726f6c6560681b604482015290519081900360640190fd5b50600c80546001019081905567ffffffffffffffff164260401b64ffffffffff60401b168317176119d584828461279f565b9392505050565b6000828152600b60205260408120610f8a90836122f5565b6000828152600b60205260408120610f8a90836127f1565b60078054604080516020601f6002600019610100600188161502019095169490940493840181900481028201810190925282815260609390929091830182828015610cb65780601f10610c8b57610100808354040283529160200191610cb6565b600081565b611a7a611fc4565b6001600160a01b0316826001600160a01b03161415611ae0576040805162461bcd60e51b815260206004820152601960248201527f4552433732313a20617070726f766520746f2063616c6c657200000000000000604482015290519081900360640190fd5b8060056000611aed611fc4565b6001600160a01b03908116825260208083019390935260409182016000908120918716808252919093529120805460ff191692151592909217909155611b31611fc4565b6001600160a01b03167f17307eab39ab6107e8899845ad3d59bd9653f200f220920489ca2b5937696c318360405180821515815260200191505060405180910390a35050565b7f375af72e98626b8c328e8df43813527285e7872665324182365ef80f7ae9a3d281565b611bac611ba6611fc4565b836120a4565b611be75760405162461bcd60e51b81526004018080602001828103825260318152602001806134f06031913960400191505060405180910390fd5b611bf384848484612806565b50505050565b6001600160a01b0382166000908152600e602090815260408083208484529091528120610f8a90612099565b6060611c3082611fb7565b611c6b5760405162461bcd60e51b815260040180806020018281038252602f8152602001806134a0602f913960400191505060405180910390fd5b60008281526008602090815260409182902080548351601f6002600019610100600186161502019093169290920491820184900484028101840190945280845260609392830182828015611d005780601f10611cd557610100808354040283529160200191611d00565b820191906000526020600020905b815481529060010190602001808311611ce357829003601f168201915b505050505090506060611d116116c3565b9050805160001415611d2557509050610bef565b815115611de65780826040516020018083805190602001908083835b60208310611d605780518252601f199092019160209182019101611d41565b51815160209384036101000a600019018019909216911617905285519190930192850191508083835b60208310611da85780518252601f199092019160209182019101611d89565b6001836020036101000a0380198251168184511680821785525050505050509050019250505060405160208183030381529060405292505050610bef565b80611df085612641565b6040516020018083805190602001908083835b60208310611e225780518252601f199092019160209182019101611e03565b51815160209384036101000a600019018019909216911617905285519190930192850191508083835b60208310611e6a5780518252601f199092019160209182019101611e4b565b6001836020036101000a0380198251168184511680821785525050505050509050019250505060405160208183030381529060405292505050919050565b6000818152600b60205260408120610f8d90612099565b6000828152600b6020526040902060020154611edd90610e24611fc4565b610fea5760405162461bcd60e51b81526004018080602001828103825260308152602001806133226030913960400191505060405180910390fd5b600c5481565b6001600160a01b03918216600090815260056020908152604080832093909416825291909152205460ff1690565b6000805160206133dd83398151915281565b6001600160a01b0383166000908152600e602090815260408083208584529091528120611f8b90836122f5565b949350505050565b600d546001600160a01b031681565b6000610f8a836001600160a01b038416612858565b6000610f8d6002836128a2565b3390565b600081815260046020526040902080546001600160a01b0319166001600160a01b0384169081179091558190611ffd8261127e565b6001600160a01b03167f8c5be1e5ebec7d5bd14f71427d1e84f3dd0314c0f7b2291e5b200ac8c7c3b92560405160405180910390a45050565b61203f82611fb7565b61207a5760405162461bcd60e51b815260040180806020018281038252602c81526020018061344b602c913960400191505060405180910390fd5b60008281526008602090815260409091208251610c2592840190613142565b6000610f8d826128ae565b60006120af82611fb7565b6120ea5760405162461bcd60e51b815260040180806020018281038252602c8152602001806132f6602c913960400191505060405180910390fd5b60006120f58361127e565b9050806001600160a01b0316846001600160a01b031614806121305750836001600160a01b031661212584610cc0565b6001600160a01b0316145b80611f8b5750611f8b8185611f1e565b826001600160a01b03166121538261127e565b6001600160a01b0316146121985760405162461bcd60e51b81526004018080602001828103825260298152602001806134776029913960400191505060405180910390fd5b6001600160a01b0382166121dd5760405162461bcd60e51b81526004018080602001828103825260248152602001806132d26024913960400191505060405180910390fd5b6121e88383836128b2565b6121f3600082611fc8565b6001600160a01b038316600090815260016020526040902061221590826129b8565b506001600160a01b038216600090815260016020526040902061223890826129c4565b50612245600282846129d0565b5080826001600160a01b0316846001600160a01b03167fddf252ad1be2c89b69c2b068fc378daa952ba7f163c4a11628f55a4df523b3ef60405160405180910390a4505050565b6000828152600b602052604090206122a49082611fa2565b15610e84576122b1611fc4565b6001600160a01b0316816001600160a01b0316837f2f8788117e7eff1d82e926ec794901d17c78024a50270940304540a733656f0d60405160405180910390a45050565b6000610f8a83836129e6565b6000828152600b602052604090206123199082612a4a565b15610e8457612326611fc4565b6001600160a01b0316816001600160a01b0316837ff6391f5c32d9c69d2a47ea670b442974b53935d1edc7fd64eb21e047a839171b60405160405180910390a45050565b612372611275565b6123ba576040805162461bcd60e51b815260206004820152601460248201527314185d5cd8589b194e881b9bdd081c185d5cd95960621b604482015290519081900360640190fd5b600a805460ff191690557f5db9ee0a495bf2e6ff9c91a7834c1ba4fdd244a5e8aa4e537bd38aeae4b073aa6123ed611fc4565b604080516001600160a01b039092168252519081900360200190a1565b6001600160a01b038216612465576040805162461bcd60e51b815260206004820181905260248201527f4552433732313a206d696e7420746f20746865207a65726f2061646472657373604482015290519081900360640190fd5b61246e81611fb7565b156124c0576040805162461bcd60e51b815260206004820152601c60248201527f4552433732313a20746f6b656e20616c7265616479206d696e74656400000000604482015290519081900360640190fd5b6124cc600083836128b2565b6001600160a01b03821660009081526001602052604090206124ee90826129c4565b506124fb600282846129d0565b5060405181906001600160a01b038416906000907fddf252ad1be2c89b69c2b068fc378daa952ba7f163c4a11628f55a4df523b3ef908290a45050565b60006125438261127e565b9050612551816000846128b2565b61255c600083611fc8565b600082815260086020526040902054600260001961010060018416150201909116041561259a57600082815260086020526040812061259a916131ce565b6001600160a01b03811660009081526001602052604090206125bc90836129b8565b506125c8600283612a5f565b5060405182906000906001600160a01b038416907fddf252ad1be2c89b69c2b068fc378daa952ba7f163c4a11628f55a4df523b3ef908390a45050565b60008080806126148686612a6b565b9097909650945050505050565b8051610e84906009906020840190613142565b6000611f8b848484612ae6565b60608161266657506040805180820190915260018152600360fc1b6020820152610bef565b8160005b811561267e57600101600a8204915061266a565b60608167ffffffffffffffff8111801561269757600080fd5b506040519080825280601f01601f1916602001820160405280156126c2576020820181803683370190505b50859350905060001982015b831561271357600a840660300160f81b828280600190039350815181106126f157fe5b60200101906001600160f81b031916908160001a905350600a840493506126ce565b50949350505050565b612724611275565b15612769576040805162461bcd60e51b815260206004820152601060248201526f14185d5cd8589b194e881c185d5cd95960821b604482015290519081900360640190fd5b600a805460ff191660011790557f62e78cea01bee320cd4e420270b5ea74000d11b0c9f74754ebdbfc544b05a2586123ed611fc4565b6127a9838361240a565b6127b66000848484612bb0565b610c255760405162461bcd60e51b81526004018080602001828103825260328152602001806132a06032913960400191505060405180910390fd5b6000610f8a836001600160a01b038416612d18565b612811848484612140565b61281d84848484612bb0565b611bf35760405162461bcd60e51b81526004018080602001828103825260328152602001806132a06032913960400191505060405180910390fd5b60006128648383612d18565b61289a57508154600181810184556000848152602080822090930184905584548482528286019093526040902091909155610f8d565b506000610f8d565b6000610f8a8383612d18565b5490565b6128bd838383612d30565b600d5460408051637272bf7d60e01b81526004810184905290516000926001600160a01b031691637272bf7d916024808301926020929190829003018186803b15801561290957600080fd5b505afa15801561291d573d6000803e3d6000fd5b505050506040513d602081101561293357600080fd5b505190506001600160a01b03841615612975576001600160a01b0384166000908152600e60209081526040808320848452909152902061297390836129b8565b505b6001600160a01b03831615611bf3576001600160a01b0383166000908152600e6020908152604080832084845290915290206129b190836129c4565b5050505050565b6000610f8a8383612d7f565b6000610f8a8383612858565b6000611f8b84846001600160a01b038516612e45565b81546000908210612a285760405162461bcd60e51b81526004018080602001828103825260228152602001806132246022913960400191505060405180910390fd5b826000018281548110612a3757fe5b9060005260206000200154905092915050565b6000610f8a836001600160a01b038416612d7f565b6000610f8a8383612edc565b815460009081908310612aaf5760405162461bcd60e51b81526004018080602001828103825260228152602001806133fd6022913960400191505060405180910390fd5b6000846000018481548110612ac057fe5b906000526020600020906002020190508060000154816001015492509250509250929050565b60008281526001840160205260408120548281612b815760405162461bcd60e51b81526004018080602001828103825283818151815260200191508051906020019080838360005b83811015612b46578181015183820152602001612b2e565b50505050905090810190601f168015612b735780820380516001836020036101000a031916815260200191505b509250505060405180910390fd5b50846000016001820381548110612b9457fe5b9060005260206000209060020201600101549150509392505050565b6000612bc4846001600160a01b0316612fb0565b612bd057506001611f8b565b6060612cde630a85bd0160e11b612be5611fc4565b88878760405160240180856001600160a01b03168152602001846001600160a01b0316815260200183815260200180602001828103825283818151815260200191508051906020019080838360005b83811015612c4c578181015183820152602001612c34565b50505050905090810190601f168015612c795780820380516001836020036101000a031916815260200191505b5095505050505050604051602081830303815290604052906001600160e01b0319166020820180516001600160e01b0383818316178352505050506040518060600160405280603281526020016132a0603291396001600160a01b0388169190612fb6565b90506000818060200190516020811015612cf757600080fd5b50516001600160e01b031916630a85bd0160e11b1492505050949350505050565b60009081526001919091016020526040902054151590565b612d3b838383610c25565b612d43611275565b15610c255760405162461bcd60e51b815260040180806020018281038252602b815260200180613246602b913960400191505060405180910390fd5b60008181526001830160205260408120548015612e3b5783546000198083019190810190600090879083908110612db257fe5b9060005260206000200154905080876000018481548110612dcf57fe5b600091825260208083209091019290925582815260018981019092526040902090840190558654879080612dff57fe5b60019003818190600052602060002001600090559055866001016000878152602001908152602001600020600090556001945050505050610f8d565b6000915050610f8d565b600082815260018401602052604081205480612eaa5750506040805180820182528381526020808201848152865460018181018955600089815284812095516002909302909501918255915190820155865486845281880190925292909120556119d5565b82856000016001830381548110612ebd57fe5b90600052602060002090600202016001018190555060009150506119d5565b60008181526001830160205260408120548015612e3b5783546000198083019190810190600090879083908110612f0f57fe5b9060005260206000209060020201905080876000018481548110612f2f57fe5b600091825260208083208454600290930201918255600193840154918401919091558354825289830190526040902090840190558654879080612f6e57fe5b6000828152602080822060026000199094019384020182815560019081018390559290935588815289820190925260408220919091559450610f8d9350505050565b3b151590565b6060611f8b848460008585612fca85612fb0565b61301b576040805162461bcd60e51b815260206004820152601d60248201527f416464726573733a2063616c6c20746f206e6f6e2d636f6e7472616374000000604482015290519081900360640190fd5b60006060866001600160a01b031685876040518082805190602001908083835b6020831061305a5780518252601f19909201916020918201910161303b565b6001836020036101000a03801982511681845116808217855250505050505090500191505060006040518083038185875af1925050503d80600081146130bc576040519150601f19603f3d011682016040523d82523d6000602084013e6130c1565b606091505b50915091506130d18282866130dc565b979650505050505050565b606083156130eb5750816119d5565b8251156130fb5782518084602001fd5b60405162461bcd60e51b8152602060048201818152845160248401528451859391928392604401919085019080838360008315612b46578181015183820152602001612b2e565b828054600181600116156101000203166002900490600052602060002090601f01602090048101928261317857600085556131be565b82601f1061319157805160ff19168380011785556131be565b828001600101855582156131be579182015b828111156131be5782518255916020019190600101906131a3565b506131ca92915061320e565b5090565b50805460018160011615610100020316600290046000825580601f106131f457506111d6565b601f0160209004906000526020600020908101906111d691905b5b808211156131ca576000815560010161320f56fe456e756d657261626c655365743a20696e646578206f7574206f6620626f756e64734552433732315061757361626c653a20746f6b656e207472616e73666572207768696c6520706175736564416363657373436f6e74726f6c3a2073656e646572206d75737420626520616e2061646d696e20746f206772616e744552433732313a207472616e7366657220746f206e6f6e20455243373231526563656976657220696d706c656d656e7465724552433732313a207472616e7366657220746f20746865207a65726f20616464726573734552433732313a206f70657261746f7220717565727920666f72206e6f6e6578697374656e7420746f6b656e416363657373436f6e74726f6c3a2073656e646572206d75737420626520616e2061646d696e20746f207265766f6b654552433732313a20617070726f76652063616c6c6572206973206e6f74206f776e6572206e6f7220617070726f76656420666f7220616c6c4552433732313a2062616c616e636520717565727920666f7220746865207a65726f20616464726573734552433732313a206f776e657220717565727920666f72206e6f6e6578697374656e7420746f6b656e154c00819833dac601ee5ddded6fda79d9d8b506b911b3dbd54cdb95fe6c3686456e756d657261626c654d61703a20696e646578206f7574206f6620626f756e64734552433732313a20617070726f76656420717565727920666f72206e6f6e6578697374656e7420746f6b656e4552433732314d657461646174613a2055524920736574206f66206e6f6e6578697374656e7420746f6b656e4552433732313a207472616e73666572206f6620746f6b656e2074686174206973206e6f74206f776e4552433732314d657461646174613a2055524920717565727920666f72206e6f6e6578697374656e7420746f6b656e4552433732313a20617070726f76616c20746f2063757272656e74206f776e65724552433732313a207472616e736665722063616c6c6572206973206e6f74206f776e6572206e6f7220617070726f766564416363657373436f6e74726f6c3a2063616e206f6e6c792072656e6f756e636520726f6c657320666f722073656c66a264697066735822122062da456299bfbf2a3b8e17ebeffdcb54fbabe2405d90443f50953f250485204764736f6c63430007040033a49807205ce4d355092ef5a8a18f56e8913cf4a201fbe287825b095693c21775",
  "devdoc": {
    "kind": "dev",
    "methods": {
      "approve(address,uint256)": {
        "details": "See {IERC721-approve}."
      },
      "balanceOf(address)": {
        "details": "See {IERC721-balanceOf}."
      },
      "baseURI()": {
        "details": "Returns the base URI set via {_setBaseURI}. This will be automatically added as a prefix in {tokenURI} to each token's URI, or to the token ID if no specific URI is set for that token ID."
      },
      "getApproved(uint256)": {
        "details": "See {IERC721-getApproved}."
      },
      "getRoleAdmin(bytes32)": {
        "details": "Returns the admin role that controls `role`. See {grantRole} and {revokeRole}. To change a role's admin, use {_setRoleAdmin}."
      },
      "getRoleMember(bytes32,uint256)": {
        "details": "Returns one of the accounts that have `role`. `index` must be a value between 0 and {getRoleMemberCount}, non-inclusive. Role bearers are not sorted in any particular way, and their ordering may change at any point. WARNING: When using {getRoleMember} and {getRoleMemberCount}, make sure you perform all queries on the same block. See the following https://forum.openzeppelin.com/t/iterating-over-elements-on-enumerableset-in-openzeppelin-contracts/2296[forum post] for more information."
      },
      "getRoleMemberCount(bytes32)": {
        "details": "Returns the number of accounts that have `role`. Can be used together with {getRoleMember} to enumerate all bearers of a role."
      },
      "grantRole(bytes32,address)": {
        "details": "Grants `role` to `account`. If `account` had not been already granted `role`, emits a {RoleGranted} event. Requirements: - the caller must have ``role``'s admin role."
      },
      "hasRole(bytes32,address)": {
        "details": "Returns `true` if `account` has been granted `role`."
      },
      "isApprovedForAll(address,address)": {
        "details": "See {IERC721-isApprovedForAll}."
      },
      "name()": {
        "details": "See {IERC721Metadata-name}."
      },
      "ownerOf(uint256)": {
        "details": "See {IERC721-ownerOf}."
      },
      "paused()": {
        "details": "Returns true if the contract is paused, and false otherwise."
      },
      "renounceRole(bytes32,address)": {
        "details": "Revokes `role` from the calling account. Roles are often managed via {grantRole} and {revokeRole}: this function's purpose is to provide a mechanism for accounts to lose their privileges if they are compromised (such as when a trusted device is misplaced). If the calling account had been granted `role`, emits a {RoleRevoked} event. Requirements: - the caller must be `account`."
      },
      "revokeRole(bytes32,address)": {
        "details": "Revokes `role` from `account`. If `account` had been granted `role`, emits a {RoleRevoked} event. Requirements: - the caller must have ``role``'s admin role."
      },
      "safeTransferFrom(address,address,uint256)": {
        "details": "See {IERC721-safeTransferFrom}."
      },
      "safeTransferFrom(address,address,uint256,bytes)": {
        "details": "See {IERC721-safeTransferFrom}."
      },
      "setApprovalForAll(address,bool)": {
        "details": "See {IERC721-setApprovalForAll}."
      },
      "supportsInterface(bytes4)": {
        "details": "See {IERC165-supportsInterface}. Time complexity O(1), guaranteed to always use less than 30 000 gas."
      },
      "symbol()": {
        "details": "See {IERC721Metadata-symbol}."
      },
      "tokenByIndex(uint256)": {
        "details": "See {IERC721Enumerable-tokenByIndex}."
      },
      "tokenOfOwnerByIndex(address,uint256)": {
        "details": "See {IERC721Enumerable-tokenOfOwnerByIndex}."
      },
      "tokenURI(uint256)": {
        "details": "See {IERC721Metadata-tokenURI}."
      },
      "totalSupply()": {
        "details": "See {IERC721Enumerable-totalSupply}."
      },
      "transferFrom(address,address,uint256)": {
        "details": "See {IERC721-transferFrom}."
      }
    },
    "version": 1
  },
  "userdoc": {
    "kind": "user",
    "methods": {},
    "version": 1
  },
  "storageLayout": {
    "storage": [
      {
        "astId": 406,
        "contract": "contracts/ERC721Ex.sol:ERC721Ex",
        "label": "_supportedInterfaces",
        "offset": 0,
        "slot": "0",
        "type": "t_mapping(t_bytes4,t_bool)"
      },
      {
        "astId": 1808,
        "contract": "contracts/ERC721Ex.sol:ERC721Ex",
        "label": "_holderTokens",
        "offset": 0,
        "slot": "1",
        "type": "t_mapping(t_address,t_struct(UintSet)4238_storage)"
      },
      {
        "astId": 1810,
        "contract": "contracts/ERC721Ex.sol:ERC721Ex",
        "label": "_tokenOwners",
        "offset": 0,
        "slot": "2",
        "type": "t_struct(UintToAddressMap)3615_storage"
      },
      {
        "astId": 1814,
        "contract": "contracts/ERC721Ex.sol:ERC721Ex",
        "label": "_tokenApprovals",
        "offset": 0,
        "slot": "4",
        "type": "t_mapping(t_uint256,t_address)"
      },
      {
        "astId": 1820,
        "contract": "contracts/ERC721Ex.sol:ERC721Ex",
        "label": "_operatorApprovals",
        "offset": 0,
        "slot": "5",
        "type": "t_mapping(t_address,t_mapping(t_address,t_bool))"
      },
      {
        "astId": 1822,
        "contract": "contracts/ERC721Ex.sol:ERC721Ex",
        "label": "_name",
        "offset": 0,
        "slot": "6",
        "type": "t_string_storage"
      },
      {
        "astId": 1824,
        "contract": "contracts/ERC721Ex.sol:ERC721Ex",
        "label": "_symbol",
        "offset": 0,
        "slot": "7",
        "type": "t_string_storage"
      },
      {
        "astId": 1828,
        "contract": "contracts/ERC721Ex.sol:ERC721Ex",
        "label": "_tokenURIs",
        "offset": 0,
        "slot": "8",
        "type": "t_mapping(t_uint256,t_string_storage)"
      },
      {
        "astId": 1830,
        "contract": "contracts/ERC721Ex.sol:ERC721Ex",
        "label": "_baseURI",
        "offset": 0,
        "slot": "9",
        "type": "t_string_storage"
      },
      {
        "astId": 4351,
        "contract": "contracts/ERC721Ex.sol:ERC721Ex",
        "label": "_paused",
        "offset": 0,
        "slot": "10",
        "type": "t_bool"
      },
      {
        "astId": 22,
        "contract": "contracts/ERC721Ex.sol:ERC721Ex",
        "label": "_roles",
        "offset": 0,
        "slot": "11",
        "type": "t_mapping(t_bytes32,t_struct(RoleData)18_storage)"
      },
      {
        "astId": 4994,
        "contract": "contracts/ERC721Ex.sol:ERC721Ex",
        "label": "tokenIndex",
        "offset": 0,
        "slot": "12",
        "type": "t_uint256"
      },
      {
        "astId": 4996,
        "contract": "contracts/ERC721Ex.sol:ERC721Ex",
        "label": "spec",
        "offset": 0,
        "slot": "13",
        "type": "t_contract(CardSpec)4882"
      },
      {
        "astId": 5002,
        "contract": "contracts/ERC721Ex.sol:ERC721Ex",
        "label": "IdentityTokens",
        "offset": 0,
        "slot": "14",
        "type": "t_mapping(t_address,t_mapping(t_uint256,t_struct(UintSet)4238_storage))"
      }
    ],
    "types": {
      "t_address": {
        "encoding": "inplace",
        "label": "address",
        "numberOfBytes": "20"
      },
      "t_array(t_bytes32)dyn_storage": {
        "base": "t_bytes32",
        "encoding": "dynamic_array",
        "label": "bytes32[]",
        "numberOfBytes": "32"
      },
      "t_array(t_struct(MapEntry)3289_storage)dyn_storage": {
        "base": "t_struct(MapEntry)3289_storage",
        "encoding": "dynamic_array",
        "label": "struct EnumerableMap.MapEntry[]",
        "numberOfBytes": "32"
      },
      "t_bool": {
        "encoding": "inplace",
        "label": "bool",
        "numberOfBytes": "1"
      },
      "t_bytes32": {
        "encoding": "inplace",
        "label": "bytes32",
        "numberOfBytes": "32"
      },
      "t_bytes4": {
        "encoding": "inplace",
        "label": "bytes4",
        "numberOfBytes": "4"
      },
      "t_contract(CardSpec)4882": {
        "encoding": "inplace",
        "label": "contract CardSpec",
        "numberOfBytes": "20"
      },
      "t_mapping(t_address,t_bool)": {
        "encoding": "mapping",
        "key": "t_address",
        "label": "mapping(address => bool)",
        "numberOfBytes": "32",
        "value": "t_bool"
      },
      "t_mapping(t_address,t_mapping(t_address,t_bool))": {
        "encoding": "mapping",
        "key": "t_address",
        "label": "mapping(address => mapping(address => bool))",
        "numberOfBytes": "32",
        "value": "t_mapping(t_address,t_bool)"
      },
      "t_mapping(t_address,t_mapping(t_uint256,t_struct(UintSet)4238_storage))": {
        "encoding": "mapping",
        "key": "t_address",
        "label": "mapping(address => mapping(uint256 => struct EnumerableSet.UintSet))",
        "numberOfBytes": "32",
        "value": "t_mapping(t_uint256,t_struct(UintSet)4238_storage)"
      },
      "t_mapping(t_address,t_struct(UintSet)4238_storage)": {
        "encoding": "mapping",
        "key": "t_address",
        "label": "mapping(address => struct EnumerableSet.UintSet)",
        "numberOfBytes": "32",
        "value": "t_struct(UintSet)4238_storage"
      },
      "t_mapping(t_bytes32,t_struct(RoleData)18_storage)": {
        "encoding": "mapping",
        "key": "t_bytes32",
        "label": "mapping(bytes32 => struct AccessControl.RoleData)",
        "numberOfBytes": "32",
        "value": "t_struct(RoleData)18_storage"
      },
      "t_mapping(t_bytes32,t_uint256)": {
        "encoding": "mapping",
        "key": "t_bytes32",
        "label": "mapping(bytes32 => uint256)",
        "numberOfBytes": "32",
        "value": "t_uint256"
      },
      "t_mapping(t_bytes4,t_bool)": {
        "encoding": "mapping",
        "key": "t_bytes4",
        "label": "mapping(bytes4 => bool)",
        "numberOfBytes": "32",
        "value": "t_bool"
      },
      "t_mapping(t_uint256,t_address)": {
        "encoding": "mapping",
        "key": "t_uint256",
        "label": "mapping(uint256 => address)",
        "numberOfBytes": "32",
        "value": "t_address"
      },
      "t_mapping(t_uint256,t_string_storage)": {
        "encoding": "mapping",
        "key": "t_uint256",
        "label": "mapping(uint256 => string)",
        "numberOfBytes": "32",
        "value": "t_string_storage"
      },
      "t_mapping(t_uint256,t_struct(UintSet)4238_storage)": {
        "encoding": "mapping",
        "key": "t_uint256",
        "label": "mapping(uint256 => struct EnumerableSet.UintSet)",
        "numberOfBytes": "32",
        "value": "t_struct(UintSet)4238_storage"
      },
      "t_string_storage": {
        "encoding": "bytes",
        "label": "string",
        "numberOfBytes": "32"
      },
      "t_struct(AddressSet)4117_storage": {
        "encoding": "inplace",
        "label": "struct EnumerableSet.AddressSet",
        "members": [
          {
            "astId": 4116,
            "contract": "contracts/ERC721Ex.sol:ERC721Ex",
            "label": "_inner",
            "offset": 0,
            "slot": "0",
            "type": "t_struct(Set)3852_storage"
          }
        ],
        "numberOfBytes": "64"
      },
      "t_struct(Map)3297_storage": {
        "encoding": "inplace",
        "label": "struct EnumerableMap.Map",
        "members": [
          {
            "astId": 3292,
            "contract": "contracts/ERC721Ex.sol:ERC721Ex",
            "label": "_entries",
            "offset": 0,
            "slot": "0",
            "type": "t_array(t_struct(MapEntry)3289_storage)dyn_storage"
          },
          {
            "astId": 3296,
            "contract": "contracts/ERC721Ex.sol:ERC721Ex",
            "label": "_indexes",
            "offset": 0,
            "slot": "1",
            "type": "t_mapping(t_bytes32,t_uint256)"
          }
        ],
        "numberOfBytes": "64"
      },
      "t_struct(MapEntry)3289_storage": {
        "encoding": "inplace",
        "label": "struct EnumerableMap.MapEntry",
        "members": [
          {
            "astId": 3286,
            "contract": "contracts/ERC721Ex.sol:ERC721Ex",
            "label": "_key",
            "offset": 0,
            "slot": "0",
            "type": "t_bytes32"
          },
          {
            "astId": 3288,
            "contract": "contracts/ERC721Ex.sol:ERC721Ex",
            "label": "_value",
            "offset": 0,
            "slot": "1",
            "type": "t_bytes32"
          }
        ],
        "numberOfBytes": "64"
      },
      "t_struct(RoleData)18_storage": {
        "encoding": "inplace",
        "label": "struct AccessControl.RoleData",
        "members": [
          {
            "astId": 15,
            "contract": "contracts/ERC721Ex.sol:ERC721Ex",
            "label": "members",
            "offset": 0,
            "slot": "0",
            "type": "t_struct(AddressSet)4117_storage"
          },
          {
            "astId": 17,
            "contract": "contracts/ERC721Ex.sol:ERC721Ex",
            "label": "adminRole",
            "offset": 0,
            "slot": "2",
            "type": "t_bytes32"
          }
        ],
        "numberOfBytes": "96"
      },
      "t_struct(Set)3852_storage": {
        "encoding": "inplace",
        "label": "struct EnumerableSet.Set",
        "members": [
          {
            "astId": 3847,
            "contract": "contracts/ERC721Ex.sol:ERC721Ex",
            "label": "_values",
            "offset": 0,
            "slot": "0",
            "type": "t_array(t_bytes32)dyn_storage"
          },
          {
            "astId": 3851,
            "contract": "contracts/ERC721Ex.sol:ERC721Ex",
            "label": "_indexes",
            "offset": 0,
            "slot": "1",
            "type": "t_mapping(t_bytes32,t_uint256)"
          }
        ],
        "numberOfBytes": "64"
      },
      "t_struct(UintSet)4238_storage": {
        "encoding": "inplace",
        "label": "struct EnumerableSet.UintSet",
        "members": [
          {
            "astId": 4237,
            "contract": "contracts/ERC721Ex.sol:ERC721Ex",
            "label": "_inner",
            "offset": 0,
            "slot": "0",
            "type": "t_struct(Set)3852_storage"
          }
        ],
        "numberOfBytes": "64"
      },
      "t_struct(UintToAddressMap)3615_storage": {
        "encoding": "inplace",
        "label": "struct EnumerableMap.UintToAddressMap",
        "members": [
          {
            "astId": 3614,
            "contract": "contracts/ERC721Ex.sol:ERC721Ex",
            "label": "_inner",
            "offset": 0,
            "slot": "0",
            "type": "t_struct(Map)3297_storage"
          }
        ],
        "numberOfBytes": "64"
      },
      "t_uint256": {
        "encoding": "inplace",
        "label": "uint256",
        "numberOfBytes": "32"
      }
    }
  }
}