{
  "address": "0x698008Baa2C31B63F196A4Fa3381A74A26d6321D",
  "abi": [
    {
      "inputs": [
        {
          "internalType": "contract CardSpec",
          "name": "_spec",
          "type": "address"
        },
        {
          "internalType": "contract IERC20",
          "name": "_cto",
          "type": "address"
        },
        {
          "internalType": "contract ERC721Ex",
          "name": "_nft",
          "type": "address"
        },
        {
          "internalType": "address",
          "name": "_devaddr",
          "type": "address"
        }
      ],
      "stateMutability": "nonpayable",
      "type": "constructor"
    },
    {
      "anonymous": false,
      "inputs": [
        {
          "indexed": true,
          "internalType": "address",
          "name": "previousOwner",
          "type": "address"
        },
        {
          "indexed": true,
          "internalType": "address",
          "name": "newOwner",
          "type": "address"
        }
      ],
      "name": "OwnershipTransferred",
      "type": "event"
    },
    {
      "anonymous": false,
      "inputs": [
        {
          "indexed": false,
          "internalType": "address",
          "name": "account",
          "type": "address"
        }
      ],
      "name": "Paused",
      "type": "event"
    },
    {
      "anonymous": false,
      "inputs": [
        {
          "indexed": false,
          "internalType": "address",
          "name": "account",
          "type": "address"
        }
      ],
      "name": "Unpaused",
      "type": "event"
    },
    {
      "inputs": [
        {
          "internalType": "uint256",
          "name": "_identity",
          "type": "uint256"
        },
        {
          "internalType": "uint256[]",
          "name": "_cardIds",
          "type": "uint256[]"
        }
      ],
      "name": "addSwapCardList",
      "outputs": [],
      "stateMutability": "nonpayable",
      "type": "function"
    },
    {
      "inputs": [],
      "name": "cto",
      "outputs": [
        {
          "internalType": "contract IERC20",
          "name": "",
          "type": "address"
        }
      ],
      "stateMutability": "view",
      "type": "function"
    },
    {
      "inputs": [
        {
          "internalType": "address",
          "name": "_devaddr",
          "type": "address"
        }
      ],
      "name": "dev",
      "outputs": [],
      "stateMutability": "nonpayable",
      "type": "function"
    },
    {
      "inputs": [],
      "name": "devaddr",
      "outputs": [
        {
          "internalType": "address",
          "name": "",
          "type": "address"
        }
      ],
      "stateMutability": "view",
      "type": "function"
    },
    {
      "inputs": [
        {
          "internalType": "uint256",
          "name": "_identity",
          "type": "uint256"
        },
        {
          "internalType": "uint256",
          "name": "_index",
          "type": "uint256"
        }
      ],
      "name": "getSwapCardAt",
      "outputs": [
        {
          "internalType": "uint256",
          "name": "",
          "type": "uint256"
        }
      ],
      "stateMutability": "view",
      "type": "function"
    },
    {
      "inputs": [
        {
          "internalType": "uint256",
          "name": "_identity",
          "type": "uint256"
        }
      ],
      "name": "getSwapCardLength",
      "outputs": [
        {
          "internalType": "uint256",
          "name": "",
          "type": "uint256"
        }
      ],
      "stateMutability": "view",
      "type": "function"
    },
    {
      "inputs": [],
      "name": "nft",
      "outputs": [
        {
          "internalType": "contract ERC721Ex",
          "name": "",
          "type": "address"
        }
      ],
      "stateMutability": "view",
      "type": "function"
    },
    {
      "inputs": [],
      "name": "owner",
      "outputs": [
        {
          "internalType": "address",
          "name": "",
          "type": "address"
        }
      ],
      "stateMutability": "view",
      "type": "function"
    },
    {
      "inputs": [],
      "name": "pause",
      "outputs": [],
      "stateMutability": "nonpayable",
      "type": "function"
    },
    {
      "inputs": [],
      "name": "paused",
      "outputs": [
        {
          "internalType": "bool",
          "name": "",
          "type": "bool"
        }
      ],
      "stateMutability": "view",
      "type": "function"
    },
    {
      "inputs": [
        {
          "internalType": "uint256",
          "name": "_identity",
          "type": "uint256"
        },
        {
          "internalType": "uint256[]",
          "name": "_cardIds",
          "type": "uint256[]"
        }
      ],
      "name": "removeSwapCardList",
      "outputs": [],
      "stateMutability": "nonpayable",
      "type": "function"
    },
    {
      "inputs": [],
      "name": "renounceOwnership",
      "outputs": [],
      "stateMutability": "nonpayable",
      "type": "function"
    },
    {
      "inputs": [
        {
          "internalType": "uint256",
          "name": "price",
          "type": "uint256"
        }
      ],
      "name": "setUnitPrice",
      "outputs": [],
      "stateMutability": "nonpayable",
      "type": "function"
    },
    {
      "inputs": [],
      "name": "spec",
      "outputs": [
        {
          "internalType": "contract CardSpec",
          "name": "",
          "type": "address"
        }
      ],
      "stateMutability": "view",
      "type": "function"
    },
    {
      "inputs": [
        {
          "internalType": "uint256",
          "name": "tokenIdsrc",
          "type": "uint256"
        },
        {
          "internalType": "uint256",
          "name": "cardIdDst",
          "type": "uint256"
        }
      ],
      "name": "swap",
      "outputs": [
        {
          "internalType": "uint256",
          "name": "tokenId",
          "type": "uint256"
        }
      ],
      "stateMutability": "nonpayable",
      "type": "function"
    },
    {
      "inputs": [
        {
          "internalType": "address",
          "name": "newOwner",
          "type": "address"
        }
      ],
      "name": "transferOwnership",
      "outputs": [],
      "stateMutability": "nonpayable",
      "type": "function"
    },
    {
      "inputs": [],
      "name": "unitPrice",
      "outputs": [
        {
          "internalType": "uint256",
          "name": "",
          "type": "uint256"
        }
      ],
      "stateMutability": "view",
      "type": "function"
    },
    {
      "inputs": [],
      "name": "unpause",
      "outputs": [],
      "stateMutability": "nonpayable",
      "type": "function"
    }
  ],
  "transactionHash": "0x39c574027d07259435c7f2c41d5581bf9d54d13658d71d85f3b550e71e71cb53",
  "args": [
    "0x1E9c6F7baF1Ed882B5276568879b44Dc585ef2d5",
    "0x65B22Bd2F1c7A0f07283B4225771CC5455EEd272",
    "0xc4f6E2E782339Da6cB4e27214D42D6A60B4EF13E",
    "0x36DEd7CCD7d20DE9e7DE160eC61D70a709ee3Ec9"
  ],
  "solcInputHash": "24858961e066203ddb505a514341a5fd",
  "bytecode": "0x60806040523480156200001157600080fd5b50604051620013a6380380620013a68339810160408190526200003491620000ef565b600062000040620000eb565b600080546001600160a01b0319166001600160a01b0383169081178255604051929350917f8be0079c531659141344cd1fd0a4f28419497f9722a3daafe3b4186f6b6457e0908290a3506000805460ff60a01b19169055600280546001600160a01b039586166001600160a01b03199182161790915560038054948616948216949094179093556004805492851692841692909217909155600580549190931691161790556200016f565b3390565b6000806000806080858703121562000105578384fd5b8451620001128162000156565b6020860151909450620001258162000156565b6040860151909350620001388162000156565b60608601519092506200014b8162000156565b939692955090935050565b6001600160a01b03811681146200016c57600080fd5b50565b611227806200017f6000396000f3fe608060405234801561001057600080fd5b50600436106101165760003560e01c80638da5cb5b116100a2578063dc1b732811610071578063dc1b7328146101ec578063e73faa2d146101ff578063ed60b36b14610207578063f2fde38b1461021a578063f448c9bc1461022d57610116565b80638da5cb5b146101b6578063cf8e5007146101be578063d49e77cd146101d1578063d96073cf146101d957610116565b80635c975abb116100e95780635c975abb14610176578063620ddef01461018b578063715018a6146101935780638456cb591461019b5780638d88a90e146101a357610116565b8063181b358b1461011b5780633a0cd470146101445780633f4ba83a1461015757806347ccca0214610161575b600080fd5b61012e610129366004610f96565b610235565b60405161013b9190611138565b60405180910390f35b61012e610152366004611073565b610252565b61015f610271565b005b61016961032d565b60405161013b9190611094565b61017e61033c565b60405161013b91906110c1565b61016961034c565b61015f61035b565b61015f610407565b61015f6101b1366004610f6f565b6104be565b610169610542565b61015f6101cc366004610fc6565b610551565b6101696106c5565b61012e6101e7366004611073565b6106d4565b61015f6101fa366004610f96565b6108ea565b61012e610951565b61015f610215366004610fc6565b610957565b61015f610228366004610f6f565b610a06565b610169610b08565b600081815260076020526040812061024c90610b17565b92915050565b600082815260076020526040812061026a9083610b22565b9392505050565b610279610b2e565b6001600160a01b031661028a610542565b6001600160a01b0316146102d3576040805162461bcd60e51b815260206004820181905260248201526000805160206111ae833981519152604482015290519081900360640190fd5b6102db61033c565b610323576040805162461bcd60e51b815260206004820152601460248201527314185d5cd8589b194e881b9bdd081c185d5cd95960621b604482015290519081900360640190fd5b61032b610b32565b565b6004546001600160a01b031681565b600054600160a01b900460ff1690565b6003546001600160a01b031681565b610363610b2e565b6001600160a01b0316610374610542565b6001600160a01b0316146103bd576040805162461bcd60e51b815260206004820181905260248201526000805160206111ae833981519152604482015290519081900360640190fd5b600080546040516001600160a01b03909116907f8be0079c531659141344cd1fd0a4f28419497f9722a3daafe3b4186f6b6457e0908390a3600080546001600160a01b0319169055565b61040f610b2e565b6001600160a01b0316610420610542565b6001600160a01b031614610469576040805162461bcd60e51b815260206004820181905260248201526000805160206111ae833981519152604482015290519081900360640190fd5b61047161033c565b156104b6576040805162461bcd60e51b815260206004820152601060248201526f14185d5cd8589b194e881c185d5cd95960821b604482015290519081900360640190fd5b61032b610bd5565b6104c6610b2e565b6001600160a01b03166104d7610542565b6001600160a01b031614610520576040805162461bcd60e51b815260206004820181905260248201526000805160206111ae833981519152604482015290519081900360640190fd5b600580546001600160a01b0319166001600160a01b0392909216919091179055565b6000546001600160a01b031690565b610559610b2e565b6001600160a01b031661056a610542565b6001600160a01b0316146105b3576040805162461bcd60e51b815260206004820181905260248201526000805160206111ae833981519152604482015290519081900360640190fd5b60005b81518110156106c057600260009054906101000a90046001600160a01b03166001600160a01b031663a208ab7c6040518163ffffffff1660e01b815260040160206040518083038186803b15801561060d57600080fd5b505afa158015610621573d6000803e3d6000fd5b505050506040513d601f19601f820116820180604052508101906106459190610fae565b82828151811061065157fe5b60200260200101511061067f5760405162461bcd60e51b815260040161067690611103565b60405180910390fd5b6106b782828151811061068e57fe5b602002602001015160076000868152602001908152602001600020610c5e90919063ffffffff16565b506001016105b6565b505050565b6005546001600160a01b031681565b60006106de61033c565b15610723576040805162461bcd60e51b815260206004820152601060248201526f14185d5cd8589b194e881c185d5cd95960821b604482015290519081900360640190fd5b600254604051637272bf7d60e01b81526000916001600160a01b031690637272bf7d90610754908790600401611138565b60206040518083038186803b15801561076c57600080fd5b505afa158015610780573d6000803e3d6000fd5b505050506040513d601f19601f820116820180604052508101906107a49190610fae565b60008181526007602052604090209091506107bf9084610c6a565b6107db5760405162461bcd60e51b8152600401610676906110cc565b6003546005546006546107fe926001600160a01b03908116923392911690610c76565b60048054604051630852cd8d60e31b81526001600160a01b03909116916342966c689161082d91889101611138565b600060405180830381600087803b15801561084757600080fd5b505af115801561085b573d6000803e3d6000fd5b5050600480546040516364e2c85760e01b81526001600160a01b0390911693506364e2c85792506108909133918891016110a8565b602060405180830381600087803b1580156108aa57600080fd5b505af11580156108be573d6000803e3d6000fd5b505050506040513d601f19601f820116820180604052508101906108e29190610fae565b949350505050565b6108f2610b2e565b6001600160a01b0316610903610542565b6001600160a01b03161461094c576040805162461bcd60e51b815260206004820181905260248201526000805160206111ae833981519152604482015290519081900360640190fd5b600655565b60065481565b61095f610b2e565b6001600160a01b0316610970610542565b6001600160a01b0316146109b9576040805162461bcd60e51b815260206004820181905260248201526000805160206111ae833981519152604482015290519081900360640190fd5b60005b81518110156106c0576109fd8282815181106109d457fe5b602002602001015160076000868152602001908152602001600020610dd390919063ffffffff16565b506001016109bc565b610a0e610b2e565b6001600160a01b0316610a1f610542565b6001600160a01b031614610a68576040805162461bcd60e51b815260206004820181905260248201526000805160206111ae833981519152604482015290519081900360640190fd5b6001600160a01b038116610aad5760405162461bcd60e51b81526004018080602001828103825260268152602001806111886026913960400191505060405180910390fd5b600080546040516001600160a01b03808516939216917f8be0079c531659141344cd1fd0a4f28419497f9722a3daafe3b4186f6b6457e091a3600080546001600160a01b0319166001600160a01b0392909216919091179055565b6002546001600160a01b031681565b600061024c82610ddf565b600061026a8383610de3565b3390565b610b3a61033c565b610b82576040805162461bcd60e51b815260206004820152601460248201527314185d5cd8589b194e881b9bdd081c185d5cd95960621b604482015290519081900360640190fd5b6000805460ff60a01b191690557f5db9ee0a495bf2e6ff9c91a7834c1ba4fdd244a5e8aa4e537bd38aeae4b073aa610bb8610b2e565b604080516001600160a01b039092168252519081900360200190a1565b610bdd61033c565b15610c22576040805162461bcd60e51b815260206004820152601060248201526f14185d5cd8589b194e881c185d5cd95960821b604482015290519081900360640190fd5b6000805460ff60a01b1916600160a01b1790557f62e78cea01bee320cd4e420270b5ea74000d11b0c9f74754ebdbfc544b05a258610bb8610b2e565b600061026a8383610e47565b600061026a8383610e91565b604080516001600160a01b0385811660248301528481166044830152606480830185905283518084039091018152608490920183526020820180516001600160e01b03166323b872dd60e01b17815292518251600094606094938a169392918291908083835b60208310610cfb5780518252601f199092019160209182019101610cdc565b6001836020036101000a0380198251168184511680821785525050505050509050019150506000604051808303816000865af19150503d8060008114610d5d576040519150601f19603f3d011682016040523d82523d6000602084013e610d62565b606091505b5091509150818015610d90575080511580610d905750808060200190516020811015610d8d57600080fd5b50515b610dcb5760405162461bcd60e51b81526004018080602001828103825260248152602001806111ce6024913960400191505060405180910390fd5b505050505050565b600061026a8383610ea9565b5490565b81546000908210610e255760405162461bcd60e51b81526004018080602001828103825260228152602001806111666022913960400191505060405180910390fd5b826000018281548110610e3457fe5b9060005260206000200154905092915050565b6000610e538383610e91565b610e895750815460018181018455600084815260208082209093018490558454848252828601909352604090209190915561024c565b50600061024c565b60009081526001919091016020526040902054151590565b60008181526001830160205260408120548015610f655783546000198083019190810190600090879083908110610edc57fe5b9060005260206000200154905080876000018481548110610ef957fe5b600091825260208083209091019290925582815260018981019092526040902090840190558654879080610f2957fe5b6001900381819060005260206000200160009055905586600101600087815260200190815260200160002060009055600194505050505061024c565b600091505061024c565b600060208284031215610f80578081fd5b81356001600160a01b038116811461026a578182fd5b600060208284031215610fa7578081fd5b5035919050565b600060208284031215610fbf578081fd5b5051919050565b60008060408385031215610fd8578081fd5b8235915060208084013567ffffffffffffffff80821115610ff7578384fd5b818601915086601f83011261100a578384fd5b81358181111561101657fe5b8381029150611026848301611141565b8181528481019084860184860187018b1015611040578788fd5b8795505b83861015611062578035835260019590950194918601918601611044565b508096505050505050509250929050565b60008060408385031215611085578182fd5b50508035926020909101359150565b6001600160a01b0391909116815260200190565b6001600160a01b03929092168252602082015260400190565b901515815260200190565b60208082526018908201527f537761704d61726b65743a206e6f2073776170206c6973740000000000000000604082015260600190565b6020808252818101527f537761704d61726b65743a2063617264206964206f7574206f662072616e6765604082015260600190565b90815260200190565b60405181810167ffffffffffffffff8111828210171561115d57fe5b60405291905056fe456e756d657261626c655365743a20696e646578206f7574206f6620626f756e64734f776e61626c653a206e6577206f776e657220697320746865207a65726f20616464726573734f776e61626c653a2063616c6c6572206973206e6f7420746865206f776e65725472616e7366657248656c7065723a205452414e534645525f46524f4d5f4641494c4544a2646970667358221220a3ecc8a666d1d8c576c2929d52bd64a6ca01edae31394d84ae0c424c94d6019964736f6c63430007040033",
  "devdoc": {
    "kind": "dev",
    "methods": {
      "owner()": {
        "details": "Returns the address of the current owner."
      },
      "paused()": {
        "details": "Returns true if the contract is paused, and false otherwise."
      },
      "renounceOwnership()": {
        "details": "Leaves the contract without owner. It will not be possible to call `onlyOwner` functions anymore. Can only be called by the current owner. NOTE: Renouncing ownership will leave the contract without an owner, thereby removing any functionality that is only available to the owner."
      },
      "transferOwnership(address)": {
        "details": "Transfers ownership of the contract to a new account (`newOwner`). Can only be called by the current owner."
      }
    },
    "version": 1
  },
  "userdoc": {
    "kind": "user",
    "methods": {},
    "version": 1
  },
  "storageLayout": {
    "storage": [
      {
        "astId": 290,
        "contract": "contracts/SwapMarket.sol:SwapMarket",
        "label": "_owner",
        "offset": 0,
        "slot": "0",
        "type": "t_address"
      },
      {
        "astId": 4351,
        "contract": "contracts/SwapMarket.sol:SwapMarket",
        "label": "_paused",
        "offset": 20,
        "slot": "0",
        "type": "t_bool"
      },
      {
        "astId": 7017,
        "contract": "contracts/SwapMarket.sol:SwapMarket",
        "label": "seedIndex",
        "offset": 0,
        "slot": "1",
        "type": "t_uint256"
      },
      {
        "astId": 7019,
        "contract": "contracts/SwapMarket.sol:SwapMarket",
        "label": "spec",
        "offset": 0,
        "slot": "2",
        "type": "t_contract(CardSpec)4882"
      },
      {
        "astId": 7021,
        "contract": "contracts/SwapMarket.sol:SwapMarket",
        "label": "cto",
        "offset": 0,
        "slot": "3",
        "type": "t_contract(IERC20)1549"
      },
      {
        "astId": 7023,
        "contract": "contracts/SwapMarket.sol:SwapMarket",
        "label": "nft",
        "offset": 0,
        "slot": "4",
        "type": "t_contract(ERC721Ex)5509"
      },
      {
        "astId": 7025,
        "contract": "contracts/SwapMarket.sol:SwapMarket",
        "label": "devaddr",
        "offset": 0,
        "slot": "5",
        "type": "t_address"
      },
      {
        "astId": 7027,
        "contract": "contracts/SwapMarket.sol:SwapMarket",
        "label": "unitPrice",
        "offset": 0,
        "slot": "6",
        "type": "t_uint256"
      },
      {
        "astId": 7031,
        "contract": "contracts/SwapMarket.sol:SwapMarket",
        "label": "identityToswapLists",
        "offset": 0,
        "slot": "7",
        "type": "t_mapping(t_uint256,t_struct(UintSet)4238_storage)"
      }
    ],
    "types": {
      "t_address": {
        "encoding": "inplace",
        "label": "address",
        "numberOfBytes": "20"
      },
      "t_array(t_bytes32)dyn_storage": {
        "base": "t_bytes32",
        "encoding": "dynamic_array",
        "label": "bytes32[]",
        "numberOfBytes": "32"
      },
      "t_bool": {
        "encoding": "inplace",
        "label": "bool",
        "numberOfBytes": "1"
      },
      "t_bytes32": {
        "encoding": "inplace",
        "label": "bytes32",
        "numberOfBytes": "32"
      },
      "t_contract(CardSpec)4882": {
        "encoding": "inplace",
        "label": "contract CardSpec",
        "numberOfBytes": "20"
      },
      "t_contract(ERC721Ex)5509": {
        "encoding": "inplace",
        "label": "contract ERC721Ex",
        "numberOfBytes": "20"
      },
      "t_contract(IERC20)1549": {
        "encoding": "inplace",
        "label": "contract IERC20",
        "numberOfBytes": "20"
      },
      "t_mapping(t_bytes32,t_uint256)": {
        "encoding": "mapping",
        "key": "t_bytes32",
        "label": "mapping(bytes32 => uint256)",
        "numberOfBytes": "32",
        "value": "t_uint256"
      },
      "t_mapping(t_uint256,t_struct(UintSet)4238_storage)": {
        "encoding": "mapping",
        "key": "t_uint256",
        "label": "mapping(uint256 => struct EnumerableSet.UintSet)",
        "numberOfBytes": "32",
        "value": "t_struct(UintSet)4238_storage"
      },
      "t_struct(Set)3852_storage": {
        "encoding": "inplace",
        "label": "struct EnumerableSet.Set",
        "members": [
          {
            "astId": 3847,
            "contract": "contracts/SwapMarket.sol:SwapMarket",
            "label": "_values",
            "offset": 0,
            "slot": "0",
            "type": "t_array(t_bytes32)dyn_storage"
          },
          {
            "astId": 3851,
            "contract": "contracts/SwapMarket.sol:SwapMarket",
            "label": "_indexes",
            "offset": 0,
            "slot": "1",
            "type": "t_mapping(t_bytes32,t_uint256)"
          }
        ],
        "numberOfBytes": "64"
      },
      "t_struct(UintSet)4238_storage": {
        "encoding": "inplace",
        "label": "struct EnumerableSet.UintSet",
        "members": [
          {
            "astId": 4237,
            "contract": "contracts/SwapMarket.sol:SwapMarket",
            "label": "_inner",
            "offset": 0,
            "slot": "0",
            "type": "t_struct(Set)3852_storage"
          }
        ],
        "numberOfBytes": "64"
      },
      "t_uint256": {
        "encoding": "inplace",
        "label": "uint256",
        "numberOfBytes": "32"
      }
    }
  }
}